{
  "contractName": "Fair",
  "abi": [
    {
      "inputs": [
        {
          "internalType": "uint256",
          "name": "",
          "type": "uint256"
        },
        {
          "internalType": "address",
          "name": "",
          "type": "address"
        }
      ],
      "name": "biddersList",
      "outputs": [
        {
          "internalType": "bool",
          "name": "participatedFlag",
          "type": "bool"
        },
        {
          "internalType": "uint8",
          "name": "number",
          "type": "uint8"
        }
      ],
      "stateMutability": "view",
      "type": "function"
    },
    {
      "inputs": [
        {
          "internalType": "uint256",
          "name": "",
          "type": "uint256"
        }
      ],
      "name": "gamesList",
      "outputs": [
        {
          "internalType": "address",
          "name": "owner",
          "type": "address"
        },
        {
          "internalType": "bool",
          "name": "isFinished",
          "type": "bool"
        },
        {
          "internalType": "uint256",
          "name": "bid",
          "type": "uint256"
        },
        {
          "internalType": "uint256",
          "name": "participantsLimit",
          "type": "uint256"
        },
        {
          "internalType": "uint256",
          "name": "createdTimestamp",
          "type": "uint256"
        },
        {
          "internalType": "uint256",
          "name": "pool",
          "type": "uint256"
        },
        {
          "internalType": "uint256",
          "name": "individualPrize",
          "type": "uint256"
        },
        {
          "internalType": "uint8",
          "name": "luckyNumber",
          "type": "uint8"
        }
      ],
      "stateMutability": "view",
      "type": "function"
    },
    {
      "inputs": [
        {
          "internalType": "address",
          "name": "",
          "type": "address"
        },
        {
          "internalType": "uint256",
          "name": "",
          "type": "uint256"
        }
      ],
      "name": "prizeList",
      "outputs": [
        {
          "internalType": "bool",
          "name": "isWinner",
          "type": "bool"
        },
        {
          "internalType": "bool",
          "name": "isClaimed",
          "type": "bool"
        },
        {
          "internalType": "uint256",
          "name": "prize",
          "type": "uint256"
        }
      ],
      "stateMutability": "view",
      "type": "function"
    },
    {
      "inputs": [
        {
          "internalType": "uint8",
          "name": "_number",
          "type": "uint8"
        },
        {
          "internalType": "uint8",
          "name": "_limit",
          "type": "uint8"
        }
      ],
      "name": "createGame",
      "outputs": [],
      "stateMutability": "payable",
      "type": "function"
    },
    {
      "inputs": [
        {
          "internalType": "uint256",
          "name": "_gameId",
          "type": "uint256"
        },
        {
          "internalType": "uint8",
          "name": "_number",
          "type": "uint8"
        }
      ],
      "name": "joinGame",
      "outputs": [],
      "stateMutability": "payable",
      "type": "function"
    },
    {
      "inputs": [
        {
          "internalType": "uint256",
          "name": "_gameId",
          "type": "uint256"
        }
      ],
      "name": "finishGame",
      "outputs": [],
      "stateMutability": "nonpayable",
      "type": "function"
    },
    {
      "inputs": [
        {
          "internalType": "uint256",
          "name": "_gameId",
          "type": "uint256"
        }
      ],
      "name": "claim",
      "outputs": [],
      "stateMutability": "nonpayable",
      "type": "function"
    },
    {
      "inputs": [],
      "name": "getActualGames",
      "outputs": [
        {
          "internalType": "uint256[]",
          "name": "",
          "type": "uint256[]"
        }
      ],
      "stateMutability": "view",
      "type": "function"
    },
    {
      "inputs": [
        {
          "internalType": "uint256",
          "name": "_gameId",
          "type": "uint256"
        }
      ],
      "name": "getOwner",
      "outputs": [
        {
          "internalType": "address",
          "name": "",
          "type": "address"
        }
      ],
      "stateMutability": "view",
      "type": "function"
    },
    {
      "inputs": [
        {
          "internalType": "uint256",
          "name": "_gameId",
          "type": "uint256"
        },
        {
          "internalType": "address",
          "name": "adr",
          "type": "address"
        }
      ],
      "name": "getBet",
      "outputs": [
        {
          "internalType": "uint8",
          "name": "",
          "type": "uint8"
        }
      ],
      "stateMutability": "view",
      "type": "function"
    },
    {
      "inputs": [
        {
          "internalType": "uint256",
          "name": "_gameId",
          "type": "uint256"
        }
      ],
      "name": "getPrizes",
      "outputs": [
        {
          "internalType": "uint256[]",
          "name": "",
          "type": "uint256[]"
        },
        {
          "internalType": "address[]",
          "name": "",
          "type": "address[]"
        }
      ],
      "stateMutability": "view",
      "type": "function"
    },
    {
      "inputs": [
        {
          "internalType": "address",
          "name": "_user",
          "type": "address"
        }
      ],
      "name": "getUserGames",
      "outputs": [
        {
          "internalType": "uint256[]",
          "name": "",
          "type": "uint256[]"
        }
      ],
      "stateMutability": "view",
      "type": "function"
    },
    {
      "inputs": [],
      "name": "generateRandom",
      "outputs": [
        {
          "internalType": "uint8",
          "name": "",
          "type": "uint8"
        }
      ],
      "stateMutability": "nonpayable",
      "type": "function"
    }
  ],
  "bytecode": "0x608060405234801561001057600080fd5b50613748806100206000396000f3fe6080604052600436106100c25760003560e01c80635054c0a31161007f578063ca6649c511610059578063ca6649c51461029d578063cc307795146102b9578063cfe186b2146102f7578063e0950ddf14610320576100c2565b80635054c0a3146101dd5780639ff0f4a914610221578063c41a360a14610260576100c2565b806302e4af01146100c7578063120aace6146100f25780631346a76d1461012f57806316466fe61461014b578063208970d514610176578063379607f5146101b4575b600080fd5b3480156100d357600080fd5b506100dc61035d565b6040516100e991906127e1565b60405180910390f35b3480156100fe57600080fd5b506101196004803603810190610114919061285f565b6103bd565b6040516101269190612954565b60405180910390f35b610149600480360381019061014491906129a2565b610926565b005b34801561015757600080fd5b50610160610d00565b60405161016d9190612954565b60405180910390f35b34801561018257600080fd5b5061019d60048036038101906101989190612a0e565b610ec2565b6040516101ab929190612a69565b60405180910390f35b3480156101c057600080fd5b506101db60048036038101906101d69190612a92565b610f0d565b005b3480156101e957600080fd5b5061020460048036038101906101ff9190612a92565b611164565b604051610218989796959493929190612add565b60405180910390f35b34801561022d57600080fd5b5061024860048036038101906102439190612b5b565b6111e6565b60405161025793929190612b9b565b60405180910390f35b34801561026c57600080fd5b5061028760048036038101906102829190612a92565b611237565b6040516102949190612bd2565b60405180910390f35b6102b760048036038101906102b29190612bed565b611277565b005b3480156102c557600080fd5b506102e060048036038101906102db9190612a92565b6117b0565b6040516102ee929190612ceb565b60405180910390f35b34801561030357600080fd5b5061031e60048036038101906103199190612a92565b6118c2565b005b34801561032c57600080fd5b5061034760048036038101906103429190612a0e565b61275a565b60405161035491906127e1565b60405180910390f35b6000806065423360015460405160200161037993929190612d8b565b6040516020818303038152906040528051906020012060001c61039c9190612df7565b9050600160008154809291906103b190612e57565b91905055508091505090565b606060006008600660008573ffffffffffffffffffffffffffffffffffffffff1673ffffffffffffffffffffffffffffffffffffffff168152602001908152602001600020600001805490506104139190612ea0565b67ffffffffffffffff81111561042c5761042b612efa565b5b60405190808252806020026020018201604052801561045a5781602001602082028036833780820191505090505b5090506000805b600660008673ffffffffffffffffffffffffffffffffffffffff1673ffffffffffffffffffffffffffffffffffffffff1681526020019081526020016000206000018054905081101561091b576000600660008773ffffffffffffffffffffffffffffffffffffffff1673ffffffffffffffffffffffffffffffffffffffff168152602001908152602001600020600001828154811061050457610503612f29565b5b90600052602060002001549050600460008281526020019081526020016000206001015484848151811061053b5761053a612f29565b5b60200260200101818152505060046000828152602001908152602001600020600501548460018561056c9190612f58565b8151811061057d5761057c612f29565b5b6020026020010181815250506004600082815260200190815260200160002060020180549050846002856105b19190612f58565b815181106105c2576105c1612f29565b5b60200260200101818152505080846004856105dd9190612f58565b815181106105ee576105ed612f29565b5b60200260200101818152505060046000828152602001908152602001600020600601548460058561061f9190612f58565b815181106106305761062f612f29565b5b6020026020010181815250506004600082815260200190815260200160002060080160009054906101000a900460ff1660ff16846006856106719190612f58565b8151811061068257610681612f29565b5b602002602001018181525050600760008773ffffffffffffffffffffffffffffffffffffffff1673ffffffffffffffffffffffffffffffffffffffff168152602001908152602001600020600082815260200190815260200160002060010154846007856106f09190612f58565b8151811061070157610700612f29565b5b602002602001018181525050600760008773ffffffffffffffffffffffffffffffffffffffff1673ffffffffffffffffffffffffffffffffffffffff168152602001908152602001600020600082815260200190815260200160002060000160019054906101000a900460ff16156107a5576000846003856107839190612f58565b8151811061079457610793612f29565b5b6020026020010181815250506108f8565b600760008773ffffffffffffffffffffffffffffffffffffffff1673ffffffffffffffffffffffffffffffffffffffff168152602001908152602001600020600082815260200190815260200160002060000160009054906101000a900460ff161561083d5760018460038561081b9190612f58565b8151811061082c5761082b612f29565b5b6020026020010181815250506108f7565b6004600082815260200190815260200160002060000160149054906101000a900460ff16158015610891575061012c600460008381526020019081526020016000206005015461088d9190612f58565b4210155b156108c8576002846003856108a69190612f58565b815181106108b7576108b6612f29565b5b6020026020010181815250506108f6565b6000846003856108d89190612f58565b815181106108e9576108e8612f29565b5b6020026020010181815250505b5b5b6008836109059190612f58565b925050808061091390612e57565b915050610461565b508192505050919050565b8160008160ff161015801561093f575060648160ff1611155b61097e576040517f08c379a00000000000000000000000000000000000000000000000000000000081526004016109759061300b565b60405180910390fd5b600034116109c1576040517f08c379a00000000000000000000000000000000000000000000000000000000081526004016109b89061309d565b60405180910390fd5b33600460008054815260200190815260200160002060000160006101000a81548173ffffffffffffffffffffffffffffffffffffffff021916908373ffffffffffffffffffffffffffffffffffffffff1602179055503460046000805481526020019081526020016000206006016000828254610a3e9190612f58565b92505081905550346004600080548152602001908152602001600020600101819055506004600080548152602001908152602001600020600201339080600181540180825580915050600190039060005260206000200160009091909190916101000a81548173ffffffffffffffffffffffffffffffffffffffff021916908373ffffffffffffffffffffffffffffffffffffffff1602179055508160ff1660046000805481526020019081526020016000206004018190555060046000805481526020019081526020016000206003018390806001815401808255809150506001900390600052602060002090602091828204019190069091909190916101000a81548160ff021916908360ff160217905550426004600080548152602001908152602001600020600501819055506000600460008054815260200190815260200160002060080160006101000a81548160ff021916908360ff16021790555082600560008054815260200190815260200160002060003373ffffffffffffffffffffffffffffffffffffffff1673ffffffffffffffffffffffffffffffffffffffff16815260200190815260200160002060000160016101000a81548160ff021916908360ff1602179055506001600560008054815260200190815260200160002060003373ffffffffffffffffffffffffffffffffffffffff1673ffffffffffffffffffffffffffffffffffffffff16815260200190815260200160002060000160006101000a81548160ff021916908315150217905550600660003373ffffffffffffffffffffffffffffffffffffffff1673ffffffffffffffffffffffffffffffffffffffff1681526020019081526020016000206000016000549080600181540180825580915050600190039060005260206000200160009091909190915055600080815480929190610cf690612e57565b9190505550505050565b606060006004600254600054610d1691906130bd565b610d209190612ea0565b67ffffffffffffffff811115610d3957610d38612efa565b5b604051908082528060200260200182016040528015610d675781602001602082028036833780820191505090505b50905060008060025490505b600054811015610eb957600015156004600083815260200190815260200160002060000160149054906101000a900460ff1615151415610ea6576004600082815260200190815260200160002060010154838381518110610dd757610dd6612f29565b5b602002602001018181525050600460008281526020019081526020016000206005015483600184610e089190612f58565b81518110610e1957610e18612f29565b5b602002602001018181525050600460008281526020019081526020016000206002018054905083600284610e4d9190612f58565b81518110610e5e57610e5d612f29565b5b6020026020010181815250508083600384610e799190612f58565b81518110610e8a57610e89612f29565b5b602002602001018181525050600482610ea39190612f58565b91505b8080610eb190612e57565b915050610d73565b50819250505090565b6005602052816000526040600020602052806000526040600020600091509150508060000160009054906101000a900460ff16908060000160019054906101000a900460ff16905082565b60011515600760003373ffffffffffffffffffffffffffffffffffffffff1673ffffffffffffffffffffffffffffffffffffffff168152602001908152602001600020600083815260200190815260200160002060000160009054906101000a900460ff16151514610fb4576040517f08c379a0000000000000000000000000000000000000000000000000000000008152600401610fab9061313d565b60405180910390fd5b60001515600760003373ffffffffffffffffffffffffffffffffffffffff1673ffffffffffffffffffffffffffffffffffffffff168152602001908152602001600020600083815260200190815260200160002060000160019054906101000a900460ff1615151461105b576040517f08c379a0000000000000000000000000000000000000000000000000000000008152600401611052906131a9565b60405180910390fd5b6001600760003373ffffffffffffffffffffffffffffffffffffffff1673ffffffffffffffffffffffffffffffffffffffff168152602001908152602001600020600083815260200190815260200160002060000160016101000a81548160ff0219169083151502179055503373ffffffffffffffffffffffffffffffffffffffff166108fc600760003373ffffffffffffffffffffffffffffffffffffffff1673ffffffffffffffffffffffffffffffffffffffff1681526020019081526020016000206000848152602001908152602001600020600101549081150290604051600060405180830381858888f19350505050158015611160573d6000803e3d6000fd5b5050565b60046020528060005260406000206000915090508060000160009054906101000a900473ffffffffffffffffffffffffffffffffffffffff16908060000160149054906101000a900460ff16908060010154908060040154908060050154908060060154908060070154908060080160009054906101000a900460ff16905088565b6007602052816000526040600020602052806000526040600020600091509150508060000160009054906101000a900460ff16908060000160019054906101000a900460ff16908060010154905083565b60006004600083815260200190815260200160002060000160009054906101000a900473ffffffffffffffffffffffffffffffffffffffff169050919050565b8060008160ff1610158015611290575060648160ff1611155b6112cf576040517f08c379a00000000000000000000000000000000000000000000000000000000081526004016112c69061300b565b60405180910390fd5b8261012c60046000838152602001908152602001600020600501546112f49190612f58565b421115611336576040517f08c379a000000000000000000000000000000000000000000000000000000000815260040161132d90613215565b60405180910390fd5b6004600085815260200190815260200160002060010154341461138e576040517f08c379a0000000000000000000000000000000000000000000000000000000008152600401611385906132a7565b60405180910390fd5b6004600085815260200190815260200160002060000160009054906101000a900473ffffffffffffffffffffffffffffffffffffffff1673ffffffffffffffffffffffffffffffffffffffff163373ffffffffffffffffffffffffffffffffffffffff161415611433576040517f08c379a000000000000000000000000000000000000000000000000000000000815260040161142a90613339565b60405180910390fd5b600015156005600086815260200190815260200160002060003373ffffffffffffffffffffffffffffffffffffffff1673ffffffffffffffffffffffffffffffffffffffff16815260200190815260200160002060000160009054906101000a900460ff161515146114da576040517f08c379a00000000000000000000000000000000000000000000000000000000081526004016114d1906133a5565b60405180910390fd5b60006004600086815260200190815260200160002060040154148061152d575060046000858152602001908152602001600020600401546004600086815260200190815260200160002060020180549050105b61156c576040517f08c379a000000000000000000000000000000000000000000000000000000000815260040161156390613437565b60405180910390fd5b346004600086815260200190815260200160002060060160008282546115929190612f58565b9250508190555060046000858152602001908152602001600020600201339080600181540180825580915050600190039060005260206000200160009091909190916101000a81548173ffffffffffffffffffffffffffffffffffffffff021916908373ffffffffffffffffffffffffffffffffffffffff160217905550600460008581526020019081526020016000206003018390806001815401808255809150506001900390600052602060002090602091828204019190069091909190916101000a81548160ff021916908360ff160217905550826005600086815260200190815260200160002060003373ffffffffffffffffffffffffffffffffffffffff1673ffffffffffffffffffffffffffffffffffffffff16815260200190815260200160002060000160016101000a81548160ff021916908360ff16021790555060016005600086815260200190815260200160002060003373ffffffffffffffffffffffffffffffffffffffff1673ffffffffffffffffffffffffffffffffffffffff16815260200190815260200160002060000160006101000a81548160ff021916908315150217905550600660003373ffffffffffffffffffffffffffffffffffffffff1673ffffffffffffffffffffffffffffffffffffffff16815260200190815260200160002060000184908060018154018082558091505060019003906000526020600020016000909190919091505550505050565b6060806004600084815260200190815260200160002060090160046000858152602001908152602001600020600a018180548060200260200160405190810160405280929190818152602001828054801561182a57602002820191906000526020600020905b815481526020019060010190808311611816575b50505050509150808054806020026020016040519081016040528092919081815260200182805480156118b257602002820191906000526020600020905b8160009054906101000a900473ffffffffffffffffffffffffffffffffffffffff1673ffffffffffffffffffffffffffffffffffffffff1681526020019060010190808311611868575b5050505050905091509150915091565b600015156004600083815260200190815260200160002060000160149054906101000a900460ff1615151461192c576040517f08c379a0000000000000000000000000000000000000000000000000000000008152600401611923906134a3565b60405180910390fd5b61012c60046000838152602001908152602001600020600501546119509190612f58565b4211611991576040517f08c379a000000000000000000000000000000000000000000000000000000000815260040161198890613535565b60405180910390fd5b600115156005600083815260200190815260200160002060003373ffffffffffffffffffffffffffffffffffffffff1673ffffffffffffffffffffffffffffffffffffffff16815260200190815260200160002060000160009054906101000a900460ff16151514611a38576040517f08c379a0000000000000000000000000000000000000000000000000000000008152600401611a2f906135c7565b60405180910390fd5b600160046000838152602001908152602001600020600201805490501415611afc576001600760003373ffffffffffffffffffffffffffffffffffffffff1673ffffffffffffffffffffffffffffffffffffffff168152602001908152602001600020600083815260200190815260200160002060000160006101000a81548160ff02191690831515021790555060046000828152602001908152602001600020600601546004600083815260200190815260200160002060070181905550612721565b6000611b0661035d565b9050806004600084815260200190815260200160002060080160006101000a81548160ff021916908360ff1602179055506000600460008481526020019081526020016000206002018054905067ffffffffffffffff811115611b6c57611b6b612efa565b5b604051908082528060200260200182016040528015611b9a5781602001602082028036833780820191505090505b5090506000600460008581526020019081526020016000206003018054905067ffffffffffffffff811115611bd257611bd1612efa565b5b604051908082528060200260200182016040528015611c005781602001602082028036833780820191505090505b50905060046000858152602001908152602001600020600201805480602002602001604051908101604052809291908181526020018280548015611c9957602002820191906000526020600020905b8160009054906101000a900473ffffffffffffffffffffffffffffffffffffffff1673ffffffffffffffffffffffffffffffffffffffff1681526020019060010190808311611c4f575b5050505050915060046000858152602001908152602001600020600301805480602002602001604051908101604052809291908181526020018280548015611d2657602002820191906000526020600020906000905b82829054906101000a900460ff1660ff1681526020019060010190602082600001049283019260010382029150808411611cef5790505b505050505090506000815167ffffffffffffffff811115611d4a57611d49612efa565b5b604051908082528060200260200182016040528015611d785781602001602082028036833780820191505090505b50905060005b8351811015611eb9578460ff16838281518110611d9e57611d9d612f29565b5b602002602001015160ff161115611e015784838281518110611dc357611dc2612f29565b5b6020026020010151611dd591906135e7565b828281518110611de857611de7612f29565b5b602002602001019060ff16908160ff1681525050611ea6565b8460ff16838281518110611e1857611e17612f29565b5b602002602001015160ff161015611e7b57828181518110611e3c57611e3b612f29565b5b602002602001015185611e4f91906135e7565b828281518110611e6257611e61612f29565b5b602002602001019060ff16908160ff1681525050611ea5565b6000828281518110611e9057611e8f612f29565b5b602002602001019060ff16908160ff16815250505b5b8080611eb190612e57565b915050611d7e565b50600060038251611eca919061361b565b90506000811415611eda57600190505b60008167ffffffffffffffff811115611ef657611ef5612efa565b5b604051908082528060200260200182016040528015611f245781602001602082028036833780820191505090505b50905060008267ffffffffffffffff811115611f4357611f42612efa565b5b604051908082528060200260200182016040528015611f715781602001602082028036833780820191505090505b50905060005b838110156120d057600060649050600080600090505b88518160ff161015611ffb578260ff16888260ff1681518110611fb357611fb2612f29565b5b602002602001015160ff161015611fe857809150878160ff1681518110611fdd57611fdc612f29565b5b602002602001015192505b8080611ff39061364c565b915050611f8d565b506064878260ff168151811061201457612013612f29565b5b602002602001019060ff16908160ff16815250508085848151811061203c5761203b612f29565b5b602002602001019060ff16908160ff1681525050888160ff168151811061206657612065612f29565b5b602002602001015184848151811061208157612080612f29565b5b602002602001019073ffffffffffffffffffffffffffffffffffffffff16908173ffffffffffffffffffffffffffffffffffffffff1681525050505080806120c890612e57565b915050611f77565b506001831115612523576000600460008a81526020019081526020016000206006015490506000600390506000600290505b835181101561213957600160028361211a9190613676565b61212491906136b1565b9150808061213190612e57565b915050612102565b5060008160ff168361214b919061361b565b905060006001855161215d91906130bd565b90505b600081111561235157816007600087848151811061218157612180612f29565b5b602002602001015173ffffffffffffffffffffffffffffffffffffffff1673ffffffffffffffffffffffffffffffffffffffff16815260200190815260200160002060008e8152602001908152602001600020600101819055506001600760008784815181106121f4576121f3612f29565b5b602002602001015173ffffffffffffffffffffffffffffffffffffffff1673ffffffffffffffffffffffffffffffffffffffff16815260200190815260200160002060008e815260200190815260200160002060000160006101000a81548160ff021916908315150217905550600460008d8152602001908152602001600020600901829080600181540180825580915050600190039060005260206000200160009091909190915055600460008d8152602001908152602001600020600a018582815181106122c7576122c6612f29565b5b60200260200101519080600181540180825580915050600190039060005260206000200160009091909190916101000a81548173ffffffffffffffffffffffffffffffffffffffff021916908373ffffffffffffffffffffffffffffffffffffffff16021790555060028261233c9190612ea0565b91508080612349906136e8565b915050612160565b5080600760008660008151811061236b5761236a612f29565b5b602002602001015173ffffffffffffffffffffffffffffffffffffffff1673ffffffffffffffffffffffffffffffffffffffff16815260200190815260200160002060008d815260200190815260200160002060010181905550600160076000866000815181106123df576123de612f29565b5b602002602001015173ffffffffffffffffffffffffffffffffffffffff1673ffffffffffffffffffffffffffffffffffffffff16815260200190815260200160002060008d815260200190815260200160002060000160006101000a81548160ff021916908315150217905550600460008c8152602001908152602001600020600901819080600181540180825580915050600190039060005260206000200160009091909190915055600460008c8152602001908152602001600020600a01846000815181106124b3576124b2612f29565b5b60200260200101519080600181540180825580915050600190039060005260206000200160009091909190916101000a81548173ffffffffffffffffffffffffffffffffffffffff021916908373ffffffffffffffffffffffffffffffffffffffff160217905550505050612719565b6001600760008360008151811061253d5761253c612f29565b5b602002602001015173ffffffffffffffffffffffffffffffffffffffff1673ffffffffffffffffffffffffffffffffffffffff16815260200190815260200160002060008a815260200190815260200160002060000160006101000a81548160ff021916908315150217905550600460008981526020019081526020016000206006015460076000836000815181106125d9576125d8612f29565b5b602002602001015173ffffffffffffffffffffffffffffffffffffffff1673ffffffffffffffffffffffffffffffffffffffff16815260200190815260200160002060008a81526020019081526020016000206001018190555060046000898152602001908152602001600020600901600460008a815260200190815260200160002060060154908060018154018082558091505060019003906000526020600020016000909190919091505560046000898152602001908152602001600020600a01816000815181106126b0576126af612f29565b5b60200260200101519080600181540180825580915050600190039060005260206000200160009091909190916101000a81548173ffffffffffffffffffffffffffffffffffffffff021916908373ffffffffffffffffffffffffffffffffffffffff1602179055505b505050505050505b60016004600083815260200190815260200160002060000160146101000a81548160ff0219169083151502179055508060028190555050565b60006005600084815260200190815260200160002060008373ffffffffffffffffffffffffffffffffffffffff1673ffffffffffffffffffffffffffffffffffffffff16815260200190815260200160002060000160019054906101000a900460ff16905092915050565b600060ff82169050919050565b6127db816127c5565b82525050565b60006020820190506127f660008301846127d2565b92915050565b600080fd5b600073ffffffffffffffffffffffffffffffffffffffff82169050919050565b600061282c82612801565b9050919050565b61283c81612821565b811461284757600080fd5b50565b60008135905061285981612833565b92915050565b600060208284031215612875576128746127fc565b5b60006128838482850161284a565b91505092915050565b600081519050919050565b600082825260208201905092915050565b6000819050602082019050919050565b6000819050919050565b6128cb816128b8565b82525050565b60006128dd83836128c2565b60208301905092915050565b6000602082019050919050565b60006129018261288c565b61290b8185612897565b9350612916836128a8565b8060005b8381101561294757815161292e88826128d1565b9750612939836128e9565b92505060018101905061291a565b5085935050505092915050565b6000602082019050818103600083015261296e81846128f6565b905092915050565b61297f816127c5565b811461298a57600080fd5b50565b60008135905061299c81612976565b92915050565b600080604083850312156129b9576129b86127fc565b5b60006129c78582860161298d565b92505060206129d88582860161298d565b9150509250929050565b6129eb816128b8565b81146129f657600080fd5b50565b600081359050612a08816129e2565b92915050565b60008060408385031215612a2557612a246127fc565b5b6000612a33858286016129f9565b9250506020612a448582860161284a565b9150509250929050565b60008115159050919050565b612a6381612a4e565b82525050565b6000604082019050612a7e6000830185612a5a565b612a8b60208301846127d2565b9392505050565b600060208284031215612aa857612aa76127fc565b5b6000612ab6848285016129f9565b91505092915050565b612ac881612821565b82525050565b612ad7816128b8565b82525050565b600061010082019050612af3600083018b612abf565b612b00602083018a612a5a565b612b0d6040830189612ace565b612b1a6060830188612ace565b612b276080830187612ace565b612b3460a0830186612ace565b612b4160c0830185612ace565b612b4e60e08301846127d2565b9998505050505050505050565b60008060408385031215612b7257612b716127fc565b5b6000612b808582860161284a565b9250506020612b91858286016129f9565b9150509250929050565b6000606082019050612bb06000830186612a5a565b612bbd6020830185612a5a565b612bca6040830184612ace565b949350505050565b6000602082019050612be76000830184612abf565b92915050565b60008060408385031215612c0457612c036127fc565b5b6000612c12858286016129f9565b9250506020612c238582860161298d565b9150509250929050565b600081519050919050565b600082825260208201905092915050565b6000819050602082019050919050565b612c6281612821565b82525050565b6000612c748383612c59565b60208301905092915050565b6000602082019050919050565b6000612c9882612c2d565b612ca28185612c38565b9350612cad83612c49565b8060005b83811015612cde578151612cc58882612c68565b9750612cd083612c80565b925050600181019050612cb1565b5085935050505092915050565b60006040820190508181036000830152612d0581856128f6565b90508181036020830152612d198184612c8d565b90509392505050565b6000819050919050565b612d3d612d38826128b8565b612d22565b82525050565b60008160601b9050919050565b6000612d5b82612d43565b9050919050565b6000612d6d82612d50565b9050919050565b612d85612d8082612821565b612d62565b82525050565b6000612d978286612d2c565b602082019150612da78285612d74565b601482019150612db78284612d2c565b602082019150819050949350505050565b7f4e487b7100000000000000000000000000000000000000000000000000000000600052601260045260246000fd5b6000612e02826128b8565b9150612e0d836128b8565b925082612e1d57612e1c612dc8565b5b828206905092915050565b7f4e487b7100000000000000000000000000000000000000000000000000000000600052601160045260246000fd5b6000612e62826128b8565b91507fffffffffffffffffffffffffffffffffffffffffffffffffffffffffffffffff821415612e9557612e94612e28565b5b600182019050919050565b6000612eab826128b8565b9150612eb6836128b8565b9250817fffffffffffffffffffffffffffffffffffffffffffffffffffffffffffffffff0483118215151615612eef57612eee612e28565b5b828202905092915050565b7f4e487b7100000000000000000000000000000000000000000000000000000000600052604160045260246000fd5b7f4e487b7100000000000000000000000000000000000000000000000000000000600052603260045260246000fd5b6000612f63826128b8565b9150612f6e836128b8565b9250827fffffffffffffffffffffffffffffffffffffffffffffffffffffffffffffffff03821115612fa357612fa2612e28565b5b828201905092915050565b600082825260208201905092915050565b7f43686f6f7365206e756d626572206265747765656e203020616e642031303000600082015250565b6000612ff5601f83612fae565b915061300082612fbf565b602082019050919050565b6000602082019050818103600083015261302481612fe8565b9050919050565b7f467265652067616d657320617265206e6f7420737570706f727465642068657260008201527f6521000000000000000000000000000000000000000000000000000000000000602082015250565b6000613087602283612fae565b91506130928261302b565b604082019050919050565b600060208201905081810360008301526130b68161307a565b9050919050565b60006130c8826128b8565b91506130d3836128b8565b9250828210156130e6576130e5612e28565b5b828203905092915050565b7f596f7520617265206e6f7420612077696e6e6572206f66207468652067616d65600082015250565b6000613127602083612fae565b9150613132826130f1565b602082019050919050565b600060208201905081810360008301526131568161311a565b9050919050565b7f5072697a6520697320636c61696d656420616c72656164790000000000000000600082015250565b6000613193601883612fae565b915061319e8261315d565b602082019050919050565b600060208201905081810360008301526131c281613186565b9050919050565b7f5468652067616d652069732066696e6973686564000000000000000000000000600082015250565b60006131ff601483612fae565b915061320a826131c9565b602082019050919050565b6000602082019050818103600083015261322e816131f2565b9050919050565b7f56616c7565206f6620746865207472616e73616374696f6e2073686f756c642060008201527f626520657175616c20746f207468652067616d65000000000000000000000000602082015250565b6000613291603483612fae565b915061329c82613235565b604082019050919050565b600060208201905081810360008301526132c081613284565b9050919050565b7f4f776e657220697320616c726561647920696e207061727469636970616e747360008201527f206c697374000000000000000000000000000000000000000000000000000000602082015250565b6000613323602583612fae565b915061332e826132c7565b604082019050919050565b6000602082019050818103600083015261335281613316565b9050919050565b7f596f752063616e206e6f74206a6f696e20747769636500000000000000000000600082015250565b600061338f601683612fae565b915061339a82613359565b602082019050919050565b600060208201905081810360008301526133be81613382565b9050919050565b7f5061727469636970616e7473206c696d697420686173206265656e207265616360008201527f6865640000000000000000000000000000000000000000000000000000000000602082015250565b6000613421602383612fae565b915061342c826133c5565b604082019050919050565b6000602082019050818103600083015261345081613414565b9050919050565b7f5468652067616d652069732066696e697368656420616c726561647900000000600082015250565b600061348d601c83612fae565b915061349882613457565b602082019050919050565b600060208201905081810360008301526134bc81613480565b9050919050565b7f596f752063616e2066696e69736820612067616d65206f6e6c7920616674657260008201527f20657861637420706572696f6400000000000000000000000000000000000000602082015250565b600061351f602d83612fae565b915061352a826134c3565b604082019050919050565b6000602082019050818103600083015261354e81613512565b9050919050565b7f4f6e6c79207061727469636970616e74732063616e2066696e6973682061206760008201527f616d650000000000000000000000000000000000000000000000000000000000602082015250565b60006135b1602383612fae565b91506135bc82613555565b604082019050919050565b600060208201905081810360008301526135e0816135a4565b9050919050565b60006135f2826127c5565b91506135fd836127c5565b9250828210156136105761360f612e28565b5b828203905092915050565b6000613626826128b8565b9150613631836128b8565b92508261364157613640612dc8565b5b828204905092915050565b6000613657826127c5565b915060ff82141561366b5761366a612e28565b5b600182019050919050565b6000613681826127c5565b915061368c836127c5565b92508160ff04831182151516156136a6576136a5612e28565b5b828202905092915050565b60006136bc826127c5565b91506136c7836127c5565b92508260ff038211156136dd576136dc612e28565b5b828201905092915050565b60006136f3826128b8565b9150600082141561370757613706612e28565b5b60018203905091905056fea2646970667358221220c26c5cacab96028e8e1049c8f4aedf93d06400263d957c4bdea25b1253b3b2a064736f6c634300080b0033",
  "immutableReferences": {},
  "source": "// SPDX-License-Identifier: MIT\r\npragma solidity 0.8.11;\r\n\r\ncontract Fair {\r\n    uint256 gameId;\r\n    uint256 nonce;\r\n    uint256 lastFinishedGameId;\r\n    uint256[] gamesByUser;\r\n\r\n    struct Game {\r\n        address owner;\r\n        bool isFinished;\r\n        uint256 bid;\r\n        address[] participants;\r\n        uint8[] numbers;\r\n        uint256 participantsLimit;\r\n        uint256 createdTimestamp;\r\n        uint256 pool;\r\n        uint256 individualPrize;\r\n        uint8 luckyNumber;\r\n        uint256[] prizes;\r\n        address[] winners;\r\n    }\r\n\r\n    struct Bid {\r\n        bool participatedFlag;\r\n        uint8 number;\r\n    }\r\n\r\n    struct GamesIdList {\r\n        uint256[] gamesByUser;\r\n    }\r\n\r\n    struct Prize {\r\n        bool isWinner;\r\n        bool isClaimed;\r\n        uint256 prize;\r\n    }\r\n\r\n    mapping (uint256 => Game) public gamesList; // gameId => Game struct\r\n    mapping (uint256 => mapping(address => Bid)) public biddersList;  // gameId => participant_address => Bid\r\n    mapping (address => GamesIdList) gamesByUserList; // user address => array of all his games\r\n    mapping (address => mapping(uint256 => Prize)) public prizeList;    // user address => gameId => winner or not\r\n\r\n    function createGame(uint8 _number, uint8 _limit) public payable onlyInRange(_number) {  \r\n        require(msg.value > 0, \"Free games are not supported here!\");\r\n        gamesList[gameId].owner = msg.sender;\r\n        gamesList[gameId].pool += msg.value;\r\n        gamesList[gameId].bid = msg.value;\r\n        gamesList[gameId].participants.push(msg.sender);\r\n        gamesList[gameId].participantsLimit = _limit;\r\n        gamesList[gameId].numbers.push(_number);\r\n        gamesList[gameId].createdTimestamp = block.timestamp;\r\n        gamesList[gameId].luckyNumber = 0;\r\n        biddersList[gameId][msg.sender].number = _number;\r\n        biddersList[gameId][msg.sender].participatedFlag = true;\r\n        gamesByUserList[msg.sender].gamesByUser.push(gameId);\r\n        gameId ++;\r\n    }\r\n\r\n    function joinGame(uint256 _gameId, uint8 _number) public payable onlyInRange(_number) onlyInGamePeriod(_gameId) {\r\n        require(msg.value == gamesList[_gameId].bid, \"Value of the transaction should be equal to the game\");\r\n        require(msg.sender != gamesList[_gameId].owner, \"Owner is already in participants list\"); \r\n        require(biddersList[_gameId][msg.sender].participatedFlag == false, \"You can not join twice\");\r\n        require(gamesList[_gameId].participantsLimit == 0 || gamesList[_gameId].participants.length < gamesList[_gameId].participantsLimit, \"Participants limit has been reached\");\r\n        gamesList[_gameId].pool += msg.value;\r\n        gamesList[_gameId].participants.push(msg.sender);\r\n        gamesList[_gameId].numbers.push(_number);\r\n        biddersList[_gameId][msg.sender].number = _number;\r\n        biddersList[_gameId][msg.sender].participatedFlag = true;\r\n        gamesByUserList[msg.sender].gamesByUser.push(_gameId);\r\n    }\r\n\r\n    function finishGame(uint256 _gameId) public { \r\n        require(gamesList[_gameId].isFinished == false, \"The game is finished already\");\r\n        require(block.timestamp > gamesList[_gameId].createdTimestamp + 300, \"You can finish a game only after exact period\");\r\n        require(biddersList[_gameId][msg.sender].participatedFlag == true, \"Only participants can finish a game\");\r\n        if(gamesList[_gameId].participants.length == 1) {\r\n            prizeList[msg.sender][_gameId].isWinner = true;\r\n            gamesList[_gameId].individualPrize = gamesList[_gameId].pool;\r\n        } else {\r\n            uint8 randomNumber = generateRandom();\r\n            gamesList[_gameId].luckyNumber = randomNumber;\r\n            address[] memory winners = new address[](gamesList[_gameId].participants.length); // array of participants for ascending sort\r\n            uint8[] memory numbers = new uint8[](gamesList[_gameId].numbers.length);  // array of participants numbers for ascending sort\r\n            winners = gamesList[_gameId].participants;\r\n            numbers = gamesList[_gameId].numbers;\r\n            uint8[] memory differences = new uint8[](numbers.length);\r\n            for (uint256 i = 0; i < winners.length; i++) {\r\n                if (numbers[i] > randomNumber) {\r\n                    differences[i] = numbers[i] - randomNumber;\r\n                } else if (numbers[i] < randomNumber) {\r\n                    differences[i] = randomNumber - numbers[i];\r\n                } else {\r\n                    differences[i] = 0;\r\n                }\r\n            }\r\n            uint256 numberOfWinners = differences.length / 3;\r\n            if (numberOfWinners == 0) {\r\n                numberOfWinners = 1;\r\n            }\r\n            uint8[] memory positionsOfWinners = new uint8[](numberOfWinners);\r\n            address[] memory actualWinners = new address[](numberOfWinners);\r\n            \r\n            for (uint256 i = 0; i < numberOfWinners; i++) {\r\n                uint8 minDifference = 100;\r\n                uint8 winner;\r\n                for (uint8 j = 0; j < numbers.length; j++) {\r\n                    if (differences[j] < minDifference) {\r\n                        winner = j;\r\n                        minDifference = differences[j];\r\n                    }\r\n                }\r\n                differences[winner] = 100;\r\n                positionsOfWinners[i] = winner;\r\n                actualWinners[i] = winners[winner];\r\n            }\r\n            if (numberOfWinners > 1) {\r\n                uint256 pool = gamesList[_gameId].pool;\r\n                uint8 temp = 3;\r\n                for (uint256 i = 2; i < actualWinners.length; i++) {\r\n                    temp = temp * 2 + 1;\r\n                }\r\n                uint256 prizePiece = pool/temp;\r\n                for (uint256 i = actualWinners.length - 1; i > 0; i--) {\r\n                    prizeList[actualWinners[i]][_gameId].prize = prizePiece;\r\n                    prizeList[actualWinners[i]][_gameId].isWinner = true;\r\n                    gamesList[_gameId].prizes.push(prizePiece);\r\n                    gamesList[_gameId].winners.push(actualWinners[i]);\r\n                    prizePiece = prizePiece * 2;\r\n                }\r\n                prizeList[actualWinners[0]][_gameId].prize = prizePiece;\r\n                prizeList[actualWinners[0]][_gameId].isWinner = true;\r\n                gamesList[_gameId].prizes.push(prizePiece);\r\n                gamesList[_gameId].winners.push(actualWinners[0]);\r\n            }\r\n            else {\r\n                prizeList[actualWinners[0]][_gameId].isWinner = true;\r\n                prizeList[actualWinners[0]][_gameId].prize = gamesList[_gameId].pool;\r\n                gamesList[_gameId].prizes.push(gamesList[_gameId].pool);\r\n                gamesList[_gameId].winners.push(actualWinners[0]);\r\n            }\r\n        }\r\n        gamesList[_gameId].isFinished = true;\r\n        lastFinishedGameId = _gameId;\r\n    }\r\n\r\n    function claim(uint256 _gameId) public {\r\n        require(prizeList[msg.sender][_gameId].isWinner == true, \"You are not a winner of the game\");\r\n        require(prizeList[msg.sender][_gameId].isClaimed == false, \"Prize is claimed already\");\r\n        prizeList[msg.sender][_gameId].isClaimed = true;\r\n        payable(msg.sender).transfer(prizeList[msg.sender][_gameId].prize);\r\n    }\r\n\r\n    // Utils functions\r\n\r\n    function getActualGames() public view returns(uint256[] memory) {\r\n        uint256[] memory actualGames = new uint256[]((gameId - lastFinishedGameId) * 4); \r\n        uint256 counter;\r\n        for (uint256 _gameId = lastFinishedGameId; _gameId < gameId; _gameId ++) {\r\n            if (gamesList[_gameId].isFinished == false) {\r\n                actualGames[counter] = gamesList[_gameId].bid;\r\n                actualGames[counter + 1] = gamesList[_gameId].createdTimestamp;\r\n                actualGames[counter + 2] = gamesList[_gameId].participants.length;\r\n                actualGames[counter + 3] = _gameId;\r\n                counter += 4;\r\n            }\r\n        }\r\n        return actualGames;\r\n    }\r\n\r\n    function getOwner(uint256 _gameId) public view returns(address) {\r\n        return gamesList[_gameId].owner;\r\n    }\r\n\r\n    function getBet(uint256 _gameId, address adr) public view returns(uint8) {\r\n        return biddersList[_gameId][adr].number;\r\n    }\r\n\r\n    function getPrizes(uint256 _gameId) public view returns(uint256[] memory, address[] memory) {\r\n        return (gamesList[_gameId].prizes, gamesList[_gameId].winners);\r\n    }\r\n\r\n    function getUserGames(address _user) public view returns(uint256[] memory) {\r\n        uint256[] memory userGames = new uint256[](gamesByUserList[_user].gamesByUser.length * 8);\r\n        uint256 counter;\r\n        for (uint256 _gameId; _gameId < gamesByUserList[_user].gamesByUser.length; _gameId ++) {\r\n            uint256 currentGameId = gamesByUserList[_user].gamesByUser[_gameId];\r\n            userGames[counter] = gamesList[currentGameId].bid;\r\n            userGames[counter + 1] = gamesList[currentGameId].createdTimestamp;\r\n            userGames[counter + 2] = gamesList[currentGameId].participants.length;\r\n            userGames[counter + 4] = currentGameId;\r\n            userGames[counter + 5] = gamesList[currentGameId].pool;\r\n            userGames[counter + 6] = gamesList[currentGameId].luckyNumber;\r\n            userGames[counter + 7] = prizeList[_user][currentGameId].prize;\r\n            if (prizeList[_user][currentGameId].isClaimed) {\r\n                userGames[counter + 3] = 0; // prize is claimed \r\n            } else if (prizeList[_user][currentGameId].isWinner) {\r\n                userGames[counter + 3] = 1; // the game is finished already and user allowed to claim prize\r\n            } else if (!gamesList[currentGameId].isFinished && block.timestamp >= gamesList[currentGameId].createdTimestamp + 300) {\r\n                userGames[counter + 3] = 2; // the game is ready for finish\r\n            } else {\r\n                userGames[counter + 3] = 0; // the game in progress\r\n            }\r\n            counter += 8;\r\n        }\r\n        return userGames;\r\n    }\r\n    \r\n    function generateRandom() public returns(uint8) {\r\n        uint8 randomNumber = uint8(uint(keccak256(abi.encodePacked(block.timestamp, msg.sender, nonce))) % 101); \r\n        nonce++;\r\n        return randomNumber;\r\n    } \r\n\r\n    // Modifiers\r\n\r\n    modifier onlyInRange(uint8 _number) {\r\n        require(_number >= 0 && _number <= 100, \"Choose number between 0 and 100\");\r\n        _;\r\n    }\r\n\r\n    modifier onlyInGamePeriod(uint256 _gameId) {\r\n        require(block.timestamp <= gamesList[_gameId].createdTimestamp + 300, \"The game is finished\");  // 300 = 60 sec * 5\r\n        _;\r\n    }\r\n}",
  "sourcePath": "D:\\1folder\\fair\\coin-draft\\contracts\\Fair.sol",
  "compiler": {
    "name": "solc",
    "version": "0.8.11+commit.d7f03943.Emscripten.clang"
  },
  "schemaVersion": "3.4.4",
  "updatedAt": "2022-06-28T03:02:31.853Z",
  "devdoc": {
    "kind": "dev",
    "methods": {},
    "version": 1
  },
  "userdoc": {
    "kind": "user",
    "methods": {},
    "version": 1
  }
}