{
  "_format": "hh-sol-artifact-1",
  "contractName": "Fair",
  "sourceName": "contracts/Fair.sol",
  "abi": [
    {
      "inputs": [
        {
          "internalType": "address",
          "name": "_wallet",
          "type": "address"
        },
        {
          "internalType": "uint16",
          "name": "_feePercent",
          "type": "uint16"
        }
      ],
      "stateMutability": "nonpayable",
      "type": "constructor"
    },
    {
      "anonymous": false,
      "inputs": [
        {
          "indexed": false,
          "internalType": "uint256",
          "name": "gameId",
          "type": "uint256"
        },
        {
          "indexed": false,
          "internalType": "uint256",
          "name": "bid",
          "type": "uint256"
        }
      ],
      "name": "CreateGame",
      "type": "event"
    },
    {
      "anonymous": false,
      "inputs": [
        {
          "indexed": true,
          "internalType": "address",
          "name": "previousOwner",
          "type": "address"
        },
        {
          "indexed": true,
          "internalType": "address",
          "name": "newOwner",
          "type": "address"
        }
      ],
      "name": "OwnershipTransferred",
      "type": "event"
    },
    {
      "inputs": [
        {
          "internalType": "uint256",
          "name": "",
          "type": "uint256"
        },
        {
          "internalType": "address",
          "name": "",
          "type": "address"
        }
      ],
      "name": "biddersList",
      "outputs": [
        {
          "internalType": "bool",
          "name": "participatedFlag",
          "type": "bool"
        },
        {
          "internalType": "uint8",
          "name": "number",
          "type": "uint8"
        }
      ],
      "stateMutability": "view",
      "type": "function"
    },
    {
      "inputs": [
        {
          "internalType": "uint256",
          "name": "_gameId",
          "type": "uint256"
        }
      ],
      "name": "claim",
      "outputs": [],
      "stateMutability": "nonpayable",
      "type": "function"
    },
    {
      "inputs": [
        {
          "internalType": "uint8",
          "name": "_number",
          "type": "uint8"
        },
        {
          "internalType": "uint8",
          "name": "_limit",
          "type": "uint8"
        }
      ],
      "name": "createGame",
      "outputs": [],
      "stateMutability": "payable",
      "type": "function"
    },
    {
      "inputs": [],
      "name": "feePercent",
      "outputs": [
        {
          "internalType": "uint16",
          "name": "",
          "type": "uint16"
        }
      ],
      "stateMutability": "view",
      "type": "function"
    },
    {
      "inputs": [
        {
          "internalType": "uint256",
          "name": "_gameId",
          "type": "uint256"
        }
      ],
      "name": "finishGame",
      "outputs": [],
      "stateMutability": "nonpayable",
      "type": "function"
    },
    {
      "inputs": [
        {
          "internalType": "uint256",
          "name": "",
          "type": "uint256"
        }
      ],
      "name": "gamesList",
      "outputs": [
        {
          "internalType": "address",
          "name": "owner",
          "type": "address"
        },
        {
          "internalType": "bool",
          "name": "isFinished",
          "type": "bool"
        },
        {
          "internalType": "uint256",
          "name": "bid",
          "type": "uint256"
        },
        {
          "internalType": "uint256",
          "name": "participantsLimit",
          "type": "uint256"
        },
        {
          "internalType": "uint256",
          "name": "createdTimestamp",
          "type": "uint256"
        },
        {
          "internalType": "uint256",
          "name": "pool",
          "type": "uint256"
        },
        {
          "internalType": "uint256",
          "name": "individualPrize",
          "type": "uint256"
        },
        {
          "internalType": "uint8",
          "name": "luckyNumber",
          "type": "uint8"
        }
      ],
      "stateMutability": "view",
      "type": "function"
    },
    {
      "inputs": [],
      "name": "generateRandom",
      "outputs": [
        {
          "internalType": "uint8",
          "name": "",
          "type": "uint8"
        }
      ],
      "stateMutability": "nonpayable",
      "type": "function"
    },
    {
      "inputs": [],
      "name": "getActualGames",
      "outputs": [
        {
          "internalType": "uint256[]",
          "name": "",
          "type": "uint256[]"
        }
      ],
      "stateMutability": "view",
      "type": "function"
    },
    {
      "inputs": [
        {
          "internalType": "uint256",
          "name": "_gameId",
          "type": "uint256"
        },
        {
          "internalType": "address",
          "name": "adr",
          "type": "address"
        }
      ],
      "name": "getBet",
      "outputs": [
        {
          "internalType": "uint8",
          "name": "",
          "type": "uint8"
        }
      ],
      "stateMutability": "view",
      "type": "function"
    },
    {
      "inputs": [
        {
          "internalType": "uint256",
          "name": "_gameId",
          "type": "uint256"
        }
      ],
      "name": "getNumbers",
      "outputs": [
        {
          "internalType": "uint8[]",
          "name": "",
          "type": "uint8[]"
        }
      ],
      "stateMutability": "view",
      "type": "function"
    },
    {
      "inputs": [
        {
          "internalType": "uint256",
          "name": "_gameId",
          "type": "uint256"
        }
      ],
      "name": "getOwner",
      "outputs": [
        {
          "internalType": "address",
          "name": "",
          "type": "address"
        }
      ],
      "stateMutability": "view",
      "type": "function"
    },
    {
      "inputs": [
        {
          "internalType": "uint256",
          "name": "_gameId",
          "type": "uint256"
        }
      ],
      "name": "getPrizes",
      "outputs": [
        {
          "internalType": "uint256[]",
          "name": "",
          "type": "uint256[]"
        },
        {
          "internalType": "address[]",
          "name": "",
          "type": "address[]"
        },
        {
          "internalType": "uint256[]",
          "name": "",
          "type": "uint256[]"
        }
      ],
      "stateMutability": "view",
      "type": "function"
    },
    {
      "inputs": [
        {
          "internalType": "address",
          "name": "_user",
          "type": "address"
        }
      ],
      "name": "getUserGames",
      "outputs": [
        {
          "internalType": "uint256[]",
          "name": "",
          "type": "uint256[]"
        }
      ],
      "stateMutability": "view",
      "type": "function"
    },
    {
      "inputs": [
        {
          "internalType": "uint256",
          "name": "_gameId",
          "type": "uint256"
        },
        {
          "internalType": "uint8",
          "name": "_number",
          "type": "uint8"
        }
      ],
      "name": "joinGame",
      "outputs": [],
      "stateMutability": "payable",
      "type": "function"
    },
    {
      "inputs": [
        {
          "internalType": "uint16",
          "name": "_feePercent",
          "type": "uint16"
        }
      ],
      "name": "newFeePercent",
      "outputs": [],
      "stateMutability": "nonpayable",
      "type": "function"
    },
    {
      "inputs": [
        {
          "internalType": "address",
          "name": "_wallet",
          "type": "address"
        }
      ],
      "name": "newWallet",
      "outputs": [],
      "stateMutability": "nonpayable",
      "type": "function"
    },
    {
      "inputs": [],
      "name": "owner",
      "outputs": [
        {
          "internalType": "address",
          "name": "",
          "type": "address"
        }
      ],
      "stateMutability": "view",
      "type": "function"
    },
    {
      "inputs": [
        {
          "internalType": "address",
          "name": "",
          "type": "address"
        },
        {
          "internalType": "uint256",
          "name": "",
          "type": "uint256"
        }
      ],
      "name": "prizeList",
      "outputs": [
        {
          "internalType": "bool",
          "name": "isWinner",
          "type": "bool"
        },
        {
          "internalType": "bool",
          "name": "isClaimed",
          "type": "bool"
        },
        {
          "internalType": "uint256",
          "name": "prize",
          "type": "uint256"
        }
      ],
      "stateMutability": "view",
      "type": "function"
    },
    {
      "inputs": [],
      "name": "renounceOwnership",
      "outputs": [],
      "stateMutability": "nonpayable",
      "type": "function"
    },
    {
      "inputs": [
        {
          "internalType": "address",
          "name": "newOwner",
          "type": "address"
        }
      ],
      "name": "transferOwnership",
      "outputs": [],
      "stateMutability": "nonpayable",
      "type": "function"
    },
    {
      "inputs": [],
      "name": "wallet",
      "outputs": [
        {
          "internalType": "address",
          "name": "",
          "type": "address"
        }
      ],
      "stateMutability": "view",
      "type": "function"
    }
  ],
  "bytecode": "0x60806040523480156200001157600080fd5b506040516200494638038062004946833981810160405281019062000037919062000232565b620000576200004b620000bd60201b60201c565b620000c560201b60201c565b81600460026101000a81548173ffffffffffffffffffffffffffffffffffffffff021916908373ffffffffffffffffffffffffffffffffffffffff16021790555080600460006101000a81548161ffff021916908361ffff160217905550505062000279565b600033905090565b60008060009054906101000a900473ffffffffffffffffffffffffffffffffffffffff169050816000806101000a81548173ffffffffffffffffffffffffffffffffffffffff021916908373ffffffffffffffffffffffffffffffffffffffff1602179055508173ffffffffffffffffffffffffffffffffffffffff168173ffffffffffffffffffffffffffffffffffffffff167f8be0079c531659141344cd1fd0a4f28419497f9722a3daafe3b4186f6b6457e060405160405180910390a35050565b600080fd5b600073ffffffffffffffffffffffffffffffffffffffff82169050919050565b6000620001bb826200018e565b9050919050565b620001cd81620001ae565b8114620001d957600080fd5b50565b600081519050620001ed81620001c2565b92915050565b600061ffff82169050919050565b6200020c81620001f3565b81146200021857600080fd5b50565b6000815190506200022c8162000201565b92915050565b600080604083850312156200024c576200024b62000189565b5b60006200025c85828601620001dc565b92505060206200026f858286016200021b565b9150509250929050565b6146bd80620002896000396000f3fe60806040526004361061012a5760003560e01c8063715018a6116100ab578063c41a360a1161006f578063c41a360a146103ef578063ca6649c51461042c578063cc30779514610448578063cfe186b214610487578063e0950ddf146104b0578063f2fde38b146104ed5761012a565b8063715018a61461031a5780637fd6f15c146103315780638da5cb5b1461035c5780639ff0f4a914610387578063bda6688f146103c65761012a565b8063379607f5116100f2578063379607f51461021c578063493ab058146102455780634a7b26ae1461026e5780635054c0a3146102ab578063521eb273146102ef5761012a565b806302e4af011461012f578063120aace61461015a5780631346a76d1461019757806316466fe6146101b3578063208970d5146101de575b600080fd5b34801561013b57600080fd5b50610144610516565b60405161015191906133f7565b60405180910390f35b34801561016657600080fd5b50610181600480360381019061017c9190613475565b610576565b60405161018e919061356a565b60405180910390f35b6101b160048036038101906101ac91906135b8565b610ade565b005b3480156101bf57600080fd5b506101c8610efe565b6040516101d5919061356a565b60405180910390f35b3480156101ea57600080fd5b5061020560048036038101906102009190613624565b611102565b60405161021392919061367f565b60405180910390f35b34801561022857600080fd5b50610243600480360381019061023e91906136a8565b61114d565b005b34801561025157600080fd5b5061026c6004803603810190610267919061370f565b6114f6565b005b34801561027a57600080fd5b50610295600480360381019061029091906136a8565b611592565b6040516102a291906137fa565b60405180910390f35b3480156102b757600080fd5b506102d260048036038101906102cd91906136a8565b611626565b6040516102e698979695949392919061383a565b60405180910390f35b3480156102fb57600080fd5b506103046116a8565b60405161031191906138b8565b60405180910390f35b34801561032657600080fd5b5061032f6116ce565b005b34801561033d57600080fd5b50610346611756565b60405161035391906138e2565b60405180910390f35b34801561036857600080fd5b5061037161176a565b60405161037e91906138b8565b60405180910390f35b34801561039357600080fd5b506103ae60048036038101906103a991906138fd565b611793565b6040516103bd9392919061393d565b60405180910390f35b3480156103d257600080fd5b506103ed60048036038101906103e89190613475565b6117e4565b005b3480156103fb57600080fd5b50610416600480360381019061041191906136a8565b6118a4565b60405161042391906138b8565b60405180910390f35b61044660048036038101906104419190613974565b6118e4565b005b34801561045457600080fd5b5061046f600480360381019061046a91906136a8565b611e1d565b60405161047e93929190613a72565b60405180910390f35b34801561049357600080fd5b506104ae60048036038101906104a991906136a8565b61220d565b005b3480156104bc57600080fd5b506104d760048036038101906104d29190613624565b6131ac565b6040516104e491906133f7565b60405180910390f35b3480156104f957600080fd5b50610514600480360381019061050f9190613475565b613217565b005b6000806065423360025460405160200161053293929190613b27565b6040516020818303038152906040528051906020012060001c6105559190613b93565b90506002600081548092919061056a90613bf3565b91905055508091505090565b6060600060088060008573ffffffffffffffffffffffffffffffffffffffff1673ffffffffffffffffffffffffffffffffffffffff168152602001908152602001600020600001805490506105cb9190613c3c565b67ffffffffffffffff8111156105e4576105e3613c96565b5b6040519080825280602002602001820160405280156106125781602001602082028036833780820191505090505b5090506000805b600860008673ffffffffffffffffffffffffffffffffffffffff1673ffffffffffffffffffffffffffffffffffffffff16815260200190815260200160002060000180549050811015610ad3576000600860008773ffffffffffffffffffffffffffffffffffffffff1673ffffffffffffffffffffffffffffffffffffffff16815260200190815260200160002060000182815481106106bc576106bb613cc5565b5b9060005260206000200154905060066000828152602001908152602001600020600101548484815181106106f3576106f2613cc5565b5b6020026020010181815250506006600082815260200190815260200160002060050154846001856107249190613cf4565b8151811061073557610734613cc5565b5b6020026020010181815250506006600082815260200190815260200160002060020180549050846002856107699190613cf4565b8151811061077a57610779613cc5565b5b60200260200101818152505080846004856107959190613cf4565b815181106107a6576107a5613cc5565b5b6020026020010181815250506006600082815260200190815260200160002060060154846005856107d79190613cf4565b815181106107e8576107e7613cc5565b5b6020026020010181815250506006600082815260200190815260200160002060080160009054906101000a900460ff1660ff16846006856108299190613cf4565b8151811061083a57610839613cc5565b5b602002602001018181525050600960008773ffffffffffffffffffffffffffffffffffffffff1673ffffffffffffffffffffffffffffffffffffffff168152602001908152602001600020600082815260200190815260200160002060010154846007856108a89190613cf4565b815181106108b9576108b8613cc5565b5b602002602001018181525050600960008773ffffffffffffffffffffffffffffffffffffffff1673ffffffffffffffffffffffffffffffffffffffff168152602001908152602001600020600082815260200190815260200160002060000160019054906101000a900460ff161561095d5760008460038561093b9190613cf4565b8151811061094c5761094b613cc5565b5b602002602001018181525050610ab0565b600960008773ffffffffffffffffffffffffffffffffffffffff1673ffffffffffffffffffffffffffffffffffffffff168152602001908152602001600020600082815260200190815260200160002060000160009054906101000a900460ff16156109f5576001846003856109d39190613cf4565b815181106109e4576109e3613cc5565b5b602002602001018181525050610aaf565b6006600082815260200190815260200160002060000160149054906101000a900460ff16158015610a49575061012c6006600083815260200190815260200160002060050154610a459190613cf4565b4210155b15610a8057600284600385610a5e9190613cf4565b81518110610a6f57610a6e613cc5565b5b602002602001018181525050610aae565b600384600385610a909190613cf4565b81518110610aa157610aa0613cc5565b5b6020026020010181815250505b5b5b600883610abd9190613cf4565b9250508080610acb90613bf3565b915050610619565b508192505050919050565b8160008160ff1610158015610af7575060648160ff1611155b610b36576040517f08c379a0000000000000000000000000000000000000000000000000000000008152600401610b2d90613da7565b60405180910390fd5b60003411610b79576040517f08c379a0000000000000000000000000000000000000000000000000000000008152600401610b7090613e39565b60405180910390fd5b3360066000600154815260200190815260200160002060000160006101000a81548173ffffffffffffffffffffffffffffffffffffffff021916908373ffffffffffffffffffffffffffffffffffffffff160217905550346006600060015481526020019081526020016000206006016000828254610bf89190613cf4565b925050819055503460066000600154815260200190815260200160002060010181905550600660006001548152602001908152602001600020600201339080600181540180825580915050600190039060005260206000200160009091909190916101000a81548173ffffffffffffffffffffffffffffffffffffffff021916908373ffffffffffffffffffffffffffffffffffffffff1602179055508160ff16600660006001548152602001908152602001600020600401819055506006600060015481526020019081526020016000206003018390806001815401808255809150506001900390600052602060002090602091828204019190069091909190916101000a81548160ff021916908360ff1602179055504260066000600154815260200190815260200160002060050181905550600060066000600154815260200190815260200160002060080160006101000a81548160ff021916908360ff1602179055508260076000600154815260200190815260200160002060003373ffffffffffffffffffffffffffffffffffffffff1673ffffffffffffffffffffffffffffffffffffffff16815260200190815260200160002060000160016101000a81548160ff021916908360ff160217905550600160076000600154815260200190815260200160002060003373ffffffffffffffffffffffffffffffffffffffff1673ffffffffffffffffffffffffffffffffffffffff16815260200190815260200160002060000160006101000a81548160ff021916908315150217905550600860003373ffffffffffffffffffffffffffffffffffffffff1673ffffffffffffffffffffffffffffffffffffffff16815260200190815260200160002060000160015490806001815401808255809150506001900390600052602060002001600090919091909150557fefdb129ed8c918ef2a35b5212fc80a125215c26d64b3164c17218f7b0c1e1f4a60015434604051610ed9929190613e59565b60405180910390a160016000815480929190610ef490613bf3565b9190505550505050565b606060006005600354600154610f149190613e82565b610f1e9190613c3c565b67ffffffffffffffff811115610f3757610f36613c96565b5b604051908082528060200260200182016040528015610f655781602001602082028036833780820191505090505b50905060008060035490505b6001548110156110f957600015156006600083815260200190815260200160002060000160149054906101000a900460ff16151514156110e6576006600082815260200190815260200160002060010154838381518110610fd557610fd4613cc5565b5b6020026020010181815250506006600082815260200190815260200160002060050154836001846110069190613cf4565b8151811061101757611016613cc5565b5b60200260200101818152505060066000828152602001908152602001600020600201805490508360028461104b9190613cf4565b8151811061105c5761105b613cc5565b5b60200260200101818152505080836003846110779190613cf4565b8151811061108857611087613cc5565b5b6020026020010181815250506006600082815260200190815260200160002060040154836004846110b99190613cf4565b815181106110ca576110c9613cc5565b5b6020026020010181815250506005826110e39190613cf4565b91505b80806110f190613bf3565b915050610f71565b50819250505090565b6007602052816000526040600020602052806000526040600020600091509150508060000160009054906101000a900460ff16908060000160019054906101000a900460ff16905082565b60011515600960003373ffffffffffffffffffffffffffffffffffffffff1673ffffffffffffffffffffffffffffffffffffffff168152602001908152602001600020600083815260200190815260200160002060000160009054906101000a900460ff161515146111f4576040517f08c379a00000000000000000000000000000000000000000000000000000000081526004016111eb90613f02565b60405180910390fd5b60001515600960003373ffffffffffffffffffffffffffffffffffffffff1673ffffffffffffffffffffffffffffffffffffffff168152602001908152602001600020600083815260200190815260200160002060000160019054906101000a900460ff1615151461129b576040517f08c379a000000000000000000000000000000000000000000000000000000000815260040161129290613f6e565b60405180910390fd5b6001600960003373ffffffffffffffffffffffffffffffffffffffff1673ffffffffffffffffffffffffffffffffffffffff168152602001908152602001600020600083815260200190815260200160002060000160016101000a81548160ff0219169083151502179055506000600960003373ffffffffffffffffffffffffffffffffffffffff1673ffffffffffffffffffffffffffffffffffffffff16815260200190815260200160002060008381526020019081526020016000206001015490506000612710600460009054906101000a900461ffff1661ffff16836113849190613c3c565b61138e9190613f8e565b826113999190613e82565b9050600081836113a99190613e82565b905060003373ffffffffffffffffffffffffffffffffffffffff16836040516113d190613ff0565b60006040518083038185875af1925050503d806000811461140e576040519150601f19603f3d011682016040523d82523d6000602084013e611413565b606091505b505090506000600460029054906101000a900473ffffffffffffffffffffffffffffffffffffffff1673ffffffffffffffffffffffffffffffffffffffff168360405161145f90613ff0565b60006040518083038185875af1925050503d806000811461149c576040519150601f19603f3d011682016040523d82523d6000602084013e6114a1565b606091505b505090508180156114af5750805b6114ee576040517f08c379a00000000000000000000000000000000000000000000000000000000081526004016114e590614051565b60405180910390fd5b505050505050565b6114fe61330f565b73ffffffffffffffffffffffffffffffffffffffff1661151c61176a565b73ffffffffffffffffffffffffffffffffffffffff1614611572576040517f08c379a0000000000000000000000000000000000000000000000000000000008152600401611569906140bd565b60405180910390fd5b80600460006101000a81548161ffff021916908361ffff16021790555050565b60606006600083815260200190815260200160002060030180548060200260200160405190810160405280929190818152602001828054801561161a57602002820191906000526020600020906000905b82829054906101000a900460ff1660ff16815260200190600101906020826000010492830192600103820291508084116115e35790505b50505050509050919050565b60066020528060005260406000206000915090508060000160009054906101000a900473ffffffffffffffffffffffffffffffffffffffff16908060000160149054906101000a900460ff16908060010154908060040154908060050154908060060154908060070154908060080160009054906101000a900460ff16905088565b600460029054906101000a900473ffffffffffffffffffffffffffffffffffffffff1681565b6116d661330f565b73ffffffffffffffffffffffffffffffffffffffff166116f461176a565b73ffffffffffffffffffffffffffffffffffffffff161461174a576040517f08c379a0000000000000000000000000000000000000000000000000000000008152600401611741906140bd565b60405180910390fd5b6117546000613317565b565b600460009054906101000a900461ffff1681565b60008060009054906101000a900473ffffffffffffffffffffffffffffffffffffffff16905090565b6009602052816000526040600020602052806000526040600020600091509150508060000160009054906101000a900460ff16908060000160019054906101000a900460ff16908060010154905083565b6117ec61330f565b73ffffffffffffffffffffffffffffffffffffffff1661180a61176a565b73ffffffffffffffffffffffffffffffffffffffff1614611860576040517f08c379a0000000000000000000000000000000000000000000000000000000008152600401611857906140bd565b60405180910390fd5b80600460026101000a81548173ffffffffffffffffffffffffffffffffffffffff021916908373ffffffffffffffffffffffffffffffffffffffff16021790555050565b60006006600083815260200190815260200160002060000160009054906101000a900473ffffffffffffffffffffffffffffffffffffffff169050919050565b8060008160ff16101580156118fd575060648160ff1611155b61193c576040517f08c379a000000000000000000000000000000000000000000000000000000000815260040161193390613da7565b60405180910390fd5b8261012c60066000838152602001908152602001600020600501546119619190613cf4565b4211156119a3576040517f08c379a000000000000000000000000000000000000000000000000000000000815260040161199a90614129565b60405180910390fd5b600660008581526020019081526020016000206001015434146119fb576040517f08c379a00000000000000000000000000000000000000000000000000000000081526004016119f2906141bb565b60405180910390fd5b6006600085815260200190815260200160002060000160009054906101000a900473ffffffffffffffffffffffffffffffffffffffff1673ffffffffffffffffffffffffffffffffffffffff163373ffffffffffffffffffffffffffffffffffffffff161415611aa0576040517f08c379a0000000000000000000000000000000000000000000000000000000008152600401611a979061424d565b60405180910390fd5b600015156007600086815260200190815260200160002060003373ffffffffffffffffffffffffffffffffffffffff1673ffffffffffffffffffffffffffffffffffffffff16815260200190815260200160002060000160009054906101000a900460ff16151514611b47576040517f08c379a0000000000000000000000000000000000000000000000000000000008152600401611b3e906142b9565b60405180910390fd5b600060066000868152602001908152602001600020600401541480611b9a575060066000858152602001908152602001600020600401546006600086815260200190815260200160002060020180549050105b611bd9576040517f08c379a0000000000000000000000000000000000000000000000000000000008152600401611bd09061434b565b60405180910390fd5b34600660008681526020019081526020016000206006016000828254611bff9190613cf4565b9250508190555060066000858152602001908152602001600020600201339080600181540180825580915050600190039060005260206000200160009091909190916101000a81548173ffffffffffffffffffffffffffffffffffffffff021916908373ffffffffffffffffffffffffffffffffffffffff160217905550600660008581526020019081526020016000206003018390806001815401808255809150506001900390600052602060002090602091828204019190069091909190916101000a81548160ff021916908360ff160217905550826007600086815260200190815260200160002060003373ffffffffffffffffffffffffffffffffffffffff1673ffffffffffffffffffffffffffffffffffffffff16815260200190815260200160002060000160016101000a81548160ff021916908360ff16021790555060016007600086815260200190815260200160002060003373ffffffffffffffffffffffffffffffffffffffff1673ffffffffffffffffffffffffffffffffffffffff16815260200190815260200160002060000160006101000a81548160ff021916908315150217905550600860003373ffffffffffffffffffffffffffffffffffffffff1673ffffffffffffffffffffffffffffffffffffffff16815260200190815260200160002060000184908060018154018082558091505060019003906000526020600020016000909190919091505550505050565b60608060606000600660008681526020019081526020016000206002018054905067ffffffffffffffff811115611e5757611e56613c96565b5b604051908082528060200260200182016040528015611e855781602001602082028036833780820191505090505b5090506000600660008781526020019081526020016000206002018054905067ffffffffffffffff811115611ebd57611ebc613c96565b5b604051908082528060200260200182016040528015611eeb5781602001602082028036833780820191505090505b5090506000600660008881526020019081526020016000206002018054905067ffffffffffffffff811115611f2357611f22613c96565b5b604051908082528060200260200182016040528015611f515781602001602082028036833780820191505090505b50905060005b60066000898152602001908152602001600020600201805490508110156121f957600660008981526020019081526020016000206003018181548110611fa057611f9f613cc5565b5b90600052602060002090602091828204019190069054906101000a900460ff1660ff16848281518110611fd657611fd5613cc5565b5b60200260200101818152505060066000898152602001908152602001600020600201818154811061200a57612009613cc5565b5b9060005260206000200160009054906101000a900473ffffffffffffffffffffffffffffffffffffffff1682828151811061204857612047613cc5565b5b602002602001019073ffffffffffffffffffffffffffffffffffffffff16908173ffffffffffffffffffffffffffffffffffffffff168152505060008060005b600660008c8152602001908152602001600020600a0180549050811015612164578484815181106120bc576120bb613cc5565b5b602002602001015173ffffffffffffffffffffffffffffffffffffffff16600660008d8152602001908152602001600020600a01828154811061210257612101613cc5565b5b9060005260206000200160009054906101000a900473ffffffffffffffffffffffffffffffffffffffff1673ffffffffffffffffffffffffffffffffffffffff16141561215157600192508091505b808061215c90613bf3565b915050612088565b5081156121c257600660008b8152602001908152602001600020600901818154811061219357612192613cc5565b5b90600052602060002001548584815181106121b1576121b0613cc5565b5b6020026020010181815250506121e4565b60008584815181106121d7576121d6613cc5565b5b6020026020010181815250505b505080806121f190613bf3565b915050611f57565b508181849550955095505050509193909250565b600015156006600083815260200190815260200160002060000160149054906101000a900460ff16151514612277576040517f08c379a000000000000000000000000000000000000000000000000000000000815260040161226e906143b7565b60405180910390fd5b61012c600660008381526020019081526020016000206005015461229b9190613cf4565b42116122dc576040517f08c379a00000000000000000000000000000000000000000000000000000000081526004016122d390614449565b60405180910390fd5b600115156007600083815260200190815260200160002060003373ffffffffffffffffffffffffffffffffffffffff1673ffffffffffffffffffffffffffffffffffffffff16815260200190815260200160002060000160009054906101000a900460ff16151514612383576040517f08c379a000000000000000000000000000000000000000000000000000000000815260040161237a906144db565b60405180910390fd5b60016006600083815260200190815260200160002060020180549050141561254e576001600960003373ffffffffffffffffffffffffffffffffffffffff1673ffffffffffffffffffffffffffffffffffffffff168152602001908152602001600020600083815260200190815260200160002060000160006101000a81548160ff0219169083151502179055506006600082815260200190815260200160002060060154600960003373ffffffffffffffffffffffffffffffffffffffff1673ffffffffffffffffffffffffffffffffffffffff16815260200190815260200160002060008381526020019081526020016000206001018190555060066000828152602001908152602001600020600a01339080600181540180825580915050600190039060005260206000200160009091909190916101000a81548173ffffffffffffffffffffffffffffffffffffffff021916908373ffffffffffffffffffffffffffffffffffffffff1602179055506006600082815260200190815260200160002060090160066000838152602001908152602001600020600601549080600181540180825580915050600190039060005260206000200160009091909190915055613173565b6000612558610516565b9050806006600084815260200190815260200160002060080160006101000a81548160ff021916908360ff1602179055506000600660008481526020019081526020016000206002018054905067ffffffffffffffff8111156125be576125bd613c96565b5b6040519080825280602002602001820160405280156125ec5781602001602082028036833780820191505090505b5090506000600660008581526020019081526020016000206003018054905067ffffffffffffffff81111561262457612623613c96565b5b6040519080825280602002602001820160405280156126525781602001602082028036833780820191505090505b509050600660008581526020019081526020016000206002018054806020026020016040519081016040528092919081815260200182805480156126eb57602002820191906000526020600020905b8160009054906101000a900473ffffffffffffffffffffffffffffffffffffffff1673ffffffffffffffffffffffffffffffffffffffff16815260200190600101908083116126a1575b505050505091506006600085815260200190815260200160002060030180548060200260200160405190810160405280929190818152602001828054801561277857602002820191906000526020600020906000905b82829054906101000a900460ff1660ff16815260200190600101906020826000010492830192600103820291508084116127415790505b505050505090506000815167ffffffffffffffff81111561279c5761279b613c96565b5b6040519080825280602002602001820160405280156127ca5781602001602082028036833780820191505090505b50905060005b835181101561290b578460ff168382815181106127f0576127ef613cc5565b5b602002602001015160ff161115612853578483828151811061281557612814613cc5565b5b602002602001015161282791906144fb565b82828151811061283a57612839613cc5565b5b602002602001019060ff16908160ff16815250506128f8565b8460ff1683828151811061286a57612869613cc5565b5b602002602001015160ff1610156128cd5782818151811061288e5761288d613cc5565b5b6020026020010151856128a191906144fb565b8282815181106128b4576128b3613cc5565b5b602002602001019060ff16908160ff16815250506128f7565b60008282815181106128e2576128e1613cc5565b5b602002602001019060ff16908160ff16815250505b5b808061290390613bf3565b9150506127d0565b5060006003825161291c9190613f8e565b9050600081141561292c57600190505b60008167ffffffffffffffff81111561294857612947613c96565b5b6040519080825280602002602001820160405280156129765781602001602082028036833780820191505090505b50905060008267ffffffffffffffff81111561299557612994613c96565b5b6040519080825280602002602001820160405280156129c35781602001602082028036833780820191505090505b50905060005b83811015612b2257600060649050600080600090505b88518160ff161015612a4d578260ff16888260ff1681518110612a0557612a04613cc5565b5b602002602001015160ff161015612a3a57809150878160ff1681518110612a2f57612a2e613cc5565b5b602002602001015192505b8080612a459061452f565b9150506129df565b506064878260ff1681518110612a6657612a65613cc5565b5b602002602001019060ff16908160ff168152505080858481518110612a8e57612a8d613cc5565b5b602002602001019060ff16908160ff1681525050888160ff1681518110612ab857612ab7613cc5565b5b6020026020010151848481518110612ad357612ad2613cc5565b5b602002602001019073ffffffffffffffffffffffffffffffffffffffff16908173ffffffffffffffffffffffffffffffffffffffff168152505050508080612b1a90613bf3565b9150506129c9565b506001831115612f75576000600660008a81526020019081526020016000206006015490506000600390506000600290505b8351811015612b8b576001600283612b6c9190614559565b612b769190614594565b91508080612b8390613bf3565b915050612b54565b5060008160ff1683612b9d9190613f8e565b9050600060018551612baf9190613e82565b90505b6000811115612da3578160096000878481518110612bd357612bd2613cc5565b5b602002602001015173ffffffffffffffffffffffffffffffffffffffff1673ffffffffffffffffffffffffffffffffffffffff16815260200190815260200160002060008e815260200190815260200160002060010181905550600160096000878481518110612c4657612c45613cc5565b5b602002602001015173ffffffffffffffffffffffffffffffffffffffff1673ffffffffffffffffffffffffffffffffffffffff16815260200190815260200160002060008e815260200190815260200160002060000160006101000a81548160ff021916908315150217905550600660008d8152602001908152602001600020600901829080600181540180825580915050600190039060005260206000200160009091909190915055600660008d8152602001908152602001600020600a01858281518110612d1957612d18613cc5565b5b60200260200101519080600181540180825580915050600190039060005260206000200160009091909190916101000a81548173ffffffffffffffffffffffffffffffffffffffff021916908373ffffffffffffffffffffffffffffffffffffffff160217905550600282612d8e9190613c3c565b91508080612d9b906145cb565b915050612bb2565b50806009600086600081518110612dbd57612dbc613cc5565b5b602002602001015173ffffffffffffffffffffffffffffffffffffffff1673ffffffffffffffffffffffffffffffffffffffff16815260200190815260200160002060008d81526020019081526020016000206001018190555060016009600086600081518110612e3157612e30613cc5565b5b602002602001015173ffffffffffffffffffffffffffffffffffffffff1673ffffffffffffffffffffffffffffffffffffffff16815260200190815260200160002060008d815260200190815260200160002060000160006101000a81548160ff021916908315150217905550600660008c8152602001908152602001600020600901819080600181540180825580915050600190039060005260206000200160009091909190915055600660008c8152602001908152602001600020600a0184600081518110612f0557612f04613cc5565b5b60200260200101519080600181540180825580915050600190039060005260206000200160009091909190916101000a81548173ffffffffffffffffffffffffffffffffffffffff021916908373ffffffffffffffffffffffffffffffffffffffff16021790555050505061316b565b60016009600083600081518110612f8f57612f8e613cc5565b5b602002602001015173ffffffffffffffffffffffffffffffffffffffff1673ffffffffffffffffffffffffffffffffffffffff16815260200190815260200160002060008a815260200190815260200160002060000160006101000a81548160ff0219169083151502179055506006600089815260200190815260200160002060060154600960008360008151811061302b5761302a613cc5565b5b602002602001015173ffffffffffffffffffffffffffffffffffffffff1673ffffffffffffffffffffffffffffffffffffffff16815260200190815260200160002060008a81526020019081526020016000206001018190555060066000898152602001908152602001600020600901600660008a815260200190815260200160002060060154908060018154018082558091505060019003906000526020600020016000909190919091505560066000898152602001908152602001600020600a018160008151811061310257613101613cc5565b5b60200260200101519080600181540180825580915050600190039060005260206000200160009091909190916101000a81548173ffffffffffffffffffffffffffffffffffffffff021916908373ffffffffffffffffffffffffffffffffffffffff1602179055505b505050505050505b60016006600083815260200190815260200160002060000160146101000a81548160ff0219169083151502179055508060038190555050565b60006007600084815260200190815260200160002060008373ffffffffffffffffffffffffffffffffffffffff1673ffffffffffffffffffffffffffffffffffffffff16815260200190815260200160002060000160019054906101000a900460ff16905092915050565b61321f61330f565b73ffffffffffffffffffffffffffffffffffffffff1661323d61176a565b73ffffffffffffffffffffffffffffffffffffffff1614613293576040517f08c379a000000000000000000000000000000000000000000000000000000000815260040161328a906140bd565b60405180910390fd5b600073ffffffffffffffffffffffffffffffffffffffff168173ffffffffffffffffffffffffffffffffffffffff161415613303576040517f08c379a00000000000000000000000000000000000000000000000000000000081526004016132fa90614667565b60405180910390fd5b61330c81613317565b50565b600033905090565b60008060009054906101000a900473ffffffffffffffffffffffffffffffffffffffff169050816000806101000a81548173ffffffffffffffffffffffffffffffffffffffff021916908373ffffffffffffffffffffffffffffffffffffffff1602179055508173ffffffffffffffffffffffffffffffffffffffff168173ffffffffffffffffffffffffffffffffffffffff167f8be0079c531659141344cd1fd0a4f28419497f9722a3daafe3b4186f6b6457e060405160405180910390a35050565b600060ff82169050919050565b6133f1816133db565b82525050565b600060208201905061340c60008301846133e8565b92915050565b600080fd5b600073ffffffffffffffffffffffffffffffffffffffff82169050919050565b600061344282613417565b9050919050565b61345281613437565b811461345d57600080fd5b50565b60008135905061346f81613449565b92915050565b60006020828403121561348b5761348a613412565b5b600061349984828501613460565b91505092915050565b600081519050919050565b600082825260208201905092915050565b6000819050602082019050919050565b6000819050919050565b6134e1816134ce565b82525050565b60006134f383836134d8565b60208301905092915050565b6000602082019050919050565b6000613517826134a2565b61352181856134ad565b935061352c836134be565b8060005b8381101561355d57815161354488826134e7565b975061354f836134ff565b925050600181019050613530565b5085935050505092915050565b60006020820190508181036000830152613584818461350c565b905092915050565b613595816133db565b81146135a057600080fd5b50565b6000813590506135b28161358c565b92915050565b600080604083850312156135cf576135ce613412565b5b60006135dd858286016135a3565b92505060206135ee858286016135a3565b9150509250929050565b613601816134ce565b811461360c57600080fd5b50565b60008135905061361e816135f8565b92915050565b6000806040838503121561363b5761363a613412565b5b60006136498582860161360f565b925050602061365a85828601613460565b9150509250929050565b60008115159050919050565b61367981613664565b82525050565b60006040820190506136946000830185613670565b6136a160208301846133e8565b9392505050565b6000602082840312156136be576136bd613412565b5b60006136cc8482850161360f565b91505092915050565b600061ffff82169050919050565b6136ec816136d5565b81146136f757600080fd5b50565b600081359050613709816136e3565b92915050565b60006020828403121561372557613724613412565b5b6000613733848285016136fa565b91505092915050565b600081519050919050565b600082825260208201905092915050565b6000819050602082019050919050565b613771816133db565b82525050565b60006137838383613768565b60208301905092915050565b6000602082019050919050565b60006137a78261373c565b6137b18185613747565b93506137bc83613758565b8060005b838110156137ed5781516137d48882613777565b97506137df8361378f565b9250506001810190506137c0565b5085935050505092915050565b60006020820190508181036000830152613814818461379c565b905092915050565b61382581613437565b82525050565b613834816134ce565b82525050565b600061010082019050613850600083018b61381c565b61385d602083018a613670565b61386a604083018961382b565b613877606083018861382b565b613884608083018761382b565b61389160a083018661382b565b61389e60c083018561382b565b6138ab60e08301846133e8565b9998505050505050505050565b60006020820190506138cd600083018461381c565b92915050565b6138dc816136d5565b82525050565b60006020820190506138f760008301846138d3565b92915050565b6000806040838503121561391457613913613412565b5b600061392285828601613460565b92505060206139338582860161360f565b9150509250929050565b60006060820190506139526000830186613670565b61395f6020830185613670565b61396c604083018461382b565b949350505050565b6000806040838503121561398b5761398a613412565b5b60006139998582860161360f565b92505060206139aa858286016135a3565b9150509250929050565b600081519050919050565b600082825260208201905092915050565b6000819050602082019050919050565b6139e981613437565b82525050565b60006139fb83836139e0565b60208301905092915050565b6000602082019050919050565b6000613a1f826139b4565b613a2981856139bf565b9350613a34836139d0565b8060005b83811015613a65578151613a4c88826139ef565b9750613a5783613a07565b925050600181019050613a38565b5085935050505092915050565b60006060820190508181036000830152613a8c818661350c565b90508181036020830152613aa08185613a14565b90508181036040830152613ab4818461350c565b9050949350505050565b6000819050919050565b613ad9613ad4826134ce565b613abe565b82525050565b60008160601b9050919050565b6000613af782613adf565b9050919050565b6000613b0982613aec565b9050919050565b613b21613b1c82613437565b613afe565b82525050565b6000613b338286613ac8565b602082019150613b438285613b10565b601482019150613b538284613ac8565b602082019150819050949350505050565b7f4e487b7100000000000000000000000000000000000000000000000000000000600052601260045260246000fd5b6000613b9e826134ce565b9150613ba9836134ce565b925082613bb957613bb8613b64565b5b828206905092915050565b7f4e487b7100000000000000000000000000000000000000000000000000000000600052601160045260246000fd5b6000613bfe826134ce565b91507fffffffffffffffffffffffffffffffffffffffffffffffffffffffffffffffff821415613c3157613c30613bc4565b5b600182019050919050565b6000613c47826134ce565b9150613c52836134ce565b9250817fffffffffffffffffffffffffffffffffffffffffffffffffffffffffffffffff0483118215151615613c8b57613c8a613bc4565b5b828202905092915050565b7f4e487b7100000000000000000000000000000000000000000000000000000000600052604160045260246000fd5b7f4e487b7100000000000000000000000000000000000000000000000000000000600052603260045260246000fd5b6000613cff826134ce565b9150613d0a836134ce565b9250827fffffffffffffffffffffffffffffffffffffffffffffffffffffffffffffffff03821115613d3f57613d3e613bc4565b5b828201905092915050565b600082825260208201905092915050565b7f43686f6f7365206e756d626572206265747765656e203020616e642031303000600082015250565b6000613d91601f83613d4a565b9150613d9c82613d5b565b602082019050919050565b60006020820190508181036000830152613dc081613d84565b9050919050565b7f467265652067616d657320617265206e6f7420737570706f727465642068657260008201527f6521000000000000000000000000000000000000000000000000000000000000602082015250565b6000613e23602283613d4a565b9150613e2e82613dc7565b604082019050919050565b60006020820190508181036000830152613e5281613e16565b9050919050565b6000604082019050613e6e600083018561382b565b613e7b602083018461382b565b9392505050565b6000613e8d826134ce565b9150613e98836134ce565b925082821015613eab57613eaa613bc4565b5b828203905092915050565b7f596f7520617265206e6f7420612077696e6e6572206f66207468652067616d65600082015250565b6000613eec602083613d4a565b9150613ef782613eb6565b602082019050919050565b60006020820190508181036000830152613f1b81613edf565b9050919050565b7f5072697a6520697320636c61696d656420616c72656164790000000000000000600082015250565b6000613f58601883613d4a565b9150613f6382613f22565b602082019050919050565b60006020820190508181036000830152613f8781613f4b565b9050919050565b6000613f99826134ce565b9150613fa4836134ce565b925082613fb457613fb3613b64565b5b828204905092915050565b600081905092915050565b50565b6000613fda600083613fbf565b9150613fe582613fca565b600082019050919050565b6000613ffb82613fcd565b9150819050919050565b7f5472616e7366657273206e6f7420737563636573730000000000000000000000600082015250565b600061403b601583613d4a565b915061404682614005565b602082019050919050565b6000602082019050818103600083015261406a8161402e565b9050919050565b7f4f776e61626c653a2063616c6c6572206973206e6f7420746865206f776e6572600082015250565b60006140a7602083613d4a565b91506140b282614071565b602082019050919050565b600060208201905081810360008301526140d68161409a565b9050919050565b7f5468652067616d652069732066696e6973686564000000000000000000000000600082015250565b6000614113601483613d4a565b915061411e826140dd565b602082019050919050565b6000602082019050818103600083015261414281614106565b9050919050565b7f56616c7565206f6620746865207472616e73616374696f6e2073686f756c642060008201527f626520657175616c20746f207468652067616d65000000000000000000000000602082015250565b60006141a5603483613d4a565b91506141b082614149565b604082019050919050565b600060208201905081810360008301526141d481614198565b9050919050565b7f4f776e657220697320616c726561647920696e207061727469636970616e747360008201527f206c697374000000000000000000000000000000000000000000000000000000602082015250565b6000614237602583613d4a565b9150614242826141db565b604082019050919050565b600060208201905081810360008301526142668161422a565b9050919050565b7f596f752063616e206e6f74206a6f696e20747769636500000000000000000000600082015250565b60006142a3601683613d4a565b91506142ae8261426d565b602082019050919050565b600060208201905081810360008301526142d281614296565b9050919050565b7f5061727469636970616e7473206c696d697420686173206265656e207265616360008201527f6865640000000000000000000000000000000000000000000000000000000000602082015250565b6000614335602383613d4a565b9150614340826142d9565b604082019050919050565b6000602082019050818103600083015261436481614328565b9050919050565b7f5468652067616d652069732066696e697368656420616c726561647900000000600082015250565b60006143a1601c83613d4a565b91506143ac8261436b565b602082019050919050565b600060208201905081810360008301526143d081614394565b9050919050565b7f596f752063616e2066696e69736820612067616d65206f6e6c7920616674657260008201527f20657861637420706572696f6400000000000000000000000000000000000000602082015250565b6000614433602d83613d4a565b915061443e826143d7565b604082019050919050565b6000602082019050818103600083015261446281614426565b9050919050565b7f4f6e6c79207061727469636970616e74732063616e2066696e6973682061206760008201527f616d650000000000000000000000000000000000000000000000000000000000602082015250565b60006144c5602383613d4a565b91506144d082614469565b604082019050919050565b600060208201905081810360008301526144f4816144b8565b9050919050565b6000614506826133db565b9150614511836133db565b92508282101561452457614523613bc4565b5b828203905092915050565b600061453a826133db565b915060ff82141561454e5761454d613bc4565b5b600182019050919050565b6000614564826133db565b915061456f836133db565b92508160ff048311821515161561458957614588613bc4565b5b828202905092915050565b600061459f826133db565b91506145aa836133db565b92508260ff038211156145c0576145bf613bc4565b5b828201905092915050565b60006145d6826134ce565b915060008214156145ea576145e9613bc4565b5b600182039050919050565b7f4f776e61626c653a206e6577206f776e657220697320746865207a65726f206160008201527f6464726573730000000000000000000000000000000000000000000000000000602082015250565b6000614651602683613d4a565b915061465c826145f5565b604082019050919050565b6000602082019050818103600083015261468081614644565b905091905056fea2646970667358221220d303af94a6c35a45b69f2d736357f8d361fec5530c6c8a118e617aef07410ada64736f6c634300080b0033",
  "linkReferences": {},
  "deployedLinkReferences": {}
}