{
  "_format": "hh-sol-artifact-1",
  "contractName": "Fair",
  "sourceName": "contracts/Fair.sol",
  "abi": [
    {
      "inputs": [
        {
          "internalType": "address",
          "name": "_wallet",
          "type": "address"
        },
        {
          "internalType": "uint16",
          "name": "_feePercent",
          "type": "uint16"
        },
        {
          "internalType": "uint16",
          "name": "_timeToFinish",
          "type": "uint16"
        },
        {
          "internalType": "uint16",
          "name": "_userGamesToReturnNumber",
          "type": "uint16"
        }
      ],
      "stateMutability": "nonpayable",
      "type": "constructor"
    },
    {
      "anonymous": false,
      "inputs": [
        {
          "indexed": false,
          "internalType": "uint256",
          "name": "gameId",
          "type": "uint256"
        },
        {
          "indexed": false,
          "internalType": "uint256",
          "name": "bid",
          "type": "uint256"
        }
      ],
      "name": "CreateGame",
      "type": "event"
    },
    {
      "anonymous": false,
      "inputs": [
        {
          "indexed": false,
          "internalType": "uint256",
          "name": "gameId",
          "type": "uint256"
        },
        {
          "indexed": false,
          "internalType": "address[]",
          "name": "winners",
          "type": "address[]"
        },
        {
          "indexed": false,
          "internalType": "uint256[]",
          "name": "prizes",
          "type": "uint256[]"
        }
      ],
      "name": "FinishGame",
      "type": "event"
    },
    {
      "anonymous": false,
      "inputs": [
        {
          "indexed": true,
          "internalType": "address",
          "name": "previousOwner",
          "type": "address"
        },
        {
          "indexed": true,
          "internalType": "address",
          "name": "newOwner",
          "type": "address"
        }
      ],
      "name": "OwnershipTransferred",
      "type": "event"
    },
    {
      "inputs": [
        {
          "internalType": "uint256",
          "name": "",
          "type": "uint256"
        },
        {
          "internalType": "address",
          "name": "",
          "type": "address"
        }
      ],
      "name": "biddersList",
      "outputs": [
        {
          "internalType": "bool",
          "name": "participatedFlag",
          "type": "bool"
        },
        {
          "internalType": "uint8",
          "name": "number",
          "type": "uint8"
        }
      ],
      "stateMutability": "view",
      "type": "function"
    },
    {
      "inputs": [
        {
          "internalType": "uint256",
          "name": "_gameId",
          "type": "uint256"
        }
      ],
      "name": "claim",
      "outputs": [],
      "stateMutability": "nonpayable",
      "type": "function"
    },
    {
      "inputs": [
        {
          "internalType": "uint8",
          "name": "_number",
          "type": "uint8"
        },
        {
          "internalType": "uint8",
          "name": "_limit",
          "type": "uint8"
        }
      ],
      "name": "createGame",
      "outputs": [],
      "stateMutability": "payable",
      "type": "function"
    },
    {
      "inputs": [],
      "name": "feePercent",
      "outputs": [
        {
          "internalType": "uint16",
          "name": "",
          "type": "uint16"
        }
      ],
      "stateMutability": "view",
      "type": "function"
    },
    {
      "inputs": [
        {
          "internalType": "uint256",
          "name": "_gameId",
          "type": "uint256"
        }
      ],
      "name": "finishGame",
      "outputs": [],
      "stateMutability": "nonpayable",
      "type": "function"
    },
    {
      "inputs": [
        {
          "internalType": "uint256",
          "name": "",
          "type": "uint256"
        }
      ],
      "name": "gamesList",
      "outputs": [
        {
          "internalType": "address",
          "name": "owner",
          "type": "address"
        },
        {
          "internalType": "bool",
          "name": "isFinished",
          "type": "bool"
        },
        {
          "internalType": "uint256",
          "name": "bid",
          "type": "uint256"
        },
        {
          "internalType": "uint256",
          "name": "participantsLimit",
          "type": "uint256"
        },
        {
          "internalType": "uint256",
          "name": "createdTimestamp",
          "type": "uint256"
        },
        {
          "internalType": "uint256",
          "name": "pool",
          "type": "uint256"
        },
        {
          "internalType": "uint256",
          "name": "individualPrize",
          "type": "uint256"
        },
        {
          "internalType": "uint8",
          "name": "luckyNumber",
          "type": "uint8"
        }
      ],
      "stateMutability": "view",
      "type": "function"
    },
    {
      "inputs": [],
      "name": "generateRandom",
      "outputs": [
        {
          "internalType": "uint8",
          "name": "",
          "type": "uint8"
        }
      ],
      "stateMutability": "nonpayable",
      "type": "function"
    },
    {
      "inputs": [],
      "name": "getActualGames",
      "outputs": [
        {
          "internalType": "uint256[]",
          "name": "",
          "type": "uint256[]"
        }
      ],
      "stateMutability": "view",
      "type": "function"
    },
    {
      "inputs": [
        {
          "internalType": "uint256",
          "name": "_gameId",
          "type": "uint256"
        },
        {
          "internalType": "address",
          "name": "adr",
          "type": "address"
        }
      ],
      "name": "getBet",
      "outputs": [
        {
          "internalType": "uint8",
          "name": "",
          "type": "uint8"
        }
      ],
      "stateMutability": "view",
      "type": "function"
    },
    {
      "inputs": [
        {
          "internalType": "uint256",
          "name": "_gameId",
          "type": "uint256"
        }
      ],
      "name": "getNumbers",
      "outputs": [
        {
          "internalType": "uint8[]",
          "name": "",
          "type": "uint8[]"
        }
      ],
      "stateMutability": "view",
      "type": "function"
    },
    {
      "inputs": [
        {
          "internalType": "uint256",
          "name": "_gameId",
          "type": "uint256"
        }
      ],
      "name": "getOwner",
      "outputs": [
        {
          "internalType": "address",
          "name": "",
          "type": "address"
        }
      ],
      "stateMutability": "view",
      "type": "function"
    },
    {
      "inputs": [
        {
          "internalType": "uint256",
          "name": "_gameId",
          "type": "uint256"
        }
      ],
      "name": "getPrizes",
      "outputs": [
        {
          "internalType": "uint256[]",
          "name": "",
          "type": "uint256[]"
        },
        {
          "internalType": "address[]",
          "name": "",
          "type": "address[]"
        },
        {
          "internalType": "uint256[]",
          "name": "",
          "type": "uint256[]"
        }
      ],
      "stateMutability": "view",
      "type": "function"
    },
    {
      "inputs": [
        {
          "internalType": "address",
          "name": "_user",
          "type": "address"
        }
      ],
      "name": "getUserGames",
      "outputs": [
        {
          "internalType": "uint256[]",
          "name": "",
          "type": "uint256[]"
        }
      ],
      "stateMutability": "view",
      "type": "function"
    },
    {
      "inputs": [
        {
          "internalType": "uint256",
          "name": "_gameId",
          "type": "uint256"
        },
        {
          "internalType": "uint8",
          "name": "_number",
          "type": "uint8"
        }
      ],
      "name": "joinGame",
      "outputs": [],
      "stateMutability": "payable",
      "type": "function"
    },
    {
      "inputs": [
        {
          "internalType": "uint16",
          "name": "_feePercent",
          "type": "uint16"
        }
      ],
      "name": "newFeePercent",
      "outputs": [],
      "stateMutability": "nonpayable",
      "type": "function"
    },
    {
      "inputs": [
        {
          "internalType": "uint16",
          "name": "_timeToFinish",
          "type": "uint16"
        }
      ],
      "name": "newTimeToFinish",
      "outputs": [],
      "stateMutability": "nonpayable",
      "type": "function"
    },
    {
      "inputs": [
        {
          "internalType": "uint16",
          "name": "_userGamesToReturnNumber",
          "type": "uint16"
        }
      ],
      "name": "newUserGamesToReturnNumber",
      "outputs": [],
      "stateMutability": "nonpayable",
      "type": "function"
    },
    {
      "inputs": [
        {
          "internalType": "address",
          "name": "_wallet",
          "type": "address"
        }
      ],
      "name": "newWallet",
      "outputs": [],
      "stateMutability": "nonpayable",
      "type": "function"
    },
    {
      "inputs": [],
      "name": "owner",
      "outputs": [
        {
          "internalType": "address",
          "name": "",
          "type": "address"
        }
      ],
      "stateMutability": "view",
      "type": "function"
    },
    {
      "inputs": [
        {
          "internalType": "address",
          "name": "",
          "type": "address"
        },
        {
          "internalType": "uint256",
          "name": "",
          "type": "uint256"
        }
      ],
      "name": "prizeList",
      "outputs": [
        {
          "internalType": "bool",
          "name": "isWinner",
          "type": "bool"
        },
        {
          "internalType": "bool",
          "name": "isClaimed",
          "type": "bool"
        },
        {
          "internalType": "uint256",
          "name": "prize",
          "type": "uint256"
        }
      ],
      "stateMutability": "view",
      "type": "function"
    },
    {
      "inputs": [],
      "name": "renounceOwnership",
      "outputs": [],
      "stateMutability": "nonpayable",
      "type": "function"
    },
    {
      "inputs": [],
      "name": "timeToFinish",
      "outputs": [
        {
          "internalType": "uint16",
          "name": "",
          "type": "uint16"
        }
      ],
      "stateMutability": "view",
      "type": "function"
    },
    {
      "inputs": [
        {
          "internalType": "address",
          "name": "newOwner",
          "type": "address"
        }
      ],
      "name": "transferOwnership",
      "outputs": [],
      "stateMutability": "nonpayable",
      "type": "function"
    },
    {
      "inputs": [],
      "name": "userGamesToReturnNumber",
      "outputs": [
        {
          "internalType": "uint16",
          "name": "",
          "type": "uint16"
        }
      ],
      "stateMutability": "view",
      "type": "function"
    },
    {
      "inputs": [],
      "name": "wallet",
      "outputs": [
        {
          "internalType": "address",
          "name": "",
          "type": "address"
        }
      ],
      "stateMutability": "view",
      "type": "function"
    }
  ],
  "bytecode": "0x60806040523480156200001157600080fd5b50604051620053f7380380620053f78339818101604052810190620000379190620003bf565b620000576200004b6200024a60201b60201c565b6200025260201b60201c565b600073ffffffffffffffffffffffffffffffffffffffff168473ffffffffffffffffffffffffffffffffffffffff1603620000c9576040517f08c379a0000000000000000000000000000000000000000000000000000000008152600401620000c09062000492565b60405180910390fd5b6127108361ffff161062000114576040517f08c379a00000000000000000000000000000000000000000000000000000000081526004016200010b9062000504565b60405180910390fd5b60008261ffff16036200015e576040517f08c379a0000000000000000000000000000000000000000000000000000000008152600401620001559062000576565b60405180910390fd5b601e8161ffff161015620001a9576040517f08c379a0000000000000000000000000000000000000000000000000000000008152600401620001a0906200060e565b60405180910390fd5b83600460066101000a81548173ffffffffffffffffffffffffffffffffffffffff021916908373ffffffffffffffffffffffffffffffffffffffff16021790555082600460006101000a81548161ffff021916908361ffff16021790555081600460026101000a81548161ffff021916908361ffff160217905550806004806101000a81548161ffff021916908361ffff1602179055505050505062000630565b600033905090565b60008060009054906101000a900473ffffffffffffffffffffffffffffffffffffffff169050816000806101000a81548173ffffffffffffffffffffffffffffffffffffffff021916908373ffffffffffffffffffffffffffffffffffffffff1602179055508173ffffffffffffffffffffffffffffffffffffffff168173ffffffffffffffffffffffffffffffffffffffff167f8be0079c531659141344cd1fd0a4f28419497f9722a3daafe3b4186f6b6457e060405160405180910390a35050565b600080fd5b600073ffffffffffffffffffffffffffffffffffffffff82169050919050565b600062000348826200031b565b9050919050565b6200035a816200033b565b81146200036657600080fd5b50565b6000815190506200037a816200034f565b92915050565b600061ffff82169050919050565b620003998162000380565b8114620003a557600080fd5b50565b600081519050620003b9816200038e565b92915050565b60008060008060808587031215620003dc57620003db62000316565b5b6000620003ec8782880162000369565b9450506020620003ff87828801620003a8565b93505060406200041287828801620003a8565b92505060606200042587828801620003a8565b91505092959194509250565b600082825260208201905092915050565b7f57616c6c65742069732061646472657373283029000000000000000000000000600082015250565b60006200047a60148362000431565b9150620004878262000442565b602082019050919050565b60006020820190508181036000830152620004ad816200046b565b9050919050565b7f4665652070657263656e74206973206d6f7265207468616e2031303030300000600082015250565b6000620004ec601e8362000431565b9150620004f982620004b4565b602082019050919050565b600060208201905081810360008301526200051f81620004dd565b9050919050565b7f54696d6520746f2066696e69736820697320657175616c20746f203000000000600082015250565b60006200055e601c8362000431565b91506200056b8262000526565b602082019050919050565b6000602082019050818103600083015262000591816200054f565b9050919050565b7f5573657247616d6573546f52657475726e4e756d626572206861766520746f2060008201527f6265206d6f7265207468616e2033300000000000000000000000000000000000602082015250565b6000620005f6602f8362000431565b9150620006038262000598565b604082019050919050565b600060208201905081810360008301526200062981620005e7565b9050919050565b614db780620006406000396000f3fe6080604052600436106101665760003560e01c8063631b02bd116100d1578063c41a360a1161008a578063cfe186b211610064578063cfe186b214610542578063e0950ddf1461056b578063e8d95ad3146105a8578063f2fde38b146105d157610166565b8063c41a360a146104aa578063ca6649c5146104e7578063cc3077951461050357610166565b8063631b02bd146103aa578063715018a6146103d55780637fd6f15c146103ec5780638da5cb5b146104175780639ff0f4a914610442578063bda6688f1461048157610166565b8063379607f511610123578063379607f514610283578063493ab058146102ac5780634a7b26ae146102d55780634bb0826f146103125780635054c0a31461033b578063521eb2731461037f57610166565b806302e4af011461016b578063120aace6146101965780631346a76d146101d357806313bf83c5146101ef57806316466fe61461021a578063208970d514610245575b600080fd5b34801561017757600080fd5b506101806105fa565b60405161018d91906136fa565b60405180910390f35b3480156101a257600080fd5b506101bd60048036038101906101b89190613778565b61065a565b6040516101ca919061386d565b60405180910390f35b6101ed60048036038101906101e891906138bb565b610cf5565b005b3480156101fb57600080fd5b50610204611115565b6040516102119190613918565b60405180910390f35b34801561022657600080fd5b5061022f611129565b60405161023c919061386d565b60405180910390f35b34801561025157600080fd5b5061026c6004803603810190610267919061395f565b61132c565b60405161027a9291906139ba565b60405180910390f35b34801561028f57600080fd5b506102aa60048036038101906102a591906139e3565b611377565b005b3480156102b857600080fd5b506102d360048036038101906102ce9190613a3c565b611720565b005b3480156102e157600080fd5b506102fc60048036038101906102f791906139e3565b611790565b6040516103099190613b27565b60405180910390f35b34801561031e57600080fd5b5061033960048036038101906103349190613a3c565b611824565b005b34801561034757600080fd5b50610362600480360381019061035d91906139e3565b611893565b604051610376989796959493929190613b67565b60405180910390f35b34801561038b57600080fd5b50610394611915565b6040516103a19190613be5565b60405180910390f35b3480156103b657600080fd5b506103bf61193b565b6040516103cc9190613918565b60405180910390f35b3480156103e157600080fd5b506103ea61194d565b005b3480156103f857600080fd5b50610401611961565b60405161040e9190613918565b60405180910390f35b34801561042357600080fd5b5061042c611975565b6040516104399190613be5565b60405180910390f35b34801561044e57600080fd5b5061046960048036038101906104649190613c00565b61199e565b60405161047893929190613c40565b60405180910390f35b34801561048d57600080fd5b506104a860048036038101906104a39190613778565b6119ef565b005b3480156104b657600080fd5b506104d160048036038101906104cc91906139e3565b611aaa565b6040516104de9190613be5565b60405180910390f35b61050160048036038101906104fc9190613c77565b611aea565b005b34801561050f57600080fd5b5061052a600480360381019061052591906139e3565b612034565b60405161053993929190613d75565b60405180910390f35b34801561054e57600080fd5b50610569600480360381019061056491906139e3565b612423565b005b34801561057757600080fd5b50610592600480360381019061058d919061395f565b613437565b60405161059f91906136fa565b60405180910390f35b3480156105b457600080fd5b506105cf60048036038101906105ca9190613a3c565b6134a2565b005b3480156105dd57600080fd5b506105f860048036038101906105f39190613778565b613511565b005b6000806065423360025460405160200161061693929190613e2a565b6040516020818303038152906040528051906020012060001c6106399190613e96565b90506002600081548092919061064e90613ef6565b91905055508091505090565b60606000806000601e600860008773ffffffffffffffffffffffffffffffffffffffff1673ffffffffffffffffffffffffffffffffffffffff168152602001908152602001600020600001805490501061077d5760048054906101000a900461ffff1661ffff16600860008773ffffffffffffffffffffffffffffffffffffffff1673ffffffffffffffffffffffffffffffffffffffff168152602001908152602001600020600001805490506107119190613f3e565b600860048054906101000a900461ffff1661072c9190613f72565b61ffff1667ffffffffffffffff81111561074957610748613faf565b5b6040519080825280602002602001820160405280156107775781602001602082028036833780820191505090505b50610819565b600060088060008873ffffffffffffffffffffffffffffffffffffffff1673ffffffffffffffffffffffffffffffffffffffff168152602001908152602001600020600001805490506107d09190613fde565b67ffffffffffffffff8111156107e9576107e8613faf565b5b6040519080825280602002602001820160405280156108175781602001602082028036833780820191505090505b505b915091505b600860008673ffffffffffffffffffffffffffffffffffffffff1673ffffffffffffffffffffffffffffffffffffffff16815260200190815260200160002060000180549050821015610cea576000600860008773ffffffffffffffffffffffffffffffffffffffff1673ffffffffffffffffffffffffffffffffffffffff16815260200190815260200160002060000183815481106108c1576108c0614020565b5b9060005260206000200154905060066000828152602001908152602001600020600101548285815181106108f8576108f7614020565b5b602002602001018181525050600660008281526020019081526020016000206005015482600186610929919061404f565b8151811061093a57610939614020565b5b60200260200101818152505060066000828152602001908152602001600020600201805490508260028661096e919061404f565b8151811061097f5761097e614020565b5b602002602001018181525050808260048661099a919061404f565b815181106109ab576109aa614020565b5b6020026020010181815250506006600082815260200190815260200160002060060154826005866109dc919061404f565b815181106109ed576109ec614020565b5b6020026020010181815250506006600082815260200190815260200160002060080160009054906101000a900460ff1660ff1682600686610a2e919061404f565b81518110610a3f57610a3e614020565b5b602002602001018181525050600960008773ffffffffffffffffffffffffffffffffffffffff1673ffffffffffffffffffffffffffffffffffffffff16815260200190815260200160002060008281526020019081526020016000206001015482600786610aad919061404f565b81518110610abe57610abd614020565b5b602002602001018181525050600960008773ffffffffffffffffffffffffffffffffffffffff1673ffffffffffffffffffffffffffffffffffffffff168152602001908152602001600020600082815260200190815260200160002060000160019054906101000a900460ff1615610b6257600082600386610b40919061404f565b81518110610b5157610b50614020565b5b602002602001018181525050610cc7565b600960008773ffffffffffffffffffffffffffffffffffffffff1673ffffffffffffffffffffffffffffffffffffffff168152602001908152602001600020600082815260200190815260200160002060000160009054906101000a900460ff1615610bfa57600182600386610bd8919061404f565b81518110610be957610be8614020565b5b602002602001018181525050610cc6565b6006600082815260200190815260200160002060000160149054906101000a900460ff16158015610c605750600460029054906101000a900461ffff1661ffff166006600083815260200190815260200160002060050154610c5c919061404f565b4210155b15610c9757600282600386610c75919061404f565b81518110610c8657610c85614020565b5b602002602001018181525050610cc5565b600382600386610ca7919061404f565b81518110610cb857610cb7614020565b5b6020026020010181815250505b5b5b600884610cd4919061404f565b9350508180610ce290613ef6565b92505061081e565b809350505050919050565b8160008160ff1610158015610d0e575060648160ff1611155b610d4d576040517f08c379a0000000000000000000000000000000000000000000000000000000008152600401610d44906140e0565b60405180910390fd5b60003411610d90576040517f08c379a0000000000000000000000000000000000000000000000000000000008152600401610d8790614172565b60405180910390fd5b3360066000600154815260200190815260200160002060000160006101000a81548173ffffffffffffffffffffffffffffffffffffffff021916908373ffffffffffffffffffffffffffffffffffffffff160217905550346006600060015481526020019081526020016000206006016000828254610e0f919061404f565b925050819055503460066000600154815260200190815260200160002060010181905550600660006001548152602001908152602001600020600201339080600181540180825580915050600190039060005260206000200160009091909190916101000a81548173ffffffffffffffffffffffffffffffffffffffff021916908373ffffffffffffffffffffffffffffffffffffffff1602179055508160ff16600660006001548152602001908152602001600020600401819055506006600060015481526020019081526020016000206003018390806001815401808255809150506001900390600052602060002090602091828204019190069091909190916101000a81548160ff021916908360ff1602179055504260066000600154815260200190815260200160002060050181905550600060066000600154815260200190815260200160002060080160006101000a81548160ff021916908360ff1602179055508260076000600154815260200190815260200160002060003373ffffffffffffffffffffffffffffffffffffffff1673ffffffffffffffffffffffffffffffffffffffff16815260200190815260200160002060000160016101000a81548160ff021916908360ff160217905550600160076000600154815260200190815260200160002060003373ffffffffffffffffffffffffffffffffffffffff1673ffffffffffffffffffffffffffffffffffffffff16815260200190815260200160002060000160006101000a81548160ff021916908315150217905550600860003373ffffffffffffffffffffffffffffffffffffffff1673ffffffffffffffffffffffffffffffffffffffff16815260200190815260200160002060000160015490806001815401808255809150506001900390600052602060002001600090919091909150557fefdb129ed8c918ef2a35b5212fc80a125215c26d64b3164c17218f7b0c1e1f4a600154346040516110f0929190614192565b60405180910390a16001600081548092919061110b90613ef6565b9190505550505050565b600460029054906101000a900461ffff1681565b60606000600560035460015461113f9190613f3e565b6111499190613fde565b67ffffffffffffffff81111561116257611161613faf565b5b6040519080825280602002602001820160405280156111905781602001602082028036833780820191505090505b50905060008060035490505b60015481101561132357600015156006600083815260200190815260200160002060000160149054906101000a900460ff161515036113105760066000828152602001908152602001600020600101548383815181106111ff576111fe614020565b5b602002602001018181525050600660008281526020019081526020016000206005015483600184611230919061404f565b8151811061124157611240614020565b5b602002602001018181525050600660008281526020019081526020016000206002018054905083600284611275919061404f565b8151811061128657611285614020565b5b60200260200101818152505080836003846112a1919061404f565b815181106112b2576112b1614020565b5b6020026020010181815250506006600082815260200190815260200160002060040154836004846112e3919061404f565b815181106112f4576112f3614020565b5b60200260200101818152505060058261130d919061404f565b91505b808061131b90613ef6565b91505061119c565b50819250505090565b6007602052816000526040600020602052806000526040600020600091509150508060000160009054906101000a900460ff16908060000160019054906101000a900460ff16905082565b60011515600960003373ffffffffffffffffffffffffffffffffffffffff1673ffffffffffffffffffffffffffffffffffffffff168152602001908152602001600020600083815260200190815260200160002060000160009054906101000a900460ff1615151461141e576040517f08c379a000000000000000000000000000000000000000000000000000000000815260040161141590614207565b60405180910390fd5b60001515600960003373ffffffffffffffffffffffffffffffffffffffff1673ffffffffffffffffffffffffffffffffffffffff168152602001908152602001600020600083815260200190815260200160002060000160019054906101000a900460ff161515146114c5576040517f08c379a00000000000000000000000000000000000000000000000000000000081526004016114bc90614273565b60405180910390fd5b6001600960003373ffffffffffffffffffffffffffffffffffffffff1673ffffffffffffffffffffffffffffffffffffffff168152602001908152602001600020600083815260200190815260200160002060000160016101000a81548160ff0219169083151502179055506000600960003373ffffffffffffffffffffffffffffffffffffffff1673ffffffffffffffffffffffffffffffffffffffff16815260200190815260200160002060008381526020019081526020016000206001015490506000612710600460009054906101000a900461ffff1661ffff16836115ae9190613fde565b6115b89190614293565b826115c39190613f3e565b9050600081836115d39190613f3e565b905060003373ffffffffffffffffffffffffffffffffffffffff16836040516115fb906142f5565b60006040518083038185875af1925050503d8060008114611638576040519150601f19603f3d011682016040523d82523d6000602084013e61163d565b606091505b505090506000600460069054906101000a900473ffffffffffffffffffffffffffffffffffffffff1673ffffffffffffffffffffffffffffffffffffffff1683604051611689906142f5565b60006040518083038185875af1925050503d80600081146116c6576040519150601f19603f3d011682016040523d82523d6000602084013e6116cb565b606091505b505090508180156116d95750805b611718576040517f08c379a000000000000000000000000000000000000000000000000000000000815260040161170f90614356565b60405180910390fd5b505050505050565b611728613594565b6127108161ffff1610611770576040517f08c379a0000000000000000000000000000000000000000000000000000000008152600401611767906143e8565b60405180910390fd5b80600460006101000a81548161ffff021916908361ffff16021790555050565b60606006600083815260200190815260200160002060030180548060200260200160405190810160405280929190818152602001828054801561181857602002820191906000526020600020906000905b82829054906101000a900460ff1660ff16815260200190600101906020826000010492830192600103820291508084116117e15790505b50505050509050919050565b61182c613594565b601e8161ffff161015611874576040517f08c379a000000000000000000000000000000000000000000000000000000000815260040161186b9061447a565b60405180910390fd5b806004806101000a81548161ffff021916908361ffff16021790555050565b60066020528060005260406000206000915090508060000160009054906101000a900473ffffffffffffffffffffffffffffffffffffffff16908060000160149054906101000a900460ff16908060010154908060040154908060050154908060060154908060070154908060080160009054906101000a900460ff16905088565b600460069054906101000a900473ffffffffffffffffffffffffffffffffffffffff1681565b60048054906101000a900461ffff1681565b611955613594565b61195f6000613612565b565b600460009054906101000a900461ffff1681565b60008060009054906101000a900473ffffffffffffffffffffffffffffffffffffffff16905090565b6009602052816000526040600020602052806000526040600020600091509150508060000160009054906101000a900460ff16908060000160019054906101000a900460ff16908060010154905083565b6119f7613594565b600073ffffffffffffffffffffffffffffffffffffffff168173ffffffffffffffffffffffffffffffffffffffff1603611a66576040517f08c379a0000000000000000000000000000000000000000000000000000000008152600401611a5d906144e6565b60405180910390fd5b80600460066101000a81548173ffffffffffffffffffffffffffffffffffffffff021916908373ffffffffffffffffffffffffffffffffffffffff16021790555050565b60006006600083815260200190815260200160002060000160009054906101000a900473ffffffffffffffffffffffffffffffffffffffff169050919050565b8060008160ff1610158015611b03575060648160ff1611155b611b42576040517f08c379a0000000000000000000000000000000000000000000000000000000008152600401611b39906140e0565b60405180910390fd5b82600460029054906101000a900461ffff1661ffff166006600083815260200190815260200160002060050154611b79919061404f565b421115611bbb576040517f08c379a0000000000000000000000000000000000000000000000000000000008152600401611bb290614552565b60405180910390fd5b60066000858152602001908152602001600020600101543414611c13576040517f08c379a0000000000000000000000000000000000000000000000000000000008152600401611c0a906145e4565b60405180910390fd5b6006600085815260200190815260200160002060000160009054906101000a900473ffffffffffffffffffffffffffffffffffffffff1673ffffffffffffffffffffffffffffffffffffffff163373ffffffffffffffffffffffffffffffffffffffff1603611cb7576040517f08c379a0000000000000000000000000000000000000000000000000000000008152600401611cae90614676565b60405180910390fd5b600015156007600086815260200190815260200160002060003373ffffffffffffffffffffffffffffffffffffffff1673ffffffffffffffffffffffffffffffffffffffff16815260200190815260200160002060000160009054906101000a900460ff16151514611d5e576040517f08c379a0000000000000000000000000000000000000000000000000000000008152600401611d55906146e2565b60405180910390fd5b600060066000868152602001908152602001600020600401541480611db1575060066000858152602001908152602001600020600401546006600086815260200190815260200160002060020180549050105b611df0576040517f08c379a0000000000000000000000000000000000000000000000000000000008152600401611de790614774565b60405180910390fd5b34600660008681526020019081526020016000206006016000828254611e16919061404f565b9250508190555060066000858152602001908152602001600020600201339080600181540180825580915050600190039060005260206000200160009091909190916101000a81548173ffffffffffffffffffffffffffffffffffffffff021916908373ffffffffffffffffffffffffffffffffffffffff160217905550600660008581526020019081526020016000206003018390806001815401808255809150506001900390600052602060002090602091828204019190069091909190916101000a81548160ff021916908360ff160217905550826007600086815260200190815260200160002060003373ffffffffffffffffffffffffffffffffffffffff1673ffffffffffffffffffffffffffffffffffffffff16815260200190815260200160002060000160016101000a81548160ff021916908360ff16021790555060016007600086815260200190815260200160002060003373ffffffffffffffffffffffffffffffffffffffff1673ffffffffffffffffffffffffffffffffffffffff16815260200190815260200160002060000160006101000a81548160ff021916908315150217905550600860003373ffffffffffffffffffffffffffffffffffffffff1673ffffffffffffffffffffffffffffffffffffffff16815260200190815260200160002060000184908060018154018082558091505060019003906000526020600020016000909190919091505550505050565b60608060606000600660008681526020019081526020016000206002018054905067ffffffffffffffff81111561206e5761206d613faf565b5b60405190808252806020026020018201604052801561209c5781602001602082028036833780820191505090505b5090506000600660008781526020019081526020016000206002018054905067ffffffffffffffff8111156120d4576120d3613faf565b5b6040519080825280602002602001820160405280156121025781602001602082028036833780820191505090505b5090506000600660008881526020019081526020016000206002018054905067ffffffffffffffff81111561213a57612139613faf565b5b6040519080825280602002602001820160405280156121685781602001602082028036833780820191505090505b50905060005b600660008981526020019081526020016000206002018054905081101561240f576006600089815260200190815260200160002060030181815481106121b7576121b6614020565b5b90600052602060002090602091828204019190069054906101000a900460ff1660ff168482815181106121ed576121ec614020565b5b60200260200101818152505060066000898152602001908152602001600020600201818154811061222157612220614020565b5b9060005260206000200160009054906101000a900473ffffffffffffffffffffffffffffffffffffffff1682828151811061225f5761225e614020565b5b602002602001019073ffffffffffffffffffffffffffffffffffffffff16908173ffffffffffffffffffffffffffffffffffffffff168152505060008060005b600660008c8152602001908152602001600020600a018054905081101561237a578484815181106122d3576122d2614020565b5b602002602001015173ffffffffffffffffffffffffffffffffffffffff16600660008d8152602001908152602001600020600a01828154811061231957612318614020565b5b9060005260206000200160009054906101000a900473ffffffffffffffffffffffffffffffffffffffff1673ffffffffffffffffffffffffffffffffffffffff160361236757600192508091505b808061237290613ef6565b91505061229f565b5081156123d857600660008b815260200190815260200160002060090181815481106123a9576123a8614020565b5b90600052602060002001548584815181106123c7576123c6614020565b5b6020026020010181815250506123fa565b60008584815181106123ed576123ec614020565b5b6020026020010181815250505b5050808061240790613ef6565b91505061216e565b508181849550955095505050509193909250565b600015156006600083815260200190815260200160002060000160149054906101000a900460ff1615151461248d576040517f08c379a0000000000000000000000000000000000000000000000000000000008152600401612484906147e0565b60405180910390fd5b600460029054906101000a900461ffff1661ffff1660066000838152602001908152602001600020600501546124c3919061404f565b4211612504576040517f08c379a00000000000000000000000000000000000000000000000000000000081526004016124fb90614872565b60405180910390fd5b600115156007600083815260200190815260200160002060003373ffffffffffffffffffffffffffffffffffffffff1673ffffffffffffffffffffffffffffffffffffffff16815260200190815260200160002060000160009054906101000a900460ff161515146125ab576040517f08c379a00000000000000000000000000000000000000000000000000000000081526004016125a290614904565b60405180910390fd5b6001600660008381526020019081526020016000206002018054905003612775576001600960003373ffffffffffffffffffffffffffffffffffffffff1673ffffffffffffffffffffffffffffffffffffffff168152602001908152602001600020600083815260200190815260200160002060000160006101000a81548160ff0219169083151502179055506006600082815260200190815260200160002060060154600960003373ffffffffffffffffffffffffffffffffffffffff1673ffffffffffffffffffffffffffffffffffffffff16815260200190815260200160002060008381526020019081526020016000206001018190555060066000828152602001908152602001600020600a01339080600181540180825580915050600190039060005260206000200160009091909190916101000a81548173ffffffffffffffffffffffffffffffffffffffff021916908373ffffffffffffffffffffffffffffffffffffffff1602179055506006600082815260200190815260200160002060090160066000838152602001908152602001600020600601549080600181540180825580915050600190039060005260206000200160009091909190915055613399565b600061277f6105fa565b9050806006600084815260200190815260200160002060080160006101000a81548160ff021916908360ff1602179055506000600660008481526020019081526020016000206002018054905067ffffffffffffffff8111156127e5576127e4613faf565b5b6040519080825280602002602001820160405280156128135781602001602082028036833780820191505090505b5090506000600660008581526020019081526020016000206003018054905067ffffffffffffffff81111561284b5761284a613faf565b5b6040519080825280602002602001820160405280156128795781602001602082028036833780820191505090505b5090506006600085815260200190815260200160002060020180548060200260200160405190810160405280929190818152602001828054801561291257602002820191906000526020600020905b8160009054906101000a900473ffffffffffffffffffffffffffffffffffffffff1673ffffffffffffffffffffffffffffffffffffffff16815260200190600101908083116128c8575b505050505091506006600085815260200190815260200160002060030180548060200260200160405190810160405280929190818152602001828054801561299f57602002820191906000526020600020906000905b82829054906101000a900460ff1660ff16815260200190600101906020826000010492830192600103820291508084116129685790505b505050505090506000815167ffffffffffffffff8111156129c3576129c2613faf565b5b6040519080825280602002602001820160405280156129f15781602001602082028036833780820191505090505b50905060005b8351811015612b32578460ff16838281518110612a1757612a16614020565b5b602002602001015160ff161115612a7a5784838281518110612a3c57612a3b614020565b5b6020026020010151612a4e9190614924565b828281518110612a6157612a60614020565b5b602002602001019060ff16908160ff1681525050612b1f565b8460ff16838281518110612a9157612a90614020565b5b602002602001015160ff161015612af457828181518110612ab557612ab4614020565b5b602002602001015185612ac89190614924565b828281518110612adb57612ada614020565b5b602002602001019060ff16908160ff1681525050612b1e565b6000828281518110612b0957612b08614020565b5b602002602001019060ff16908160ff16815250505b5b8080612b2a90613ef6565b9150506129f7565b50600060038251612b439190614293565b905060008103612b5257600190505b60008167ffffffffffffffff811115612b6e57612b6d613faf565b5b604051908082528060200260200182016040528015612b9c5781602001602082028036833780820191505090505b50905060008267ffffffffffffffff811115612bbb57612bba613faf565b5b604051908082528060200260200182016040528015612be95781602001602082028036833780820191505090505b50905060005b83811015612d4857600060649050600080600090505b88518160ff161015612c73578260ff16888260ff1681518110612c2b57612c2a614020565b5b602002602001015160ff161015612c6057809150878160ff1681518110612c5557612c54614020565b5b602002602001015192505b8080612c6b90614959565b915050612c05565b506064878260ff1681518110612c8c57612c8b614020565b5b602002602001019060ff16908160ff168152505080858481518110612cb457612cb3614020565b5b602002602001019060ff16908160ff1681525050888160ff1681518110612cde57612cdd614020565b5b6020026020010151848481518110612cf957612cf8614020565b5b602002602001019073ffffffffffffffffffffffffffffffffffffffff16908173ffffffffffffffffffffffffffffffffffffffff168152505050508080612d4090613ef6565b915050612bef565b50600183111561319b576000600660008a81526020019081526020016000206006015490506000600390506000600290505b8351811015612db1576001600283612d929190614982565b612d9c91906149bf565b91508080612da990613ef6565b915050612d7a565b5060008160ff1683612dc39190614293565b9050600060018551612dd59190613f3e565b90505b6000811115612fc9578160096000878481518110612df957612df8614020565b5b602002602001015173ffffffffffffffffffffffffffffffffffffffff1673ffffffffffffffffffffffffffffffffffffffff16815260200190815260200160002060008e815260200190815260200160002060010181905550600160096000878481518110612e6c57612e6b614020565b5b602002602001015173ffffffffffffffffffffffffffffffffffffffff1673ffffffffffffffffffffffffffffffffffffffff16815260200190815260200160002060008e815260200190815260200160002060000160006101000a81548160ff021916908315150217905550600660008d8152602001908152602001600020600901829080600181540180825580915050600190039060005260206000200160009091909190915055600660008d8152602001908152602001600020600a01858281518110612f3f57612f3e614020565b5b60200260200101519080600181540180825580915050600190039060005260206000200160009091909190916101000a81548173ffffffffffffffffffffffffffffffffffffffff021916908373ffffffffffffffffffffffffffffffffffffffff160217905550600282612fb49190613fde565b91508080612fc1906149f4565b915050612dd8565b50806009600086600081518110612fe357612fe2614020565b5b602002602001015173ffffffffffffffffffffffffffffffffffffffff1673ffffffffffffffffffffffffffffffffffffffff16815260200190815260200160002060008d8152602001908152602001600020600101819055506001600960008660008151811061305757613056614020565b5b602002602001015173ffffffffffffffffffffffffffffffffffffffff1673ffffffffffffffffffffffffffffffffffffffff16815260200190815260200160002060008d815260200190815260200160002060000160006101000a81548160ff021916908315150217905550600660008c8152602001908152602001600020600901819080600181540180825580915050600190039060005260206000200160009091909190915055600660008c8152602001908152602001600020600a018460008151811061312b5761312a614020565b5b60200260200101519080600181540180825580915050600190039060005260206000200160009091909190916101000a81548173ffffffffffffffffffffffffffffffffffffffff021916908373ffffffffffffffffffffffffffffffffffffffff160217905550505050613391565b600160096000836000815181106131b5576131b4614020565b5b602002602001015173ffffffffffffffffffffffffffffffffffffffff1673ffffffffffffffffffffffffffffffffffffffff16815260200190815260200160002060008a815260200190815260200160002060000160006101000a81548160ff0219169083151502179055506006600089815260200190815260200160002060060154600960008360008151811061325157613250614020565b5b602002602001015173ffffffffffffffffffffffffffffffffffffffff1673ffffffffffffffffffffffffffffffffffffffff16815260200190815260200160002060008a81526020019081526020016000206001018190555060066000898152602001908152602001600020600901600660008a815260200190815260200160002060060154908060018154018082558091505060019003906000526020600020016000909190919091505560066000898152602001908152602001600020600a018160008151811061332857613327614020565b5b60200260200101519080600181540180825580915050600190039060005260206000200160009091909190916101000a81548173ffffffffffffffffffffffffffffffffffffffff021916908373ffffffffffffffffffffffffffffffffffffffff1602179055505b505050505050505b60016006600083815260200190815260200160002060000160146101000a81548160ff021916908315150217905550806003819055507f3e9fed5538947ce96981fb9097e840f5c8d821344c446fe2409e2b8eb1efb08f8160066000848152602001908152602001600020600a016006600085815260200190815260200160002060090160405161342c93929190614bd2565b60405180910390a150565b60006007600084815260200190815260200160002060008373ffffffffffffffffffffffffffffffffffffffff1673ffffffffffffffffffffffffffffffffffffffff16815260200190815260200160002060000160019054906101000a900460ff16905092915050565b6134aa613594565b60008161ffff16036134f1576040517f08c379a00000000000000000000000000000000000000000000000000000000081526004016134e890614c63565b60405180910390fd5b80600460026101000a81548161ffff021916908361ffff16021790555050565b613519613594565b600073ffffffffffffffffffffffffffffffffffffffff168173ffffffffffffffffffffffffffffffffffffffff1603613588576040517f08c379a000000000000000000000000000000000000000000000000000000000815260040161357f90614cf5565b60405180910390fd5b61359181613612565b50565b61359c6136d6565b73ffffffffffffffffffffffffffffffffffffffff166135ba611975565b73ffffffffffffffffffffffffffffffffffffffff1614613610576040517f08c379a000000000000000000000000000000000000000000000000000000000815260040161360790614d61565b60405180910390fd5b565b60008060009054906101000a900473ffffffffffffffffffffffffffffffffffffffff169050816000806101000a81548173ffffffffffffffffffffffffffffffffffffffff021916908373ffffffffffffffffffffffffffffffffffffffff1602179055508173ffffffffffffffffffffffffffffffffffffffff168173ffffffffffffffffffffffffffffffffffffffff167f8be0079c531659141344cd1fd0a4f28419497f9722a3daafe3b4186f6b6457e060405160405180910390a35050565b600033905090565b600060ff82169050919050565b6136f4816136de565b82525050565b600060208201905061370f60008301846136eb565b92915050565b600080fd5b600073ffffffffffffffffffffffffffffffffffffffff82169050919050565b60006137458261371a565b9050919050565b6137558161373a565b811461376057600080fd5b50565b6000813590506137728161374c565b92915050565b60006020828403121561378e5761378d613715565b5b600061379c84828501613763565b91505092915050565b600081519050919050565b600082825260208201905092915050565b6000819050602082019050919050565b6000819050919050565b6137e4816137d1565b82525050565b60006137f683836137db565b60208301905092915050565b6000602082019050919050565b600061381a826137a5565b61382481856137b0565b935061382f836137c1565b8060005b8381101561386057815161384788826137ea565b975061385283613802565b925050600181019050613833565b5085935050505092915050565b60006020820190508181036000830152613887818461380f565b905092915050565b613898816136de565b81146138a357600080fd5b50565b6000813590506138b58161388f565b92915050565b600080604083850312156138d2576138d1613715565b5b60006138e0858286016138a6565b92505060206138f1858286016138a6565b9150509250929050565b600061ffff82169050919050565b613912816138fb565b82525050565b600060208201905061392d6000830184613909565b92915050565b61393c816137d1565b811461394757600080fd5b50565b60008135905061395981613933565b92915050565b6000806040838503121561397657613975613715565b5b60006139848582860161394a565b925050602061399585828601613763565b9150509250929050565b60008115159050919050565b6139b48161399f565b82525050565b60006040820190506139cf60008301856139ab565b6139dc60208301846136eb565b9392505050565b6000602082840312156139f9576139f8613715565b5b6000613a078482850161394a565b91505092915050565b613a19816138fb565b8114613a2457600080fd5b50565b600081359050613a3681613a10565b92915050565b600060208284031215613a5257613a51613715565b5b6000613a6084828501613a27565b91505092915050565b600081519050919050565b600082825260208201905092915050565b6000819050602082019050919050565b613a9e816136de565b82525050565b6000613ab08383613a95565b60208301905092915050565b6000602082019050919050565b6000613ad482613a69565b613ade8185613a74565b9350613ae983613a85565b8060005b83811015613b1a578151613b018882613aa4565b9750613b0c83613abc565b925050600181019050613aed565b5085935050505092915050565b60006020820190508181036000830152613b418184613ac9565b905092915050565b613b528161373a565b82525050565b613b61816137d1565b82525050565b600061010082019050613b7d600083018b613b49565b613b8a602083018a6139ab565b613b976040830189613b58565b613ba46060830188613b58565b613bb16080830187613b58565b613bbe60a0830186613b58565b613bcb60c0830185613b58565b613bd860e08301846136eb565b9998505050505050505050565b6000602082019050613bfa6000830184613b49565b92915050565b60008060408385031215613c1757613c16613715565b5b6000613c2585828601613763565b9250506020613c368582860161394a565b9150509250929050565b6000606082019050613c5560008301866139ab565b613c6260208301856139ab565b613c6f6040830184613b58565b949350505050565b60008060408385031215613c8e57613c8d613715565b5b6000613c9c8582860161394a565b9250506020613cad858286016138a6565b9150509250929050565b600081519050919050565b600082825260208201905092915050565b6000819050602082019050919050565b613cec8161373a565b82525050565b6000613cfe8383613ce3565b60208301905092915050565b6000602082019050919050565b6000613d2282613cb7565b613d2c8185613cc2565b9350613d3783613cd3565b8060005b83811015613d68578151613d4f8882613cf2565b9750613d5a83613d0a565b925050600181019050613d3b565b5085935050505092915050565b60006060820190508181036000830152613d8f818661380f565b90508181036020830152613da38185613d17565b90508181036040830152613db7818461380f565b9050949350505050565b6000819050919050565b613ddc613dd7826137d1565b613dc1565b82525050565b60008160601b9050919050565b6000613dfa82613de2565b9050919050565b6000613e0c82613def565b9050919050565b613e24613e1f8261373a565b613e01565b82525050565b6000613e368286613dcb565b602082019150613e468285613e13565b601482019150613e568284613dcb565b602082019150819050949350505050565b7f4e487b7100000000000000000000000000000000000000000000000000000000600052601260045260246000fd5b6000613ea1826137d1565b9150613eac836137d1565b925082613ebc57613ebb613e67565b5b828206905092915050565b7f4e487b7100000000000000000000000000000000000000000000000000000000600052601160045260246000fd5b6000613f01826137d1565b91507fffffffffffffffffffffffffffffffffffffffffffffffffffffffffffffffff8203613f3357613f32613ec7565b5b600182019050919050565b6000613f49826137d1565b9150613f54836137d1565b9250828203905081811115613f6c57613f6b613ec7565b5b92915050565b6000613f7d826138fb565b9150613f88836138fb565b9250828202613f96816138fb565b9150808214613fa857613fa7613ec7565b5b5092915050565b7f4e487b7100000000000000000000000000000000000000000000000000000000600052604160045260246000fd5b6000613fe9826137d1565b9150613ff4836137d1565b9250828202614002816137d1565b9150828204841483151761401957614018613ec7565b5b5092915050565b7f4e487b7100000000000000000000000000000000000000000000000000000000600052603260045260246000fd5b600061405a826137d1565b9150614065836137d1565b925082820190508082111561407d5761407c613ec7565b5b92915050565b600082825260208201905092915050565b7f43686f6f7365206e756d626572206265747765656e203020616e642031303000600082015250565b60006140ca601f83614083565b91506140d582614094565b602082019050919050565b600060208201905081810360008301526140f9816140bd565b9050919050565b7f467265652067616d657320617265206e6f7420737570706f727465642068657260008201527f6521000000000000000000000000000000000000000000000000000000000000602082015250565b600061415c602283614083565b915061416782614100565b604082019050919050565b6000602082019050818103600083015261418b8161414f565b9050919050565b60006040820190506141a76000830185613b58565b6141b46020830184613b58565b9392505050565b7f596f7520617265206e6f7420612077696e6e6572206f66207468652067616d65600082015250565b60006141f1602083614083565b91506141fc826141bb565b602082019050919050565b60006020820190508181036000830152614220816141e4565b9050919050565b7f5072697a6520697320636c61696d656420616c72656164790000000000000000600082015250565b600061425d601883614083565b915061426882614227565b602082019050919050565b6000602082019050818103600083015261428c81614250565b9050919050565b600061429e826137d1565b91506142a9836137d1565b9250826142b9576142b8613e67565b5b828204905092915050565b600081905092915050565b50565b60006142df6000836142c4565b91506142ea826142cf565b600082019050919050565b6000614300826142d2565b9150819050919050565b7f5472616e7366657273206e6f7420737563636573730000000000000000000000600082015250565b6000614340601583614083565b915061434b8261430a565b602082019050919050565b6000602082019050818103600083015261436f81614333565b9050919050565b7f4e6577206665652070657263656e74206973206c657373207468616e2031303060008201527f3030000000000000000000000000000000000000000000000000000000000000602082015250565b60006143d2602283614083565b91506143dd82614376565b604082019050919050565b60006020820190508181036000830152614401816143c5565b9050919050565b7f5573657247616d6573546f52657475726e4e756d626572206861766520746f2060008201527f6265206d6f7265207468616e2033300000000000000000000000000000000000602082015250565b6000614464602f83614083565b915061446f82614408565b604082019050919050565b6000602082019050818103600083015261449381614457565b9050919050565b7f4e65772057616c6c657420697320616464726573732830290000000000000000600082015250565b60006144d0601883614083565b91506144db8261449a565b602082019050919050565b600060208201905081810360008301526144ff816144c3565b9050919050565b7f5468652067616d652069732066696e6973686564000000000000000000000000600082015250565b600061453c601483614083565b915061454782614506565b602082019050919050565b6000602082019050818103600083015261456b8161452f565b9050919050565b7f56616c7565206f6620746865207472616e73616374696f6e2073686f756c642060008201527f626520657175616c20746f207468652067616d65000000000000000000000000602082015250565b60006145ce603483614083565b91506145d982614572565b604082019050919050565b600060208201905081810360008301526145fd816145c1565b9050919050565b7f4f776e657220697320616c726561647920696e207061727469636970616e747360008201527f206c697374000000000000000000000000000000000000000000000000000000602082015250565b6000614660602583614083565b915061466b82614604565b604082019050919050565b6000602082019050818103600083015261468f81614653565b9050919050565b7f596f752063616e206e6f74206a6f696e20747769636500000000000000000000600082015250565b60006146cc601683614083565b91506146d782614696565b602082019050919050565b600060208201905081810360008301526146fb816146bf565b9050919050565b7f5061727469636970616e7473206c696d697420686173206265656e207265616360008201527f6865640000000000000000000000000000000000000000000000000000000000602082015250565b600061475e602383614083565b915061476982614702565b604082019050919050565b6000602082019050818103600083015261478d81614751565b9050919050565b7f5468652067616d652069732066696e697368656420616c726561647900000000600082015250565b60006147ca601c83614083565b91506147d582614794565b602082019050919050565b600060208201905081810360008301526147f9816147bd565b9050919050565b7f596f752063616e2066696e69736820612067616d65206f6e6c7920616674657260008201527f20657861637420706572696f6400000000000000000000000000000000000000602082015250565b600061485c602d83614083565b915061486782614800565b604082019050919050565b6000602082019050818103600083015261488b8161484f565b9050919050565b7f4f6e6c79207061727469636970616e74732063616e2066696e6973682061206760008201527f616d650000000000000000000000000000000000000000000000000000000000602082015250565b60006148ee602383614083565b91506148f982614892565b604082019050919050565b6000602082019050818103600083015261491d816148e1565b9050919050565b600061492f826136de565b915061493a836136de565b9250828203905060ff81111561495357614952613ec7565b5b92915050565b6000614964826136de565b915060ff820361497757614976613ec7565b5b600182019050919050565b600061498d826136de565b9150614998836136de565b92508282026149a6816136de565b91508082146149b8576149b7613ec7565b5b5092915050565b60006149ca826136de565b91506149d5836136de565b9250828201905060ff8111156149ee576149ed613ec7565b5b92915050565b60006149ff826137d1565b915060008203614a1257614a11613ec7565b5b600182039050919050565b600081549050919050565b60008190508160005260206000209050919050565b60008160001c9050919050565b600073ffffffffffffffffffffffffffffffffffffffff82169050919050565b6000614a7d614a7883614a3d565b614a4a565b9050919050565b6000614a908254614a6a565b9050919050565b6000600182019050919050565b6000614aaf82614a1d565b614ab98185613cc2565b9350614ac483614a28565b8060005b83811015614afc57614ad982614a84565b614ae38882613cf2565b9750614aee83614a97565b925050600181019050614ac8565b5085935050505092915050565b600081549050919050565b60008190508160005260206000209050919050565b6000819050919050565b6000614b46614b4183614a3d565b614b29565b9050919050565b6000614b598254614b33565b9050919050565b6000600182019050919050565b6000614b7882614b09565b614b8281856137b0565b9350614b8d83614b14565b8060005b83811015614bc557614ba282614b4d565b614bac88826137ea565b9750614bb783614b60565b925050600181019050614b91565b5085935050505092915050565b6000606082019050614be76000830186613b58565b8181036020830152614bf98185614aa4565b90508181036040830152614c0d8184614b6d565b9050949350505050565b7f54696d6520746f2066696e69736820697320657175616c20746f203000000000600082015250565b6000614c4d601c83614083565b9150614c5882614c17565b602082019050919050565b60006020820190508181036000830152614c7c81614c40565b9050919050565b7f4f776e61626c653a206e6577206f776e657220697320746865207a65726f206160008201527f6464726573730000000000000000000000000000000000000000000000000000602082015250565b6000614cdf602683614083565b9150614cea82614c83565b604082019050919050565b60006020820190508181036000830152614d0e81614cd2565b9050919050565b7f4f776e61626c653a2063616c6c6572206973206e6f7420746865206f776e6572600082015250565b6000614d4b602083614083565b9150614d5682614d15565b602082019050919050565b60006020820190508181036000830152614d7a81614d3e565b905091905056fea2646970667358221220010eb0c7e16ecb42b2ccab29a4a7d6bbf8b2a8df9adc851a25935833e802809c64736f6c63430008110033",
  "linkReferences": {},
  "deployedLinkReferences": {}
}