{
  "_format": "hh-sol-artifact-1",
  "contractName": "Fair",
  "sourceName": "contracts/Fair.sol",
  "abi": [
    {
      "inputs": [
        {
          "internalType": "address",
          "name": "_wallet",
          "type": "address"
        },
        {
          "internalType": "uint16",
          "name": "_feePercent",
          "type": "uint16"
        }
      ],
      "stateMutability": "nonpayable",
      "type": "constructor"
    },
    {
      "anonymous": false,
      "inputs": [
        {
          "indexed": false,
          "internalType": "uint256",
          "name": "gameId",
          "type": "uint256"
        },
        {
          "indexed": false,
          "internalType": "uint256",
          "name": "bid",
          "type": "uint256"
        }
      ],
      "name": "CreateGame",
      "type": "event"
    },
    {
      "anonymous": false,
      "inputs": [
        {
          "indexed": true,
          "internalType": "address",
          "name": "previousOwner",
          "type": "address"
        },
        {
          "indexed": true,
          "internalType": "address",
          "name": "newOwner",
          "type": "address"
        }
      ],
      "name": "OwnershipTransferred",
      "type": "event"
    },
    {
      "inputs": [
        {
          "internalType": "uint256",
          "name": "",
          "type": "uint256"
        },
        {
          "internalType": "address",
          "name": "",
          "type": "address"
        }
      ],
      "name": "biddersList",
      "outputs": [
        {
          "internalType": "bool",
          "name": "participatedFlag",
          "type": "bool"
        },
        {
          "internalType": "uint8",
          "name": "number",
          "type": "uint8"
        }
      ],
      "stateMutability": "view",
      "type": "function"
    },
    {
      "inputs": [
        {
          "internalType": "uint256",
          "name": "_gameId",
          "type": "uint256"
        }
      ],
      "name": "claim",
      "outputs": [],
      "stateMutability": "nonpayable",
      "type": "function"
    },
    {
      "inputs": [
        {
          "internalType": "uint8",
          "name": "_number",
          "type": "uint8"
        },
        {
          "internalType": "uint8",
          "name": "_limit",
          "type": "uint8"
        }
      ],
      "name": "createGame",
      "outputs": [],
      "stateMutability": "payable",
      "type": "function"
    },
    {
      "inputs": [],
      "name": "feePercent",
      "outputs": [
        {
          "internalType": "uint16",
          "name": "",
          "type": "uint16"
        }
      ],
      "stateMutability": "view",
      "type": "function"
    },
    {
      "inputs": [
        {
          "internalType": "uint256",
          "name": "_gameId",
          "type": "uint256"
        }
      ],
      "name": "finishGame",
      "outputs": [],
      "stateMutability": "nonpayable",
      "type": "function"
    },
    {
      "inputs": [
        {
          "internalType": "uint256",
          "name": "",
          "type": "uint256"
        }
      ],
      "name": "gamesList",
      "outputs": [
        {
          "internalType": "address",
          "name": "owner",
          "type": "address"
        },
        {
          "internalType": "bool",
          "name": "isFinished",
          "type": "bool"
        },
        {
          "internalType": "uint256",
          "name": "bid",
          "type": "uint256"
        },
        {
          "internalType": "uint256",
          "name": "participantsLimit",
          "type": "uint256"
        },
        {
          "internalType": "uint256",
          "name": "createdTimestamp",
          "type": "uint256"
        },
        {
          "internalType": "uint256",
          "name": "pool",
          "type": "uint256"
        },
        {
          "internalType": "uint256",
          "name": "individualPrize",
          "type": "uint256"
        },
        {
          "internalType": "uint8",
          "name": "luckyNumber",
          "type": "uint8"
        }
      ],
      "stateMutability": "view",
      "type": "function"
    },
    {
      "inputs": [],
      "name": "generateRandom",
      "outputs": [
        {
          "internalType": "uint8",
          "name": "",
          "type": "uint8"
        }
      ],
      "stateMutability": "nonpayable",
      "type": "function"
    },
    {
      "inputs": [],
      "name": "getActualGames",
      "outputs": [
        {
          "internalType": "uint256[]",
          "name": "",
          "type": "uint256[]"
        }
      ],
      "stateMutability": "view",
      "type": "function"
    },
    {
      "inputs": [
        {
          "internalType": "uint256",
          "name": "_gameId",
          "type": "uint256"
        },
        {
          "internalType": "address",
          "name": "adr",
          "type": "address"
        }
      ],
      "name": "getBet",
      "outputs": [
        {
          "internalType": "uint8",
          "name": "",
          "type": "uint8"
        }
      ],
      "stateMutability": "view",
      "type": "function"
    },
    {
      "inputs": [
        {
          "internalType": "uint256",
          "name": "_gameId",
          "type": "uint256"
        }
      ],
      "name": "getNumbers",
      "outputs": [
        {
          "internalType": "uint8[]",
          "name": "",
          "type": "uint8[]"
        }
      ],
      "stateMutability": "view",
      "type": "function"
    },
    {
      "inputs": [
        {
          "internalType": "uint256",
          "name": "_gameId",
          "type": "uint256"
        }
      ],
      "name": "getOwner",
      "outputs": [
        {
          "internalType": "address",
          "name": "",
          "type": "address"
        }
      ],
      "stateMutability": "view",
      "type": "function"
    },
    {
      "inputs": [
        {
          "internalType": "uint256",
          "name": "_gameId",
          "type": "uint256"
        }
      ],
      "name": "getPrizes",
      "outputs": [
        {
          "internalType": "uint256[]",
          "name": "",
          "type": "uint256[]"
        },
        {
          "internalType": "address[]",
          "name": "",
          "type": "address[]"
        },
        {
          "internalType": "uint256[]",
          "name": "",
          "type": "uint256[]"
        }
      ],
      "stateMutability": "view",
      "type": "function"
    },
    {
      "inputs": [
        {
          "internalType": "address",
          "name": "_user",
          "type": "address"
        }
      ],
      "name": "getUserGames",
      "outputs": [
        {
          "internalType": "uint256[]",
          "name": "",
          "type": "uint256[]"
        }
      ],
      "stateMutability": "view",
      "type": "function"
    },
    {
      "inputs": [
        {
          "internalType": "uint256",
          "name": "_gameId",
          "type": "uint256"
        },
        {
          "internalType": "uint8",
          "name": "_number",
          "type": "uint8"
        }
      ],
      "name": "joinGame",
      "outputs": [],
      "stateMutability": "payable",
      "type": "function"
    },
    {
      "inputs": [
        {
          "internalType": "uint16",
          "name": "_feePercent",
          "type": "uint16"
        }
      ],
      "name": "newFeePercent",
      "outputs": [],
      "stateMutability": "nonpayable",
      "type": "function"
    },
    {
      "inputs": [
        {
          "internalType": "address",
          "name": "_wallet",
          "type": "address"
        }
      ],
      "name": "newWallet",
      "outputs": [],
      "stateMutability": "nonpayable",
      "type": "function"
    },
    {
      "inputs": [],
      "name": "owner",
      "outputs": [
        {
          "internalType": "address",
          "name": "",
          "type": "address"
        }
      ],
      "stateMutability": "view",
      "type": "function"
    },
    {
      "inputs": [
        {
          "internalType": "address",
          "name": "",
          "type": "address"
        },
        {
          "internalType": "uint256",
          "name": "",
          "type": "uint256"
        }
      ],
      "name": "prizeList",
      "outputs": [
        {
          "internalType": "bool",
          "name": "isWinner",
          "type": "bool"
        },
        {
          "internalType": "bool",
          "name": "isClaimed",
          "type": "bool"
        },
        {
          "internalType": "uint256",
          "name": "prize",
          "type": "uint256"
        }
      ],
      "stateMutability": "view",
      "type": "function"
    },
    {
      "inputs": [],
      "name": "renounceOwnership",
      "outputs": [],
      "stateMutability": "nonpayable",
      "type": "function"
    },
    {
      "inputs": [
        {
          "internalType": "address",
          "name": "newOwner",
          "type": "address"
        }
      ],
      "name": "transferOwnership",
      "outputs": [],
      "stateMutability": "nonpayable",
      "type": "function"
    },
    {
      "inputs": [],
      "name": "wallet",
      "outputs": [
        {
          "internalType": "address",
          "name": "",
          "type": "address"
        }
      ],
      "stateMutability": "view",
      "type": "function"
    }
  ],
  "bytecode": "0x60806040523480156200001157600080fd5b50604051620047f4380380620047f4833981810160405281019062000037919062000232565b620000576200004b620000bd60201b60201c565b620000c560201b60201c565b81600460026101000a81548173ffffffffffffffffffffffffffffffffffffffff021916908373ffffffffffffffffffffffffffffffffffffffff16021790555080600460006101000a81548161ffff021916908361ffff160217905550505062000279565b600033905090565b60008060009054906101000a900473ffffffffffffffffffffffffffffffffffffffff169050816000806101000a81548173ffffffffffffffffffffffffffffffffffffffff021916908373ffffffffffffffffffffffffffffffffffffffff1602179055508173ffffffffffffffffffffffffffffffffffffffff168173ffffffffffffffffffffffffffffffffffffffff167f8be0079c531659141344cd1fd0a4f28419497f9722a3daafe3b4186f6b6457e060405160405180910390a35050565b600080fd5b600073ffffffffffffffffffffffffffffffffffffffff82169050919050565b6000620001bb826200018e565b9050919050565b620001cd81620001ae565b8114620001d957600080fd5b50565b600081519050620001ed81620001c2565b92915050565b600061ffff82169050919050565b6200020c81620001f3565b81146200021857600080fd5b50565b6000815190506200022c8162000201565b92915050565b600080604083850312156200024c576200024b62000189565b5b60006200025c85828601620001dc565b92505060206200026f858286016200021b565b9150509250929050565b61456b80620002896000396000f3fe60806040526004361061012a5760003560e01c8063715018a6116100ab578063c41a360a1161006f578063c41a360a146103ef578063ca6649c51461042c578063cc30779514610448578063cfe186b214610487578063e0950ddf146104b0578063f2fde38b146104ed5761012a565b8063715018a61461031a5780637fd6f15c146103315780638da5cb5b1461035c5780639ff0f4a914610387578063bda6688f146103c65761012a565b8063379607f5116100f2578063379607f51461021c578063493ab058146102455780634a7b26ae1461026e5780635054c0a3146102ab578063521eb273146102ef5761012a565b806302e4af011461012f578063120aace61461015a5780631346a76d1461019757806316466fe6146101b3578063208970d5146101de575b600080fd5b34801561013b57600080fd5b50610144610516565b60405161015191906132a5565b60405180910390f35b34801561016657600080fd5b50610181600480360381019061017c9190613323565b610576565b60405161018e9190613418565b60405180910390f35b6101b160048036038101906101ac9190613466565b610ade565b005b3480156101bf57600080fd5b506101c8610efe565b6040516101d59190613418565b60405180910390f35b3480156101ea57600080fd5b50610205600480360381019061020091906134d2565b611102565b60405161021392919061352d565b60405180910390f35b34801561022857600080fd5b50610243600480360381019061023e9190613556565b61114d565b005b34801561025157600080fd5b5061026c600480360381019061026791906135bd565b6114f6565b005b34801561027a57600080fd5b5061029560048036038101906102909190613556565b61151e565b6040516102a291906136a8565b60405180910390f35b3480156102b757600080fd5b506102d260048036038101906102cd9190613556565b6115b2565b6040516102e69897969594939291906136e8565b60405180910390f35b3480156102fb57600080fd5b50610304611634565b6040516103119190613766565b60405180910390f35b34801561032657600080fd5b5061032f61165a565b005b34801561033d57600080fd5b5061034661166e565b6040516103539190613790565b60405180910390f35b34801561036857600080fd5b50610371611682565b60405161037e9190613766565b60405180910390f35b34801561039357600080fd5b506103ae60048036038101906103a991906137ab565b6116ab565b6040516103bd939291906137eb565b60405180910390f35b3480156103d257600080fd5b506103ed60048036038101906103e89190613323565b6116fc565b005b3480156103fb57600080fd5b5061041660048036038101906104119190613556565b611748565b6040516104239190613766565b60405180910390f35b61044660048036038101906104419190613822565b611788565b005b34801561045457600080fd5b5061046f600480360381019061046a9190613556565b611cc1565b60405161047e93929190613920565b60405180910390f35b34801561049357600080fd5b506104ae60048036038101906104a99190613556565b6120b1565b005b3480156104bc57600080fd5b506104d760048036038101906104d291906134d2565b613050565b6040516104e491906132a5565b60405180910390f35b3480156104f957600080fd5b50610514600480360381019061050f9190613323565b6130bb565b005b60008060654233600254604051602001610532939291906139d5565b6040516020818303038152906040528051906020012060001c6105559190613a41565b90506002600081548092919061056a90613aa1565b91905055508091505090565b6060600060088060008573ffffffffffffffffffffffffffffffffffffffff1673ffffffffffffffffffffffffffffffffffffffff168152602001908152602001600020600001805490506105cb9190613aea565b67ffffffffffffffff8111156105e4576105e3613b44565b5b6040519080825280602002602001820160405280156106125781602001602082028036833780820191505090505b5090506000805b600860008673ffffffffffffffffffffffffffffffffffffffff1673ffffffffffffffffffffffffffffffffffffffff16815260200190815260200160002060000180549050811015610ad3576000600860008773ffffffffffffffffffffffffffffffffffffffff1673ffffffffffffffffffffffffffffffffffffffff16815260200190815260200160002060000182815481106106bc576106bb613b73565b5b9060005260206000200154905060066000828152602001908152602001600020600101548484815181106106f3576106f2613b73565b5b6020026020010181815250506006600082815260200190815260200160002060050154846001856107249190613ba2565b8151811061073557610734613b73565b5b6020026020010181815250506006600082815260200190815260200160002060020180549050846002856107699190613ba2565b8151811061077a57610779613b73565b5b60200260200101818152505080846004856107959190613ba2565b815181106107a6576107a5613b73565b5b6020026020010181815250506006600082815260200190815260200160002060060154846005856107d79190613ba2565b815181106107e8576107e7613b73565b5b6020026020010181815250506006600082815260200190815260200160002060080160009054906101000a900460ff1660ff16846006856108299190613ba2565b8151811061083a57610839613b73565b5b602002602001018181525050600960008773ffffffffffffffffffffffffffffffffffffffff1673ffffffffffffffffffffffffffffffffffffffff168152602001908152602001600020600082815260200190815260200160002060010154846007856108a89190613ba2565b815181106108b9576108b8613b73565b5b602002602001018181525050600960008773ffffffffffffffffffffffffffffffffffffffff1673ffffffffffffffffffffffffffffffffffffffff168152602001908152602001600020600082815260200190815260200160002060000160019054906101000a900460ff161561095d5760008460038561093b9190613ba2565b8151811061094c5761094b613b73565b5b602002602001018181525050610ab0565b600960008773ffffffffffffffffffffffffffffffffffffffff1673ffffffffffffffffffffffffffffffffffffffff168152602001908152602001600020600082815260200190815260200160002060000160009054906101000a900460ff16156109f5576001846003856109d39190613ba2565b815181106109e4576109e3613b73565b5b602002602001018181525050610aaf565b6006600082815260200190815260200160002060000160149054906101000a900460ff16158015610a49575061012c6006600083815260200190815260200160002060050154610a459190613ba2565b4210155b15610a8057600284600385610a5e9190613ba2565b81518110610a6f57610a6e613b73565b5b602002602001018181525050610aae565b600384600385610a909190613ba2565b81518110610aa157610aa0613b73565b5b6020026020010181815250505b5b5b600883610abd9190613ba2565b9250508080610acb90613aa1565b915050610619565b508192505050919050565b8160008160ff1610158015610af7575060648160ff1611155b610b36576040517f08c379a0000000000000000000000000000000000000000000000000000000008152600401610b2d90613c55565b60405180910390fd5b60003411610b79576040517f08c379a0000000000000000000000000000000000000000000000000000000008152600401610b7090613ce7565b60405180910390fd5b3360066000600154815260200190815260200160002060000160006101000a81548173ffffffffffffffffffffffffffffffffffffffff021916908373ffffffffffffffffffffffffffffffffffffffff160217905550346006600060015481526020019081526020016000206006016000828254610bf89190613ba2565b925050819055503460066000600154815260200190815260200160002060010181905550600660006001548152602001908152602001600020600201339080600181540180825580915050600190039060005260206000200160009091909190916101000a81548173ffffffffffffffffffffffffffffffffffffffff021916908373ffffffffffffffffffffffffffffffffffffffff1602179055508160ff16600660006001548152602001908152602001600020600401819055506006600060015481526020019081526020016000206003018390806001815401808255809150506001900390600052602060002090602091828204019190069091909190916101000a81548160ff021916908360ff1602179055504260066000600154815260200190815260200160002060050181905550600060066000600154815260200190815260200160002060080160006101000a81548160ff021916908360ff1602179055508260076000600154815260200190815260200160002060003373ffffffffffffffffffffffffffffffffffffffff1673ffffffffffffffffffffffffffffffffffffffff16815260200190815260200160002060000160016101000a81548160ff021916908360ff160217905550600160076000600154815260200190815260200160002060003373ffffffffffffffffffffffffffffffffffffffff1673ffffffffffffffffffffffffffffffffffffffff16815260200190815260200160002060000160006101000a81548160ff021916908315150217905550600860003373ffffffffffffffffffffffffffffffffffffffff1673ffffffffffffffffffffffffffffffffffffffff16815260200190815260200160002060000160015490806001815401808255809150506001900390600052602060002001600090919091909150557fefdb129ed8c918ef2a35b5212fc80a125215c26d64b3164c17218f7b0c1e1f4a60015434604051610ed9929190613d07565b60405180910390a160016000815480929190610ef490613aa1565b9190505550505050565b606060006005600354600154610f149190613d30565b610f1e9190613aea565b67ffffffffffffffff811115610f3757610f36613b44565b5b604051908082528060200260200182016040528015610f655781602001602082028036833780820191505090505b50905060008060035490505b6001548110156110f957600015156006600083815260200190815260200160002060000160149054906101000a900460ff16151514156110e6576006600082815260200190815260200160002060010154838381518110610fd557610fd4613b73565b5b6020026020010181815250506006600082815260200190815260200160002060050154836001846110069190613ba2565b8151811061101757611016613b73565b5b60200260200101818152505060066000828152602001908152602001600020600201805490508360028461104b9190613ba2565b8151811061105c5761105b613b73565b5b60200260200101818152505080836003846110779190613ba2565b8151811061108857611087613b73565b5b6020026020010181815250506006600082815260200190815260200160002060040154836004846110b99190613ba2565b815181106110ca576110c9613b73565b5b6020026020010181815250506005826110e39190613ba2565b91505b80806110f190613aa1565b915050610f71565b50819250505090565b6007602052816000526040600020602052806000526040600020600091509150508060000160009054906101000a900460ff16908060000160019054906101000a900460ff16905082565b60011515600960003373ffffffffffffffffffffffffffffffffffffffff1673ffffffffffffffffffffffffffffffffffffffff168152602001908152602001600020600083815260200190815260200160002060000160009054906101000a900460ff161515146111f4576040517f08c379a00000000000000000000000000000000000000000000000000000000081526004016111eb90613db0565b60405180910390fd5b60001515600960003373ffffffffffffffffffffffffffffffffffffffff1673ffffffffffffffffffffffffffffffffffffffff168152602001908152602001600020600083815260200190815260200160002060000160019054906101000a900460ff1615151461129b576040517f08c379a000000000000000000000000000000000000000000000000000000000815260040161129290613e1c565b60405180910390fd5b6001600960003373ffffffffffffffffffffffffffffffffffffffff1673ffffffffffffffffffffffffffffffffffffffff168152602001908152602001600020600083815260200190815260200160002060000160016101000a81548160ff0219169083151502179055506000600960003373ffffffffffffffffffffffffffffffffffffffff1673ffffffffffffffffffffffffffffffffffffffff16815260200190815260200160002060008381526020019081526020016000206001015490506000612710600460009054906101000a900461ffff1661ffff16836113849190613aea565b61138e9190613e3c565b826113999190613d30565b9050600081836113a99190613d30565b905060003373ffffffffffffffffffffffffffffffffffffffff16836040516113d190613e9e565b60006040518083038185875af1925050503d806000811461140e576040519150601f19603f3d011682016040523d82523d6000602084013e611413565b606091505b505090506000600460029054906101000a900473ffffffffffffffffffffffffffffffffffffffff1673ffffffffffffffffffffffffffffffffffffffff168360405161145f90613e9e565b60006040518083038185875af1925050503d806000811461149c576040519150601f19603f3d011682016040523d82523d6000602084013e6114a1565b606091505b505090508180156114af5750805b6114ee576040517f08c379a00000000000000000000000000000000000000000000000000000000081526004016114e590613eff565b60405180910390fd5b505050505050565b6114fe61313f565b80600460006101000a81548161ffff021916908361ffff16021790555050565b6060600660008381526020019081526020016000206003018054806020026020016040519081016040528092919081815260200182805480156115a657602002820191906000526020600020906000905b82829054906101000a900460ff1660ff168152602001906001019060208260000104928301926001038202915080841161156f5790505b50505050509050919050565b60066020528060005260406000206000915090508060000160009054906101000a900473ffffffffffffffffffffffffffffffffffffffff16908060000160149054906101000a900460ff16908060010154908060040154908060050154908060060154908060070154908060080160009054906101000a900460ff16905088565b600460029054906101000a900473ffffffffffffffffffffffffffffffffffffffff1681565b61166261313f565b61166c60006131bd565b565b600460009054906101000a900461ffff1681565b60008060009054906101000a900473ffffffffffffffffffffffffffffffffffffffff16905090565b6009602052816000526040600020602052806000526040600020600091509150508060000160009054906101000a900460ff16908060000160019054906101000a900460ff16908060010154905083565b61170461313f565b80600460026101000a81548173ffffffffffffffffffffffffffffffffffffffff021916908373ffffffffffffffffffffffffffffffffffffffff16021790555050565b60006006600083815260200190815260200160002060000160009054906101000a900473ffffffffffffffffffffffffffffffffffffffff169050919050565b8060008160ff16101580156117a1575060648160ff1611155b6117e0576040517f08c379a00000000000000000000000000000000000000000000000000000000081526004016117d790613c55565b60405180910390fd5b8261012c60066000838152602001908152602001600020600501546118059190613ba2565b421115611847576040517f08c379a000000000000000000000000000000000000000000000000000000000815260040161183e90613f6b565b60405180910390fd5b6006600085815260200190815260200160002060010154341461189f576040517f08c379a000000000000000000000000000000000000000000000000000000000815260040161189690613ffd565b60405180910390fd5b6006600085815260200190815260200160002060000160009054906101000a900473ffffffffffffffffffffffffffffffffffffffff1673ffffffffffffffffffffffffffffffffffffffff163373ffffffffffffffffffffffffffffffffffffffff161415611944576040517f08c379a000000000000000000000000000000000000000000000000000000000815260040161193b9061408f565b60405180910390fd5b600015156007600086815260200190815260200160002060003373ffffffffffffffffffffffffffffffffffffffff1673ffffffffffffffffffffffffffffffffffffffff16815260200190815260200160002060000160009054906101000a900460ff161515146119eb576040517f08c379a00000000000000000000000000000000000000000000000000000000081526004016119e2906140fb565b60405180910390fd5b600060066000868152602001908152602001600020600401541480611a3e575060066000858152602001908152602001600020600401546006600086815260200190815260200160002060020180549050105b611a7d576040517f08c379a0000000000000000000000000000000000000000000000000000000008152600401611a749061418d565b60405180910390fd5b34600660008681526020019081526020016000206006016000828254611aa39190613ba2565b9250508190555060066000858152602001908152602001600020600201339080600181540180825580915050600190039060005260206000200160009091909190916101000a81548173ffffffffffffffffffffffffffffffffffffffff021916908373ffffffffffffffffffffffffffffffffffffffff160217905550600660008581526020019081526020016000206003018390806001815401808255809150506001900390600052602060002090602091828204019190069091909190916101000a81548160ff021916908360ff160217905550826007600086815260200190815260200160002060003373ffffffffffffffffffffffffffffffffffffffff1673ffffffffffffffffffffffffffffffffffffffff16815260200190815260200160002060000160016101000a81548160ff021916908360ff16021790555060016007600086815260200190815260200160002060003373ffffffffffffffffffffffffffffffffffffffff1673ffffffffffffffffffffffffffffffffffffffff16815260200190815260200160002060000160006101000a81548160ff021916908315150217905550600860003373ffffffffffffffffffffffffffffffffffffffff1673ffffffffffffffffffffffffffffffffffffffff16815260200190815260200160002060000184908060018154018082558091505060019003906000526020600020016000909190919091505550505050565b60608060606000600660008681526020019081526020016000206002018054905067ffffffffffffffff811115611cfb57611cfa613b44565b5b604051908082528060200260200182016040528015611d295781602001602082028036833780820191505090505b5090506000600660008781526020019081526020016000206002018054905067ffffffffffffffff811115611d6157611d60613b44565b5b604051908082528060200260200182016040528015611d8f5781602001602082028036833780820191505090505b5090506000600660008881526020019081526020016000206002018054905067ffffffffffffffff811115611dc757611dc6613b44565b5b604051908082528060200260200182016040528015611df55781602001602082028036833780820191505090505b50905060005b600660008981526020019081526020016000206002018054905081101561209d57600660008981526020019081526020016000206003018181548110611e4457611e43613b73565b5b90600052602060002090602091828204019190069054906101000a900460ff1660ff16848281518110611e7a57611e79613b73565b5b602002602001018181525050600660008981526020019081526020016000206002018181548110611eae57611ead613b73565b5b9060005260206000200160009054906101000a900473ffffffffffffffffffffffffffffffffffffffff16828281518110611eec57611eeb613b73565b5b602002602001019073ffffffffffffffffffffffffffffffffffffffff16908173ffffffffffffffffffffffffffffffffffffffff168152505060008060005b600660008c8152602001908152602001600020600a018054905081101561200857848481518110611f6057611f5f613b73565b5b602002602001015173ffffffffffffffffffffffffffffffffffffffff16600660008d8152602001908152602001600020600a018281548110611fa657611fa5613b73565b5b9060005260206000200160009054906101000a900473ffffffffffffffffffffffffffffffffffffffff1673ffffffffffffffffffffffffffffffffffffffff161415611ff557600192508091505b808061200090613aa1565b915050611f2c565b50811561206657600660008b8152602001908152602001600020600901818154811061203757612036613b73565b5b906000526020600020015485848151811061205557612054613b73565b5b602002602001018181525050612088565b600085848151811061207b5761207a613b73565b5b6020026020010181815250505b5050808061209590613aa1565b915050611dfb565b508181849550955095505050509193909250565b600015156006600083815260200190815260200160002060000160149054906101000a900460ff1615151461211b576040517f08c379a0000000000000000000000000000000000000000000000000000000008152600401612112906141f9565b60405180910390fd5b61012c600660008381526020019081526020016000206005015461213f9190613ba2565b4211612180576040517f08c379a00000000000000000000000000000000000000000000000000000000081526004016121779061428b565b60405180910390fd5b600115156007600083815260200190815260200160002060003373ffffffffffffffffffffffffffffffffffffffff1673ffffffffffffffffffffffffffffffffffffffff16815260200190815260200160002060000160009054906101000a900460ff16151514612227576040517f08c379a000000000000000000000000000000000000000000000000000000000815260040161221e9061431d565b60405180910390fd5b6001600660008381526020019081526020016000206002018054905014156123f2576001600960003373ffffffffffffffffffffffffffffffffffffffff1673ffffffffffffffffffffffffffffffffffffffff168152602001908152602001600020600083815260200190815260200160002060000160006101000a81548160ff0219169083151502179055506006600082815260200190815260200160002060060154600960003373ffffffffffffffffffffffffffffffffffffffff1673ffffffffffffffffffffffffffffffffffffffff16815260200190815260200160002060008381526020019081526020016000206001018190555060066000828152602001908152602001600020600a01339080600181540180825580915050600190039060005260206000200160009091909190916101000a81548173ffffffffffffffffffffffffffffffffffffffff021916908373ffffffffffffffffffffffffffffffffffffffff1602179055506006600082815260200190815260200160002060090160066000838152602001908152602001600020600601549080600181540180825580915050600190039060005260206000200160009091909190915055613017565b60006123fc610516565b9050806006600084815260200190815260200160002060080160006101000a81548160ff021916908360ff1602179055506000600660008481526020019081526020016000206002018054905067ffffffffffffffff81111561246257612461613b44565b5b6040519080825280602002602001820160405280156124905781602001602082028036833780820191505090505b5090506000600660008581526020019081526020016000206003018054905067ffffffffffffffff8111156124c8576124c7613b44565b5b6040519080825280602002602001820160405280156124f65781602001602082028036833780820191505090505b5090506006600085815260200190815260200160002060020180548060200260200160405190810160405280929190818152602001828054801561258f57602002820191906000526020600020905b8160009054906101000a900473ffffffffffffffffffffffffffffffffffffffff1673ffffffffffffffffffffffffffffffffffffffff1681526020019060010190808311612545575b505050505091506006600085815260200190815260200160002060030180548060200260200160405190810160405280929190818152602001828054801561261c57602002820191906000526020600020906000905b82829054906101000a900460ff1660ff16815260200190600101906020826000010492830192600103820291508084116125e55790505b505050505090506000815167ffffffffffffffff8111156126405761263f613b44565b5b60405190808252806020026020018201604052801561266e5781602001602082028036833780820191505090505b50905060005b83518110156127af578460ff1683828151811061269457612693613b73565b5b602002602001015160ff1611156126f757848382815181106126b9576126b8613b73565b5b60200260200101516126cb919061433d565b8282815181106126de576126dd613b73565b5b602002602001019060ff16908160ff168152505061279c565b8460ff1683828151811061270e5761270d613b73565b5b602002602001015160ff1610156127715782818151811061273257612731613b73565b5b602002602001015185612745919061433d565b82828151811061275857612757613b73565b5b602002602001019060ff16908160ff168152505061279b565b600082828151811061278657612785613b73565b5b602002602001019060ff16908160ff16815250505b5b80806127a790613aa1565b915050612674565b506000600382516127c09190613e3c565b905060008114156127d057600190505b60008167ffffffffffffffff8111156127ec576127eb613b44565b5b60405190808252806020026020018201604052801561281a5781602001602082028036833780820191505090505b50905060008267ffffffffffffffff81111561283957612838613b44565b5b6040519080825280602002602001820160405280156128675781602001602082028036833780820191505090505b50905060005b838110156129c657600060649050600080600090505b88518160ff1610156128f1578260ff16888260ff16815181106128a9576128a8613b73565b5b602002602001015160ff1610156128de57809150878160ff16815181106128d3576128d2613b73565b5b602002602001015192505b80806128e990614371565b915050612883565b506064878260ff168151811061290a57612909613b73565b5b602002602001019060ff16908160ff16815250508085848151811061293257612931613b73565b5b602002602001019060ff16908160ff1681525050888160ff168151811061295c5761295b613b73565b5b602002602001015184848151811061297757612976613b73565b5b602002602001019073ffffffffffffffffffffffffffffffffffffffff16908173ffffffffffffffffffffffffffffffffffffffff1681525050505080806129be90613aa1565b91505061286d565b506001831115612e19576000600660008a81526020019081526020016000206006015490506000600390506000600290505b8351811015612a2f576001600283612a10919061439b565b612a1a91906143d6565b91508080612a2790613aa1565b9150506129f8565b5060008160ff1683612a419190613e3c565b9050600060018551612a539190613d30565b90505b6000811115612c47578160096000878481518110612a7757612a76613b73565b5b602002602001015173ffffffffffffffffffffffffffffffffffffffff1673ffffffffffffffffffffffffffffffffffffffff16815260200190815260200160002060008e815260200190815260200160002060010181905550600160096000878481518110612aea57612ae9613b73565b5b602002602001015173ffffffffffffffffffffffffffffffffffffffff1673ffffffffffffffffffffffffffffffffffffffff16815260200190815260200160002060008e815260200190815260200160002060000160006101000a81548160ff021916908315150217905550600660008d8152602001908152602001600020600901829080600181540180825580915050600190039060005260206000200160009091909190915055600660008d8152602001908152602001600020600a01858281518110612bbd57612bbc613b73565b5b60200260200101519080600181540180825580915050600190039060005260206000200160009091909190916101000a81548173ffffffffffffffffffffffffffffffffffffffff021916908373ffffffffffffffffffffffffffffffffffffffff160217905550600282612c329190613aea565b91508080612c3f9061440d565b915050612a56565b50806009600086600081518110612c6157612c60613b73565b5b602002602001015173ffffffffffffffffffffffffffffffffffffffff1673ffffffffffffffffffffffffffffffffffffffff16815260200190815260200160002060008d81526020019081526020016000206001018190555060016009600086600081518110612cd557612cd4613b73565b5b602002602001015173ffffffffffffffffffffffffffffffffffffffff1673ffffffffffffffffffffffffffffffffffffffff16815260200190815260200160002060008d815260200190815260200160002060000160006101000a81548160ff021916908315150217905550600660008c8152602001908152602001600020600901819080600181540180825580915050600190039060005260206000200160009091909190915055600660008c8152602001908152602001600020600a0184600081518110612da957612da8613b73565b5b60200260200101519080600181540180825580915050600190039060005260206000200160009091909190916101000a81548173ffffffffffffffffffffffffffffffffffffffff021916908373ffffffffffffffffffffffffffffffffffffffff16021790555050505061300f565b60016009600083600081518110612e3357612e32613b73565b5b602002602001015173ffffffffffffffffffffffffffffffffffffffff1673ffffffffffffffffffffffffffffffffffffffff16815260200190815260200160002060008a815260200190815260200160002060000160006101000a81548160ff02191690831515021790555060066000898152602001908152602001600020600601546009600083600081518110612ecf57612ece613b73565b5b602002602001015173ffffffffffffffffffffffffffffffffffffffff1673ffffffffffffffffffffffffffffffffffffffff16815260200190815260200160002060008a81526020019081526020016000206001018190555060066000898152602001908152602001600020600901600660008a815260200190815260200160002060060154908060018154018082558091505060019003906000526020600020016000909190919091505560066000898152602001908152602001600020600a0181600081518110612fa657612fa5613b73565b5b60200260200101519080600181540180825580915050600190039060005260206000200160009091909190916101000a81548173ffffffffffffffffffffffffffffffffffffffff021916908373ffffffffffffffffffffffffffffffffffffffff1602179055505b505050505050505b60016006600083815260200190815260200160002060000160146101000a81548160ff0219169083151502179055508060038190555050565b60006007600084815260200190815260200160002060008373ffffffffffffffffffffffffffffffffffffffff1673ffffffffffffffffffffffffffffffffffffffff16815260200190815260200160002060000160019054906101000a900460ff16905092915050565b6130c361313f565b600073ffffffffffffffffffffffffffffffffffffffff168173ffffffffffffffffffffffffffffffffffffffff161415613133576040517f08c379a000000000000000000000000000000000000000000000000000000000815260040161312a906144a9565b60405180910390fd5b61313c816131bd565b50565b613147613281565b73ffffffffffffffffffffffffffffffffffffffff16613165611682565b73ffffffffffffffffffffffffffffffffffffffff16146131bb576040517f08c379a00000000000000000000000000000000000000000000000000000000081526004016131b290614515565b60405180910390fd5b565b60008060009054906101000a900473ffffffffffffffffffffffffffffffffffffffff169050816000806101000a81548173ffffffffffffffffffffffffffffffffffffffff021916908373ffffffffffffffffffffffffffffffffffffffff1602179055508173ffffffffffffffffffffffffffffffffffffffff168173ffffffffffffffffffffffffffffffffffffffff167f8be0079c531659141344cd1fd0a4f28419497f9722a3daafe3b4186f6b6457e060405160405180910390a35050565b600033905090565b600060ff82169050919050565b61329f81613289565b82525050565b60006020820190506132ba6000830184613296565b92915050565b600080fd5b600073ffffffffffffffffffffffffffffffffffffffff82169050919050565b60006132f0826132c5565b9050919050565b613300816132e5565b811461330b57600080fd5b50565b60008135905061331d816132f7565b92915050565b600060208284031215613339576133386132c0565b5b60006133478482850161330e565b91505092915050565b600081519050919050565b600082825260208201905092915050565b6000819050602082019050919050565b6000819050919050565b61338f8161337c565b82525050565b60006133a18383613386565b60208301905092915050565b6000602082019050919050565b60006133c582613350565b6133cf818561335b565b93506133da8361336c565b8060005b8381101561340b5781516133f28882613395565b97506133fd836133ad565b9250506001810190506133de565b5085935050505092915050565b6000602082019050818103600083015261343281846133ba565b905092915050565b61344381613289565b811461344e57600080fd5b50565b6000813590506134608161343a565b92915050565b6000806040838503121561347d5761347c6132c0565b5b600061348b85828601613451565b925050602061349c85828601613451565b9150509250929050565b6134af8161337c565b81146134ba57600080fd5b50565b6000813590506134cc816134a6565b92915050565b600080604083850312156134e9576134e86132c0565b5b60006134f7858286016134bd565b92505060206135088582860161330e565b9150509250929050565b60008115159050919050565b61352781613512565b82525050565b6000604082019050613542600083018561351e565b61354f6020830184613296565b9392505050565b60006020828403121561356c5761356b6132c0565b5b600061357a848285016134bd565b91505092915050565b600061ffff82169050919050565b61359a81613583565b81146135a557600080fd5b50565b6000813590506135b781613591565b92915050565b6000602082840312156135d3576135d26132c0565b5b60006135e1848285016135a8565b91505092915050565b600081519050919050565b600082825260208201905092915050565b6000819050602082019050919050565b61361f81613289565b82525050565b60006136318383613616565b60208301905092915050565b6000602082019050919050565b6000613655826135ea565b61365f81856135f5565b935061366a83613606565b8060005b8381101561369b5781516136828882613625565b975061368d8361363d565b92505060018101905061366e565b5085935050505092915050565b600060208201905081810360008301526136c2818461364a565b905092915050565b6136d3816132e5565b82525050565b6136e28161337c565b82525050565b6000610100820190506136fe600083018b6136ca565b61370b602083018a61351e565b61371860408301896136d9565b61372560608301886136d9565b61373260808301876136d9565b61373f60a08301866136d9565b61374c60c08301856136d9565b61375960e0830184613296565b9998505050505050505050565b600060208201905061377b60008301846136ca565b92915050565b61378a81613583565b82525050565b60006020820190506137a56000830184613781565b92915050565b600080604083850312156137c2576137c16132c0565b5b60006137d08582860161330e565b92505060206137e1858286016134bd565b9150509250929050565b6000606082019050613800600083018661351e565b61380d602083018561351e565b61381a60408301846136d9565b949350505050565b60008060408385031215613839576138386132c0565b5b6000613847858286016134bd565b925050602061385885828601613451565b9150509250929050565b600081519050919050565b600082825260208201905092915050565b6000819050602082019050919050565b613897816132e5565b82525050565b60006138a9838361388e565b60208301905092915050565b6000602082019050919050565b60006138cd82613862565b6138d7818561386d565b93506138e28361387e565b8060005b838110156139135781516138fa888261389d565b9750613905836138b5565b9250506001810190506138e6565b5085935050505092915050565b6000606082019050818103600083015261393a81866133ba565b9050818103602083015261394e81856138c2565b9050818103604083015261396281846133ba565b9050949350505050565b6000819050919050565b6139876139828261337c565b61396c565b82525050565b60008160601b9050919050565b60006139a58261398d565b9050919050565b60006139b78261399a565b9050919050565b6139cf6139ca826132e5565b6139ac565b82525050565b60006139e18286613976565b6020820191506139f182856139be565b601482019150613a018284613976565b602082019150819050949350505050565b7f4e487b7100000000000000000000000000000000000000000000000000000000600052601260045260246000fd5b6000613a4c8261337c565b9150613a578361337c565b925082613a6757613a66613a12565b5b828206905092915050565b7f4e487b7100000000000000000000000000000000000000000000000000000000600052601160045260246000fd5b6000613aac8261337c565b91507fffffffffffffffffffffffffffffffffffffffffffffffffffffffffffffffff821415613adf57613ade613a72565b5b600182019050919050565b6000613af58261337c565b9150613b008361337c565b9250817fffffffffffffffffffffffffffffffffffffffffffffffffffffffffffffffff0483118215151615613b3957613b38613a72565b5b828202905092915050565b7f4e487b7100000000000000000000000000000000000000000000000000000000600052604160045260246000fd5b7f4e487b7100000000000000000000000000000000000000000000000000000000600052603260045260246000fd5b6000613bad8261337c565b9150613bb88361337c565b9250827fffffffffffffffffffffffffffffffffffffffffffffffffffffffffffffffff03821115613bed57613bec613a72565b5b828201905092915050565b600082825260208201905092915050565b7f43686f6f7365206e756d626572206265747765656e203020616e642031303000600082015250565b6000613c3f601f83613bf8565b9150613c4a82613c09565b602082019050919050565b60006020820190508181036000830152613c6e81613c32565b9050919050565b7f467265652067616d657320617265206e6f7420737570706f727465642068657260008201527f6521000000000000000000000000000000000000000000000000000000000000602082015250565b6000613cd1602283613bf8565b9150613cdc82613c75565b604082019050919050565b60006020820190508181036000830152613d0081613cc4565b9050919050565b6000604082019050613d1c60008301856136d9565b613d2960208301846136d9565b9392505050565b6000613d3b8261337c565b9150613d468361337c565b925082821015613d5957613d58613a72565b5b828203905092915050565b7f596f7520617265206e6f7420612077696e6e6572206f66207468652067616d65600082015250565b6000613d9a602083613bf8565b9150613da582613d64565b602082019050919050565b60006020820190508181036000830152613dc981613d8d565b9050919050565b7f5072697a6520697320636c61696d656420616c72656164790000000000000000600082015250565b6000613e06601883613bf8565b9150613e1182613dd0565b602082019050919050565b60006020820190508181036000830152613e3581613df9565b9050919050565b6000613e478261337c565b9150613e528361337c565b925082613e6257613e61613a12565b5b828204905092915050565b600081905092915050565b50565b6000613e88600083613e6d565b9150613e9382613e78565b600082019050919050565b6000613ea982613e7b565b9150819050919050565b7f5472616e7366657273206e6f7420737563636573730000000000000000000000600082015250565b6000613ee9601583613bf8565b9150613ef482613eb3565b602082019050919050565b60006020820190508181036000830152613f1881613edc565b9050919050565b7f5468652067616d652069732066696e6973686564000000000000000000000000600082015250565b6000613f55601483613bf8565b9150613f6082613f1f565b602082019050919050565b60006020820190508181036000830152613f8481613f48565b9050919050565b7f56616c7565206f6620746865207472616e73616374696f6e2073686f756c642060008201527f626520657175616c20746f207468652067616d65000000000000000000000000602082015250565b6000613fe7603483613bf8565b9150613ff282613f8b565b604082019050919050565b6000602082019050818103600083015261401681613fda565b9050919050565b7f4f776e657220697320616c726561647920696e207061727469636970616e747360008201527f206c697374000000000000000000000000000000000000000000000000000000602082015250565b6000614079602583613bf8565b91506140848261401d565b604082019050919050565b600060208201905081810360008301526140a88161406c565b9050919050565b7f596f752063616e206e6f74206a6f696e20747769636500000000000000000000600082015250565b60006140e5601683613bf8565b91506140f0826140af565b602082019050919050565b60006020820190508181036000830152614114816140d8565b9050919050565b7f5061727469636970616e7473206c696d697420686173206265656e207265616360008201527f6865640000000000000000000000000000000000000000000000000000000000602082015250565b6000614177602383613bf8565b91506141828261411b565b604082019050919050565b600060208201905081810360008301526141a68161416a565b9050919050565b7f5468652067616d652069732066696e697368656420616c726561647900000000600082015250565b60006141e3601c83613bf8565b91506141ee826141ad565b602082019050919050565b60006020820190508181036000830152614212816141d6565b9050919050565b7f596f752063616e2066696e69736820612067616d65206f6e6c7920616674657260008201527f20657861637420706572696f6400000000000000000000000000000000000000602082015250565b6000614275602d83613bf8565b915061428082614219565b604082019050919050565b600060208201905081810360008301526142a481614268565b9050919050565b7f4f6e6c79207061727469636970616e74732063616e2066696e6973682061206760008201527f616d650000000000000000000000000000000000000000000000000000000000602082015250565b6000614307602383613bf8565b9150614312826142ab565b604082019050919050565b60006020820190508181036000830152614336816142fa565b9050919050565b600061434882613289565b915061435383613289565b92508282101561436657614365613a72565b5b828203905092915050565b600061437c82613289565b915060ff8214156143905761438f613a72565b5b600182019050919050565b60006143a682613289565b91506143b183613289565b92508160ff04831182151516156143cb576143ca613a72565b5b828202905092915050565b60006143e182613289565b91506143ec83613289565b92508260ff0382111561440257614401613a72565b5b828201905092915050565b60006144188261337c565b9150600082141561442c5761442b613a72565b5b600182039050919050565b7f4f776e61626c653a206e6577206f776e657220697320746865207a65726f206160008201527f6464726573730000000000000000000000000000000000000000000000000000602082015250565b6000614493602683613bf8565b915061449e82614437565b604082019050919050565b600060208201905081810360008301526144c281614486565b9050919050565b7f4f776e61626c653a2063616c6c6572206973206e6f7420746865206f776e6572600082015250565b60006144ff602083613bf8565b915061450a826144c9565b602082019050919050565b6000602082019050818103600083015261452e816144f2565b905091905056fea2646970667358221220782a7684ab0d69c10ac86ccc5836fc21fecaa9c3a5d57fe8fb23160c01745a2f64736f6c634300080b0033",
  "linkReferences": {},
  "deployedLinkReferences": {}
}