{
  "_format": "hh-sol-artifact-1",
  "contractName": "FairHighlow",
  "sourceName": "contracts/FairHighlow.sol",
  "abi": [
    {
      "inputs": [
        {
          "internalType": "address",
          "name": "_wallet",
          "type": "address"
        },
        {
          "internalType": "uint16",
          "name": "_feePercent",
          "type": "uint16"
        },
        {
          "internalType": "uint16",
          "name": "_timeToFinish",
          "type": "uint16"
        },
        {
          "internalType": "uint16",
          "name": "_userGamesToReturnNumber",
          "type": "uint16"
        }
      ],
      "stateMutability": "nonpayable",
      "type": "constructor"
    },
    {
      "anonymous": false,
      "inputs": [
        {
          "indexed": false,
          "internalType": "uint256",
          "name": "gameId",
          "type": "uint256"
        },
        {
          "indexed": false,
          "internalType": "uint256",
          "name": "bid",
          "type": "uint256"
        },
        {
          "indexed": false,
          "internalType": "address",
          "name": "token",
          "type": "address"
        }
      ],
      "name": "CreateGame",
      "type": "event"
    },
    {
      "anonymous": false,
      "inputs": [
        {
          "indexed": false,
          "internalType": "uint256",
          "name": "gameId",
          "type": "uint256"
        },
        {
          "indexed": false,
          "internalType": "address[]",
          "name": "winners",
          "type": "address[]"
        },
        {
          "indexed": false,
          "internalType": "uint256[]",
          "name": "prizes",
          "type": "uint256[]"
        },
        {
          "indexed": false,
          "internalType": "address",
          "name": "token",
          "type": "address"
        }
      ],
      "name": "FinishGame",
      "type": "event"
    },
    {
      "anonymous": false,
      "inputs": [
        {
          "indexed": true,
          "internalType": "address",
          "name": "previousOwner",
          "type": "address"
        },
        {
          "indexed": true,
          "internalType": "address",
          "name": "newOwner",
          "type": "address"
        }
      ],
      "name": "OwnershipTransferred",
      "type": "event"
    },
    {
      "inputs": [
        {
          "internalType": "uint256",
          "name": "",
          "type": "uint256"
        },
        {
          "internalType": "address",
          "name": "",
          "type": "address"
        }
      ],
      "name": "biddersList",
      "outputs": [
        {
          "internalType": "bool",
          "name": "participatedFlag",
          "type": "bool"
        },
        {
          "internalType": "uint8",
          "name": "number",
          "type": "uint8"
        }
      ],
      "stateMutability": "view",
      "type": "function"
    },
    {
      "inputs": [
        {
          "internalType": "uint8",
          "name": "_number",
          "type": "uint8"
        },
        {
          "internalType": "uint8",
          "name": "_limit",
          "type": "uint8"
        },
        {
          "internalType": "uint256",
          "name": "amount",
          "type": "uint256"
        },
        {
          "internalType": "address",
          "name": "token",
          "type": "address"
        }
      ],
      "name": "createGame",
      "outputs": [],
      "stateMutability": "nonpayable",
      "type": "function"
    },
    {
      "inputs": [],
      "name": "feePercent",
      "outputs": [
        {
          "internalType": "uint16",
          "name": "",
          "type": "uint16"
        }
      ],
      "stateMutability": "view",
      "type": "function"
    },
    {
      "inputs": [
        {
          "internalType": "uint256",
          "name": "",
          "type": "uint256"
        }
      ],
      "name": "gamesList",
      "outputs": [
        {
          "internalType": "address",
          "name": "owner",
          "type": "address"
        },
        {
          "internalType": "bool",
          "name": "isFinished",
          "type": "bool"
        },
        {
          "internalType": "uint256",
          "name": "bid",
          "type": "uint256"
        },
        {
          "internalType": "uint256",
          "name": "participantsLimit",
          "type": "uint256"
        },
        {
          "internalType": "uint256",
          "name": "createdTimestamp",
          "type": "uint256"
        },
        {
          "internalType": "uint256",
          "name": "pool",
          "type": "uint256"
        },
        {
          "internalType": "uint256",
          "name": "individualPrize",
          "type": "uint256"
        },
        {
          "internalType": "uint8",
          "name": "luckyNumber",
          "type": "uint8"
        },
        {
          "internalType": "address",
          "name": "token",
          "type": "address"
        }
      ],
      "stateMutability": "view",
      "type": "function"
    },
    {
      "inputs": [],
      "name": "generateRandom",
      "outputs": [
        {
          "internalType": "uint8",
          "name": "",
          "type": "uint8"
        }
      ],
      "stateMutability": "nonpayable",
      "type": "function"
    },
    {
      "inputs": [],
      "name": "getActualGames",
      "outputs": [
        {
          "internalType": "uint256[]",
          "name": "",
          "type": "uint256[]"
        }
      ],
      "stateMutability": "view",
      "type": "function"
    },
    {
      "inputs": [
        {
          "internalType": "uint256",
          "name": "_gameId",
          "type": "uint256"
        },
        {
          "internalType": "address",
          "name": "adr",
          "type": "address"
        }
      ],
      "name": "getBet",
      "outputs": [
        {
          "internalType": "uint8",
          "name": "",
          "type": "uint8"
        }
      ],
      "stateMutability": "view",
      "type": "function"
    },
    {
      "inputs": [
        {
          "internalType": "uint256",
          "name": "_gameId",
          "type": "uint256"
        }
      ],
      "name": "getNumbers",
      "outputs": [
        {
          "internalType": "uint8[]",
          "name": "",
          "type": "uint8[]"
        }
      ],
      "stateMutability": "view",
      "type": "function"
    },
    {
      "inputs": [
        {
          "internalType": "uint256",
          "name": "_gameId",
          "type": "uint256"
        }
      ],
      "name": "getOwner",
      "outputs": [
        {
          "internalType": "address",
          "name": "",
          "type": "address"
        }
      ],
      "stateMutability": "view",
      "type": "function"
    },
    {
      "inputs": [
        {
          "internalType": "uint256",
          "name": "_gameId",
          "type": "uint256"
        }
      ],
      "name": "getPrizes",
      "outputs": [
        {
          "internalType": "uint256[]",
          "name": "",
          "type": "uint256[]"
        },
        {
          "internalType": "address[]",
          "name": "",
          "type": "address[]"
        },
        {
          "internalType": "uint256[]",
          "name": "",
          "type": "uint256[]"
        }
      ],
      "stateMutability": "view",
      "type": "function"
    },
    {
      "inputs": [
        {
          "internalType": "address",
          "name": "_user",
          "type": "address"
        }
      ],
      "name": "getUserGames",
      "outputs": [
        {
          "internalType": "uint256[]",
          "name": "",
          "type": "uint256[]"
        }
      ],
      "stateMutability": "view",
      "type": "function"
    },
    {
      "inputs": [
        {
          "internalType": "uint16",
          "name": "_feePercent",
          "type": "uint16"
        }
      ],
      "name": "newFeePercent",
      "outputs": [],
      "stateMutability": "nonpayable",
      "type": "function"
    },
    {
      "inputs": [
        {
          "internalType": "uint16",
          "name": "_timeToFinish",
          "type": "uint16"
        }
      ],
      "name": "newTimeToFinish",
      "outputs": [],
      "stateMutability": "nonpayable",
      "type": "function"
    },
    {
      "inputs": [
        {
          "internalType": "uint16",
          "name": "_userGamesToReturnNumber",
          "type": "uint16"
        }
      ],
      "name": "newUserGamesToReturnNumber",
      "outputs": [],
      "stateMutability": "nonpayable",
      "type": "function"
    },
    {
      "inputs": [
        {
          "internalType": "address",
          "name": "_wallet",
          "type": "address"
        }
      ],
      "name": "newWallet",
      "outputs": [],
      "stateMutability": "nonpayable",
      "type": "function"
    },
    {
      "inputs": [],
      "name": "owner",
      "outputs": [
        {
          "internalType": "address",
          "name": "",
          "type": "address"
        }
      ],
      "stateMutability": "view",
      "type": "function"
    },
    {
      "inputs": [
        {
          "internalType": "address",
          "name": "",
          "type": "address"
        },
        {
          "internalType": "uint256",
          "name": "",
          "type": "uint256"
        }
      ],
      "name": "prizeList",
      "outputs": [
        {
          "internalType": "bool",
          "name": "isWinner",
          "type": "bool"
        },
        {
          "internalType": "bool",
          "name": "isClaimed",
          "type": "bool"
        },
        {
          "internalType": "uint256",
          "name": "prize",
          "type": "uint256"
        }
      ],
      "stateMutability": "view",
      "type": "function"
    },
    {
      "inputs": [],
      "name": "renounceOwnership",
      "outputs": [],
      "stateMutability": "nonpayable",
      "type": "function"
    },
    {
      "inputs": [],
      "name": "timeToFinish",
      "outputs": [
        {
          "internalType": "uint16",
          "name": "",
          "type": "uint16"
        }
      ],
      "stateMutability": "view",
      "type": "function"
    },
    {
      "inputs": [
        {
          "internalType": "address",
          "name": "newOwner",
          "type": "address"
        }
      ],
      "name": "transferOwnership",
      "outputs": [],
      "stateMutability": "nonpayable",
      "type": "function"
    },
    {
      "inputs": [],
      "name": "userGamesToReturnNumber",
      "outputs": [
        {
          "internalType": "uint16",
          "name": "",
          "type": "uint16"
        }
      ],
      "stateMutability": "view",
      "type": "function"
    },
    {
      "inputs": [],
      "name": "wallet",
      "outputs": [
        {
          "internalType": "address",
          "name": "",
          "type": "address"
        }
      ],
      "stateMutability": "view",
      "type": "function"
    }
  ],
  "bytecode": "0x60806040523480156200001157600080fd5b506040516200321e3803806200321e8339818101604052810190620000379190620003bf565b620000576200004b6200024a60201b60201c565b6200025260201b60201c565b600073ffffffffffffffffffffffffffffffffffffffff168473ffffffffffffffffffffffffffffffffffffffff1603620000c9576040517f08c379a0000000000000000000000000000000000000000000000000000000008152600401620000c09062000492565b60405180910390fd5b6127108361ffff161062000114576040517f08c379a00000000000000000000000000000000000000000000000000000000081526004016200010b9062000504565b60405180910390fd5b60008261ffff16036200015e576040517f08c379a0000000000000000000000000000000000000000000000000000000008152600401620001559062000576565b60405180910390fd5b601e8161ffff161015620001a9576040517f08c379a0000000000000000000000000000000000000000000000000000000008152600401620001a0906200060e565b60405180910390fd5b83600460066101000a81548173ffffffffffffffffffffffffffffffffffffffff021916908373ffffffffffffffffffffffffffffffffffffffff16021790555082600460006101000a81548161ffff021916908361ffff16021790555081600460026101000a81548161ffff021916908361ffff160217905550806004806101000a81548161ffff021916908361ffff1602179055505050505062000630565b600033905090565b60008060009054906101000a900473ffffffffffffffffffffffffffffffffffffffff169050816000806101000a81548173ffffffffffffffffffffffffffffffffffffffff021916908373ffffffffffffffffffffffffffffffffffffffff1602179055508173ffffffffffffffffffffffffffffffffffffffff168173ffffffffffffffffffffffffffffffffffffffff167f8be0079c531659141344cd1fd0a4f28419497f9722a3daafe3b4186f6b6457e060405160405180910390a35050565b600080fd5b600073ffffffffffffffffffffffffffffffffffffffff82169050919050565b600062000348826200031b565b9050919050565b6200035a816200033b565b81146200036657600080fd5b50565b6000815190506200037a816200034f565b92915050565b600061ffff82169050919050565b620003998162000380565b8114620003a557600080fd5b50565b600081519050620003b9816200038e565b92915050565b60008060008060808587031215620003dc57620003db62000316565b5b6000620003ec8782880162000369565b9450506020620003ff87828801620003a8565b93505060406200041287828801620003a8565b92505060606200042587828801620003a8565b91505092959194509250565b600082825260208201905092915050565b7f57616c6c65742069732061646472657373283029000000000000000000000000600082015250565b60006200047a60148362000431565b9150620004878262000442565b602082019050919050565b60006020820190508181036000830152620004ad816200046b565b9050919050565b7f4665652070657263656e74206973206d6f7265207468616e2031303030300000600082015250565b6000620004ec601e8362000431565b9150620004f982620004b4565b602082019050919050565b600060208201905081810360008301526200051f81620004dd565b9050919050565b7f54696d6520746f2066696e69736820697320657175616c20746f203000000000600082015250565b60006200055e601c8362000431565b91506200056b8262000526565b602082019050919050565b6000602082019050818103600083015262000591816200054f565b9050919050565b7f5573657247616d6573546f52657475726e4e756d626572206861766520746f2060008201527f6265206d6f7265207468616e2033300000000000000000000000000000000000602082015250565b6000620005f6602f8362000431565b9150620006038262000598565b604082019050919050565b600060208201905081810360008301526200062981620005e7565b9050919050565b612bde80620006406000396000f3fe608060405234801561001057600080fd5b50600436106101425760003560e01c8063715018a6116100b8578063bda6688f1161007c578063bda6688f14610372578063c41a360a1461038e578063cc307795146103be578063e0950ddf146103f0578063e8d95ad314610420578063f2fde38b1461043c57610142565b8063715018a6146102de5780637fd6f15c146102e85780638da5cb5b146103065780639b052531146103245780639ff0f4a91461034057610142565b8063493ab0581161010a578063493ab058146102025780634a7b26ae1461021e5780634bb0826f1461024e5780635054c0a31461026a578063521eb273146102a2578063631b02bd146102c057610142565b806302e4af0114610147578063120aace61461016557806313bf83c51461019557806316466fe6146101b3578063208970d5146101d1575b600080fd5b61014f610458565b60405161015c9190611d59565b60405180910390f35b61017f600480360381019061017a9190611dd7565b6104b8565b60405161018c9190611ecc565b60405180910390f35b61019d610b53565b6040516101aa9190611f0b565b60405180910390f35b6101bb610b67565b6040516101c89190611ecc565b60405180910390f35b6101eb60048036038101906101e69190611f52565b610d6a565b6040516101f9929190611fad565b60405180910390f35b61021c60048036038101906102179190612002565b610db5565b005b6102386004803603810190610233919061202f565b610e25565b604051610245919061211a565b60405180910390f35b61026860048036038101906102639190612002565b610eb9565b005b610284600480360381019061027f919061202f565b610f28565b6040516102999998979695949392919061215a565b60405180910390f35b6102aa610fd0565b6040516102b791906121e7565b60405180910390f35b6102c8610ff6565b6040516102d59190611f0b565b60405180910390f35b6102e6611008565b005b6102f061101c565b6040516102fd9190611f0b565b60405180910390f35b61030e611030565b60405161031b91906121e7565b60405180910390f35b61033e6004803603810190610339919061222e565b611059565b005b61035a60048036038101906103559190612295565b61155b565b604051610369939291906122d5565b60405180910390f35b61038c60048036038101906103879190611dd7565b6115ac565b005b6103a860048036038101906103a3919061202f565b611667565b6040516103b591906121e7565b60405180910390f35b6103d860048036038101906103d3919061202f565b6116a7565b6040516103e7939291906123ca565b60405180910390f35b61040a60048036038101906104059190611f52565b611a96565b6040516104179190611d59565b60405180910390f35b61043a60048036038101906104359190612002565b611b01565b005b61045660048036038101906104519190611dd7565b611b70565b005b600080606542336002546040516020016104749392919061247f565b6040516020818303038152906040528051906020012060001c61049791906124eb565b9050600260008154809291906104ac9061254b565b91905055508091505090565b60606000806000601e600860008773ffffffffffffffffffffffffffffffffffffffff1673ffffffffffffffffffffffffffffffffffffffff16815260200190815260200160002060000180549050106105db5760048054906101000a900461ffff1661ffff16600860008773ffffffffffffffffffffffffffffffffffffffff1673ffffffffffffffffffffffffffffffffffffffff1681526020019081526020016000206000018054905061056f9190612593565b600860048054906101000a900461ffff1661058a91906125c7565b61ffff1667ffffffffffffffff8111156105a7576105a6612604565b5b6040519080825280602002602001820160405280156105d55781602001602082028036833780820191505090505b50610677565b600060088060008873ffffffffffffffffffffffffffffffffffffffff1673ffffffffffffffffffffffffffffffffffffffff1681526020019081526020016000206000018054905061062e9190612633565b67ffffffffffffffff81111561064757610646612604565b5b6040519080825280602002602001820160405280156106755781602001602082028036833780820191505090505b505b915091505b600860008673ffffffffffffffffffffffffffffffffffffffff1673ffffffffffffffffffffffffffffffffffffffff16815260200190815260200160002060000180549050821015610b48576000600860008773ffffffffffffffffffffffffffffffffffffffff1673ffffffffffffffffffffffffffffffffffffffff168152602001908152602001600020600001838154811061071f5761071e612675565b5b90600052602060002001549050600660008281526020019081526020016000206001015482858151811061075657610755612675565b5b60200260200101818152505060066000828152602001908152602001600020600501548260018661078791906126a4565b8151811061079857610797612675565b5b6020026020010181815250506006600082815260200190815260200160002060020180549050826002866107cc91906126a4565b815181106107dd576107dc612675565b5b60200260200101818152505080826004866107f891906126a4565b8151811061080957610808612675565b5b60200260200101818152505060066000828152602001908152602001600020600601548260058661083a91906126a4565b8151811061084b5761084a612675565b5b6020026020010181815250506006600082815260200190815260200160002060080160009054906101000a900460ff1660ff168260068661088c91906126a4565b8151811061089d5761089c612675565b5b602002602001018181525050600960008773ffffffffffffffffffffffffffffffffffffffff1673ffffffffffffffffffffffffffffffffffffffff1681526020019081526020016000206000828152602001908152602001600020600101548260078661090b91906126a4565b8151811061091c5761091b612675565b5b602002602001018181525050600960008773ffffffffffffffffffffffffffffffffffffffff1673ffffffffffffffffffffffffffffffffffffffff168152602001908152602001600020600082815260200190815260200160002060000160019054906101000a900460ff16156109c05760008260038661099e91906126a4565b815181106109af576109ae612675565b5b602002602001018181525050610b25565b600960008773ffffffffffffffffffffffffffffffffffffffff1673ffffffffffffffffffffffffffffffffffffffff168152602001908152602001600020600082815260200190815260200160002060000160009054906101000a900460ff1615610a5857600182600386610a3691906126a4565b81518110610a4757610a46612675565b5b602002602001018181525050610b24565b6006600082815260200190815260200160002060000160149054906101000a900460ff16158015610abe5750600460029054906101000a900461ffff1661ffff166006600083815260200190815260200160002060050154610aba91906126a4565b4210155b15610af557600282600386610ad391906126a4565b81518110610ae457610ae3612675565b5b602002602001018181525050610b23565b600382600386610b0591906126a4565b81518110610b1657610b15612675565b5b6020026020010181815250505b5b5b600884610b3291906126a4565b9350508180610b409061254b565b92505061067c565b809350505050919050565b600460029054906101000a900461ffff1681565b606060006005600354600154610b7d9190612593565b610b879190612633565b67ffffffffffffffff811115610ba057610b9f612604565b5b604051908082528060200260200182016040528015610bce5781602001602082028036833780820191505090505b50905060008060035490505b600154811015610d6157600015156006600083815260200190815260200160002060000160149054906101000a900460ff16151503610d4e576006600082815260200190815260200160002060010154838381518110610c3d57610c3c612675565b5b602002602001018181525050600660008281526020019081526020016000206005015483600184610c6e91906126a4565b81518110610c7f57610c7e612675565b5b602002602001018181525050600660008281526020019081526020016000206002018054905083600284610cb391906126a4565b81518110610cc457610cc3612675565b5b6020026020010181815250508083600384610cdf91906126a4565b81518110610cf057610cef612675565b5b602002602001018181525050600660008281526020019081526020016000206004015483600484610d2191906126a4565b81518110610d3257610d31612675565b5b602002602001018181525050600682610d4b91906126a4565b91505b8080610d599061254b565b915050610bda565b50819250505090565b6007602052816000526040600020602052806000526040600020600091509150508060000160009054906101000a900460ff16908060000160019054906101000a900460ff16905082565b610dbd611bf3565b6127108161ffff1610610e05576040517f08c379a0000000000000000000000000000000000000000000000000000000008152600401610dfc9061275b565b60405180910390fd5b80600460006101000a81548161ffff021916908361ffff16021790555050565b606060066000838152602001908152602001600020600301805480602002602001604051908101604052809291908181526020018280548015610ead57602002820191906000526020600020906000905b82829054906101000a900460ff1660ff1681526020019060010190602082600001049283019260010382029150808411610e765790505b50505050509050919050565b610ec1611bf3565b601e8161ffff161015610f09576040517f08c379a0000000000000000000000000000000000000000000000000000000008152600401610f00906127ed565b60405180910390fd5b806004806101000a81548161ffff021916908361ffff16021790555050565b60066020528060005260406000206000915090508060000160009054906101000a900473ffffffffffffffffffffffffffffffffffffffff16908060000160149054906101000a900460ff16908060010154908060040154908060050154908060060154908060070154908060080160009054906101000a900460ff169080600c0160009054906101000a900473ffffffffffffffffffffffffffffffffffffffff16905089565b600460069054906101000a900473ffffffffffffffffffffffffffffffffffffffff1681565b60048054906101000a900461ffff1681565b611010611bf3565b61101a6000611c71565b565b600460009054906101000a900461ffff1681565b60008060009054906101000a900473ffffffffffffffffffffffffffffffffffffffff16905090565b8360008160ff1610158015611072575060648160ff1611155b6110b1576040517f08c379a00000000000000000000000000000000000000000000000000000000081526004016110a890612859565b60405180910390fd5b600083116110f4576040517f08c379a00000000000000000000000000000000000000000000000000000000081526004016110eb906128eb565b60405180910390fd5b60008290508073ffffffffffffffffffffffffffffffffffffffff166323b872dd3330876040518463ffffffff1660e01b81526004016111369392919061290b565b6020604051808303816000875af1158015611155573d6000803e3d6000fd5b505050506040513d601f19601f82011682018060405250810190611179919061296e565b503360066000600154815260200190815260200160002060000160006101000a81548173ffffffffffffffffffffffffffffffffffffffff021916908373ffffffffffffffffffffffffffffffffffffffff1602179055508360066000600154815260200190815260200160002060060160008282546111f991906126a4565b925050819055508360066000600154815260200190815260200160002060010181905550600660006001548152602001908152602001600020600201339080600181540180825580915050600190039060005260206000200160009091909190916101000a81548173ffffffffffffffffffffffffffffffffffffffff021916908373ffffffffffffffffffffffffffffffffffffffff1602179055508460ff16600660006001548152602001908152602001600020600401819055506006600060015481526020019081526020016000206003018690806001815401808255809150506001900390600052602060002090602091828204019190069091909190916101000a81548160ff021916908360ff1602179055504260066000600154815260200190815260200160002060050181905550600060066000600154815260200190815260200160002060080160006101000a81548160ff021916908360ff16021790555082600660006001548152602001908152602001600020600c0160006101000a81548173ffffffffffffffffffffffffffffffffffffffff021916908373ffffffffffffffffffffffffffffffffffffffff1602179055508560076000600154815260200190815260200160002060003373ffffffffffffffffffffffffffffffffffffffff1673ffffffffffffffffffffffffffffffffffffffff16815260200190815260200160002060000160016101000a81548160ff021916908360ff160217905550600160076000600154815260200190815260200160002060003373ffffffffffffffffffffffffffffffffffffffff1673ffffffffffffffffffffffffffffffffffffffff16815260200190815260200160002060000160006101000a81548160ff021916908315150217905550600860003373ffffffffffffffffffffffffffffffffffffffff1673ffffffffffffffffffffffffffffffffffffffff16815260200190815260200160002060000160015490806001815401808255809150506001900390600052602060002001600090919091909150557f16dca524ff25a377d2e6cecca0f661869e5237f50a4de1699a507346bc5184ea60015485856040516115339392919061299b565b60405180910390a16001600081548092919061154e9061254b565b9190505550505050505050565b6009602052816000526040600020602052806000526040600020600091509150508060000160009054906101000a900460ff16908060000160019054906101000a900460ff16908060010154905083565b6115b4611bf3565b600073ffffffffffffffffffffffffffffffffffffffff168173ffffffffffffffffffffffffffffffffffffffff1603611623576040517f08c379a000000000000000000000000000000000000000000000000000000000815260040161161a90612a1e565b60405180910390fd5b80600460066101000a81548173ffffffffffffffffffffffffffffffffffffffff021916908373ffffffffffffffffffffffffffffffffffffffff16021790555050565b60006006600083815260200190815260200160002060000160009054906101000a900473ffffffffffffffffffffffffffffffffffffffff169050919050565b60608060606000600660008681526020019081526020016000206002018054905067ffffffffffffffff8111156116e1576116e0612604565b5b60405190808252806020026020018201604052801561170f5781602001602082028036833780820191505090505b5090506000600660008781526020019081526020016000206002018054905067ffffffffffffffff81111561174757611746612604565b5b6040519080825280602002602001820160405280156117755781602001602082028036833780820191505090505b5090506000600660008881526020019081526020016000206002018054905067ffffffffffffffff8111156117ad576117ac612604565b5b6040519080825280602002602001820160405280156117db5781602001602082028036833780820191505090505b50905060005b6006600089815260200190815260200160002060020180549050811015611a825760066000898152602001908152602001600020600301818154811061182a57611829612675565b5b90600052602060002090602091828204019190069054906101000a900460ff1660ff168482815181106118605761185f612675565b5b60200260200101818152505060066000898152602001908152602001600020600201818154811061189457611893612675565b5b9060005260206000200160009054906101000a900473ffffffffffffffffffffffffffffffffffffffff168282815181106118d2576118d1612675565b5b602002602001019073ffffffffffffffffffffffffffffffffffffffff16908173ffffffffffffffffffffffffffffffffffffffff168152505060008060005b600660008c8152602001908152602001600020600a01805490508110156119ed5784848151811061194657611945612675565b5b602002602001015173ffffffffffffffffffffffffffffffffffffffff16600660008d8152602001908152602001600020600a01828154811061198c5761198b612675565b5b9060005260206000200160009054906101000a900473ffffffffffffffffffffffffffffffffffffffff1673ffffffffffffffffffffffffffffffffffffffff16036119da57600192508091505b80806119e59061254b565b915050611912565b508115611a4b57600660008b81526020019081526020016000206009018181548110611a1c57611a1b612675565b5b9060005260206000200154858481518110611a3a57611a39612675565b5b602002602001018181525050611a6d565b6000858481518110611a6057611a5f612675565b5b6020026020010181815250505b50508080611a7a9061254b565b9150506117e1565b508181849550955095505050509193909250565b60006007600084815260200190815260200160002060008373ffffffffffffffffffffffffffffffffffffffff1673ffffffffffffffffffffffffffffffffffffffff16815260200190815260200160002060000160019054906101000a900460ff16905092915050565b611b09611bf3565b60008161ffff1603611b50576040517f08c379a0000000000000000000000000000000000000000000000000000000008152600401611b4790612a8a565b60405180910390fd5b80600460026101000a81548161ffff021916908361ffff16021790555050565b611b78611bf3565b600073ffffffffffffffffffffffffffffffffffffffff168173ffffffffffffffffffffffffffffffffffffffff1603611be7576040517f08c379a0000000000000000000000000000000000000000000000000000000008152600401611bde90612b1c565b60405180910390fd5b611bf081611c71565b50565b611bfb611d35565b73ffffffffffffffffffffffffffffffffffffffff16611c19611030565b73ffffffffffffffffffffffffffffffffffffffff1614611c6f576040517f08c379a0000000000000000000000000000000000000000000000000000000008152600401611c6690612b88565b60405180910390fd5b565b60008060009054906101000a900473ffffffffffffffffffffffffffffffffffffffff169050816000806101000a81548173ffffffffffffffffffffffffffffffffffffffff021916908373ffffffffffffffffffffffffffffffffffffffff1602179055508173ffffffffffffffffffffffffffffffffffffffff168173ffffffffffffffffffffffffffffffffffffffff167f8be0079c531659141344cd1fd0a4f28419497f9722a3daafe3b4186f6b6457e060405160405180910390a35050565b600033905090565b600060ff82169050919050565b611d5381611d3d565b82525050565b6000602082019050611d6e6000830184611d4a565b92915050565b600080fd5b600073ffffffffffffffffffffffffffffffffffffffff82169050919050565b6000611da482611d79565b9050919050565b611db481611d99565b8114611dbf57600080fd5b50565b600081359050611dd181611dab565b92915050565b600060208284031215611ded57611dec611d74565b5b6000611dfb84828501611dc2565b91505092915050565b600081519050919050565b600082825260208201905092915050565b6000819050602082019050919050565b6000819050919050565b611e4381611e30565b82525050565b6000611e558383611e3a565b60208301905092915050565b6000602082019050919050565b6000611e7982611e04565b611e838185611e0f565b9350611e8e83611e20565b8060005b83811015611ebf578151611ea68882611e49565b9750611eb183611e61565b925050600181019050611e92565b5085935050505092915050565b60006020820190508181036000830152611ee68184611e6e565b905092915050565b600061ffff82169050919050565b611f0581611eee565b82525050565b6000602082019050611f206000830184611efc565b92915050565b611f2f81611e30565b8114611f3a57600080fd5b50565b600081359050611f4c81611f26565b92915050565b60008060408385031215611f6957611f68611d74565b5b6000611f7785828601611f3d565b9250506020611f8885828601611dc2565b9150509250929050565b60008115159050919050565b611fa781611f92565b82525050565b6000604082019050611fc26000830185611f9e565b611fcf6020830184611d4a565b9392505050565b611fdf81611eee565b8114611fea57600080fd5b50565b600081359050611ffc81611fd6565b92915050565b60006020828403121561201857612017611d74565b5b600061202684828501611fed565b91505092915050565b60006020828403121561204557612044611d74565b5b600061205384828501611f3d565b91505092915050565b600081519050919050565b600082825260208201905092915050565b6000819050602082019050919050565b61209181611d3d565b82525050565b60006120a38383612088565b60208301905092915050565b6000602082019050919050565b60006120c78261205c565b6120d18185612067565b93506120dc83612078565b8060005b8381101561210d5781516120f48882612097565b97506120ff836120af565b9250506001810190506120e0565b5085935050505092915050565b6000602082019050818103600083015261213481846120bc565b905092915050565b61214581611d99565b82525050565b61215481611e30565b82525050565b600061012082019050612170600083018c61213c565b61217d602083018b611f9e565b61218a604083018a61214b565b612197606083018961214b565b6121a4608083018861214b565b6121b160a083018761214b565b6121be60c083018661214b565b6121cb60e0830185611d4a565b6121d961010083018461213c565b9a9950505050505050505050565b60006020820190506121fc600083018461213c565b92915050565b61220b81611d3d565b811461221657600080fd5b50565b60008135905061222881612202565b92915050565b6000806000806080858703121561224857612247611d74565b5b600061225687828801612219565b945050602061226787828801612219565b935050604061227887828801611f3d565b925050606061228987828801611dc2565b91505092959194509250565b600080604083850312156122ac576122ab611d74565b5b60006122ba85828601611dc2565b92505060206122cb85828601611f3d565b9150509250929050565b60006060820190506122ea6000830186611f9e565b6122f76020830185611f9e565b612304604083018461214b565b949350505050565b600081519050919050565b600082825260208201905092915050565b6000819050602082019050919050565b61234181611d99565b82525050565b60006123538383612338565b60208301905092915050565b6000602082019050919050565b60006123778261230c565b6123818185612317565b935061238c83612328565b8060005b838110156123bd5781516123a48882612347565b97506123af8361235f565b925050600181019050612390565b5085935050505092915050565b600060608201905081810360008301526123e48186611e6e565b905081810360208301526123f8818561236c565b9050818103604083015261240c8184611e6e565b9050949350505050565b6000819050919050565b61243161242c82611e30565b612416565b82525050565b60008160601b9050919050565b600061244f82612437565b9050919050565b600061246182612444565b9050919050565b61247961247482611d99565b612456565b82525050565b600061248b8286612420565b60208201915061249b8285612468565b6014820191506124ab8284612420565b602082019150819050949350505050565b7f4e487b7100000000000000000000000000000000000000000000000000000000600052601260045260246000fd5b60006124f682611e30565b915061250183611e30565b925082612511576125106124bc565b5b828206905092915050565b7f4e487b7100000000000000000000000000000000000000000000000000000000600052601160045260246000fd5b600061255682611e30565b91507fffffffffffffffffffffffffffffffffffffffffffffffffffffffffffffffff82036125885761258761251c565b5b600182019050919050565b600061259e82611e30565b91506125a983611e30565b92508282039050818111156125c1576125c061251c565b5b92915050565b60006125d282611eee565b91506125dd83611eee565b92508282026125eb81611eee565b91508082146125fd576125fc61251c565b5b5092915050565b7f4e487b7100000000000000000000000000000000000000000000000000000000600052604160045260246000fd5b600061263e82611e30565b915061264983611e30565b925082820261265781611e30565b9150828204841483151761266e5761266d61251c565b5b5092915050565b7f4e487b7100000000000000000000000000000000000000000000000000000000600052603260045260246000fd5b60006126af82611e30565b91506126ba83611e30565b92508282019050808211156126d2576126d161251c565b5b92915050565b600082825260208201905092915050565b7f4e6577206665652070657263656e74206973206c657373207468616e2031303060008201527f3030000000000000000000000000000000000000000000000000000000000000602082015250565b60006127456022836126d8565b9150612750826126e9565b604082019050919050565b6000602082019050818103600083015261277481612738565b9050919050565b7f5573657247616d6573546f52657475726e4e756d626572206861766520746f2060008201527f6265206d6f7265207468616e2033300000000000000000000000000000000000602082015250565b60006127d7602f836126d8565b91506127e28261277b565b604082019050919050565b60006020820190508181036000830152612806816127ca565b9050919050565b7f43686f6f7365206e756d626572206265747765656e203020616e642031303000600082015250565b6000612843601f836126d8565b915061284e8261280d565b602082019050919050565b6000602082019050818103600083015261287281612836565b9050919050565b7f467265652067616d657320617265206e6f7420737570706f727465642068657260008201527f6521000000000000000000000000000000000000000000000000000000000000602082015250565b60006128d56022836126d8565b91506128e082612879565b604082019050919050565b60006020820190508181036000830152612904816128c8565b9050919050565b6000606082019050612920600083018661213c565b61292d602083018561213c565b61293a604083018461214b565b949350505050565b61294b81611f92565b811461295657600080fd5b50565b60008151905061296881612942565b92915050565b60006020828403121561298457612983611d74565b5b600061299284828501612959565b91505092915050565b60006060820190506129b0600083018661214b565b6129bd602083018561214b565b6129ca604083018461213c565b949350505050565b7f4e65772057616c6c657420697320616464726573732830290000000000000000600082015250565b6000612a086018836126d8565b9150612a13826129d2565b602082019050919050565b60006020820190508181036000830152612a37816129fb565b9050919050565b7f54696d6520746f2066696e69736820697320657175616c20746f203000000000600082015250565b6000612a74601c836126d8565b9150612a7f82612a3e565b602082019050919050565b60006020820190508181036000830152612aa381612a67565b9050919050565b7f4f776e61626c653a206e6577206f776e657220697320746865207a65726f206160008201527f6464726573730000000000000000000000000000000000000000000000000000602082015250565b6000612b066026836126d8565b9150612b1182612aaa565b604082019050919050565b60006020820190508181036000830152612b3581612af9565b9050919050565b7f4f776e61626c653a2063616c6c6572206973206e6f7420746865206f776e6572600082015250565b6000612b726020836126d8565b9150612b7d82612b3c565b602082019050919050565b60006020820190508181036000830152612ba181612b65565b905091905056fea2646970667358221220bee80d60b2bb1e1d2dc66a0840be561390490392f627870f5b9aca5c7a64531764736f6c63430008110033",
  "linkReferences": {},
  "deployedLinkReferences": {}
}