{
  "_format": "hh-sol-artifact-1",
  "contractName": "FairHighlow",
  "sourceName": "contracts/FairHighlow.sol",
  "abi": [
    {
      "inputs": [
        {
          "internalType": "address",
          "name": "_wallet",
          "type": "address"
        },
        {
          "internalType": "uint16",
          "name": "_feePercent",
          "type": "uint16"
        },
        {
          "internalType": "uint16",
          "name": "_timeToFinish",
          "type": "uint16"
        },
        {
          "internalType": "uint16",
          "name": "_userGamesToReturnNumber",
          "type": "uint16"
        }
      ],
      "stateMutability": "nonpayable",
      "type": "constructor"
    },
    {
      "anonymous": false,
      "inputs": [
        {
          "indexed": false,
          "internalType": "uint256",
          "name": "gameId",
          "type": "uint256"
        },
        {
          "indexed": false,
          "internalType": "uint256",
          "name": "bid",
          "type": "uint256"
        },
        {
          "indexed": false,
          "internalType": "address",
          "name": "token",
          "type": "address"
        }
      ],
      "name": "CreateGame",
      "type": "event"
    },
    {
      "anonymous": false,
      "inputs": [
        {
          "indexed": false,
          "internalType": "uint256",
          "name": "gameId",
          "type": "uint256"
        },
        {
          "indexed": false,
          "internalType": "address[]",
          "name": "winners",
          "type": "address[]"
        },
        {
          "indexed": false,
          "internalType": "uint256[]",
          "name": "prizes",
          "type": "uint256[]"
        },
        {
          "indexed": false,
          "internalType": "address",
          "name": "token",
          "type": "address"
        }
      ],
      "name": "FinishGame",
      "type": "event"
    },
    {
      "anonymous": false,
      "inputs": [
        {
          "indexed": true,
          "internalType": "address",
          "name": "previousOwner",
          "type": "address"
        },
        {
          "indexed": true,
          "internalType": "address",
          "name": "newOwner",
          "type": "address"
        }
      ],
      "name": "OwnershipTransferred",
      "type": "event"
    },
    {
      "inputs": [
        {
          "internalType": "uint256",
          "name": "",
          "type": "uint256"
        },
        {
          "internalType": "address",
          "name": "",
          "type": "address"
        }
      ],
      "name": "biddersList",
      "outputs": [
        {
          "internalType": "bool",
          "name": "participatedFlag",
          "type": "bool"
        },
        {
          "internalType": "uint8",
          "name": "number",
          "type": "uint8"
        }
      ],
      "stateMutability": "view",
      "type": "function"
    },
    {
      "inputs": [
        {
          "internalType": "uint256",
          "name": "_gameId",
          "type": "uint256"
        }
      ],
      "name": "claim",
      "outputs": [],
      "stateMutability": "nonpayable",
      "type": "function"
    },
    {
      "inputs": [
        {
          "internalType": "uint8",
          "name": "_number",
          "type": "uint8"
        },
        {
          "internalType": "uint8",
          "name": "_limit",
          "type": "uint8"
        },
        {
          "internalType": "uint256",
          "name": "amount",
          "type": "uint256"
        },
        {
          "internalType": "address",
          "name": "token",
          "type": "address"
        }
      ],
      "name": "createGame",
      "outputs": [],
      "stateMutability": "nonpayable",
      "type": "function"
    },
    {
      "inputs": [],
      "name": "feePercent",
      "outputs": [
        {
          "internalType": "uint16",
          "name": "",
          "type": "uint16"
        }
      ],
      "stateMutability": "view",
      "type": "function"
    },
    {
      "inputs": [
        {
          "internalType": "uint256",
          "name": "_gameId",
          "type": "uint256"
        }
      ],
      "name": "finishGame",
      "outputs": [],
      "stateMutability": "nonpayable",
      "type": "function"
    },
    {
      "inputs": [
        {
          "internalType": "uint256",
          "name": "",
          "type": "uint256"
        }
      ],
      "name": "gamesList",
      "outputs": [
        {
          "internalType": "address",
          "name": "owner",
          "type": "address"
        },
        {
          "internalType": "bool",
          "name": "isFinished",
          "type": "bool"
        },
        {
          "internalType": "uint256",
          "name": "bid",
          "type": "uint256"
        },
        {
          "internalType": "uint256",
          "name": "participantsLimit",
          "type": "uint256"
        },
        {
          "internalType": "uint256",
          "name": "createdTimestamp",
          "type": "uint256"
        },
        {
          "internalType": "uint256",
          "name": "pool",
          "type": "uint256"
        },
        {
          "internalType": "uint256",
          "name": "individualPrize",
          "type": "uint256"
        },
        {
          "internalType": "uint8",
          "name": "luckyNumber",
          "type": "uint8"
        },
        {
          "internalType": "address",
          "name": "token",
          "type": "address"
        }
      ],
      "stateMutability": "view",
      "type": "function"
    },
    {
      "inputs": [],
      "name": "generateRandom",
      "outputs": [
        {
          "internalType": "uint8",
          "name": "",
          "type": "uint8"
        }
      ],
      "stateMutability": "nonpayable",
      "type": "function"
    },
    {
      "inputs": [],
      "name": "getActualGames",
      "outputs": [
        {
          "internalType": "uint256[]",
          "name": "",
          "type": "uint256[]"
        }
      ],
      "stateMutability": "view",
      "type": "function"
    },
    {
      "inputs": [
        {
          "internalType": "uint256",
          "name": "_gameId",
          "type": "uint256"
        },
        {
          "internalType": "address",
          "name": "adr",
          "type": "address"
        }
      ],
      "name": "getBet",
      "outputs": [
        {
          "internalType": "uint8",
          "name": "",
          "type": "uint8"
        }
      ],
      "stateMutability": "view",
      "type": "function"
    },
    {
      "inputs": [
        {
          "internalType": "uint256",
          "name": "_gameId",
          "type": "uint256"
        }
      ],
      "name": "getNumbers",
      "outputs": [
        {
          "internalType": "uint8[]",
          "name": "",
          "type": "uint8[]"
        }
      ],
      "stateMutability": "view",
      "type": "function"
    },
    {
      "inputs": [
        {
          "internalType": "uint256",
          "name": "_gameId",
          "type": "uint256"
        }
      ],
      "name": "getOwner",
      "outputs": [
        {
          "internalType": "address",
          "name": "",
          "type": "address"
        }
      ],
      "stateMutability": "view",
      "type": "function"
    },
    {
      "inputs": [
        {
          "internalType": "uint256",
          "name": "_gameId",
          "type": "uint256"
        }
      ],
      "name": "getPrizes",
      "outputs": [
        {
          "internalType": "uint256[]",
          "name": "",
          "type": "uint256[]"
        },
        {
          "internalType": "address[]",
          "name": "",
          "type": "address[]"
        },
        {
          "internalType": "uint256[]",
          "name": "",
          "type": "uint256[]"
        }
      ],
      "stateMutability": "view",
      "type": "function"
    },
    {
      "inputs": [
        {
          "internalType": "uint256",
          "name": "_gameId",
          "type": "uint256"
        }
      ],
      "name": "getToken",
      "outputs": [
        {
          "internalType": "address",
          "name": "",
          "type": "address"
        }
      ],
      "stateMutability": "view",
      "type": "function"
    },
    {
      "inputs": [
        {
          "internalType": "address",
          "name": "_user",
          "type": "address"
        }
      ],
      "name": "getUserGames",
      "outputs": [
        {
          "internalType": "uint256[]",
          "name": "",
          "type": "uint256[]"
        }
      ],
      "stateMutability": "view",
      "type": "function"
    },
    {
      "inputs": [
        {
          "internalType": "uint256",
          "name": "_gameId",
          "type": "uint256"
        },
        {
          "internalType": "uint8",
          "name": "_number",
          "type": "uint8"
        }
      ],
      "name": "joinGame",
      "outputs": [],
      "stateMutability": "nonpayable",
      "type": "function"
    },
    {
      "inputs": [
        {
          "internalType": "uint16",
          "name": "_feePercent",
          "type": "uint16"
        }
      ],
      "name": "newFeePercent",
      "outputs": [],
      "stateMutability": "nonpayable",
      "type": "function"
    },
    {
      "inputs": [
        {
          "internalType": "uint16",
          "name": "_timeToFinish",
          "type": "uint16"
        }
      ],
      "name": "newTimeToFinish",
      "outputs": [],
      "stateMutability": "nonpayable",
      "type": "function"
    },
    {
      "inputs": [
        {
          "internalType": "uint16",
          "name": "_userGamesToReturnNumber",
          "type": "uint16"
        }
      ],
      "name": "newUserGamesToReturnNumber",
      "outputs": [],
      "stateMutability": "nonpayable",
      "type": "function"
    },
    {
      "inputs": [
        {
          "internalType": "address",
          "name": "_wallet",
          "type": "address"
        }
      ],
      "name": "newWallet",
      "outputs": [],
      "stateMutability": "nonpayable",
      "type": "function"
    },
    {
      "inputs": [],
      "name": "owner",
      "outputs": [
        {
          "internalType": "address",
          "name": "",
          "type": "address"
        }
      ],
      "stateMutability": "view",
      "type": "function"
    },
    {
      "inputs": [
        {
          "internalType": "address",
          "name": "",
          "type": "address"
        },
        {
          "internalType": "uint256",
          "name": "",
          "type": "uint256"
        }
      ],
      "name": "prizeList",
      "outputs": [
        {
          "internalType": "bool",
          "name": "isWinner",
          "type": "bool"
        },
        {
          "internalType": "bool",
          "name": "isClaimed",
          "type": "bool"
        },
        {
          "internalType": "uint256",
          "name": "prize",
          "type": "uint256"
        }
      ],
      "stateMutability": "view",
      "type": "function"
    },
    {
      "inputs": [],
      "name": "renounceOwnership",
      "outputs": [],
      "stateMutability": "nonpayable",
      "type": "function"
    },
    {
      "inputs": [],
      "name": "timeToFinish",
      "outputs": [
        {
          "internalType": "uint16",
          "name": "",
          "type": "uint16"
        }
      ],
      "stateMutability": "view",
      "type": "function"
    },
    {
      "inputs": [
        {
          "internalType": "address",
          "name": "newOwner",
          "type": "address"
        }
      ],
      "name": "transferOwnership",
      "outputs": [],
      "stateMutability": "nonpayable",
      "type": "function"
    },
    {
      "inputs": [],
      "name": "userGamesToReturnNumber",
      "outputs": [
        {
          "internalType": "uint16",
          "name": "",
          "type": "uint16"
        }
      ],
      "stateMutability": "view",
      "type": "function"
    },
    {
      "inputs": [],
      "name": "wallet",
      "outputs": [
        {
          "internalType": "address",
          "name": "",
          "type": "address"
        }
      ],
      "stateMutability": "view",
      "type": "function"
    }
  ],
  "bytecode": "0x60806040523480156200001157600080fd5b50604051620057cd380380620057cd8339818101604052810190620000379190620003bf565b620000576200004b6200024a60201b60201c565b6200025260201b60201c565b600073ffffffffffffffffffffffffffffffffffffffff168473ffffffffffffffffffffffffffffffffffffffff1603620000c9576040517f08c379a0000000000000000000000000000000000000000000000000000000008152600401620000c09062000492565b60405180910390fd5b6127108361ffff161062000114576040517f08c379a00000000000000000000000000000000000000000000000000000000081526004016200010b9062000504565b60405180910390fd5b60008261ffff16036200015e576040517f08c379a0000000000000000000000000000000000000000000000000000000008152600401620001559062000576565b60405180910390fd5b601e8161ffff161015620001a9576040517f08c379a0000000000000000000000000000000000000000000000000000000008152600401620001a0906200060e565b60405180910390fd5b83600460066101000a81548173ffffffffffffffffffffffffffffffffffffffff021916908373ffffffffffffffffffffffffffffffffffffffff16021790555082600460006101000a81548161ffff021916908361ffff16021790555081600460026101000a81548161ffff021916908361ffff160217905550806004806101000a81548161ffff021916908361ffff1602179055505050505062000630565b600033905090565b60008060009054906101000a900473ffffffffffffffffffffffffffffffffffffffff169050816000806101000a81548173ffffffffffffffffffffffffffffffffffffffff021916908373ffffffffffffffffffffffffffffffffffffffff1602179055508173ffffffffffffffffffffffffffffffffffffffff168173ffffffffffffffffffffffffffffffffffffffff167f8be0079c531659141344cd1fd0a4f28419497f9722a3daafe3b4186f6b6457e060405160405180910390a35050565b600080fd5b600073ffffffffffffffffffffffffffffffffffffffff82169050919050565b600062000348826200031b565b9050919050565b6200035a816200033b565b81146200036657600080fd5b50565b6000815190506200037a816200034f565b92915050565b600061ffff82169050919050565b620003998162000380565b8114620003a557600080fd5b50565b600081519050620003b9816200038e565b92915050565b60008060008060808587031215620003dc57620003db62000316565b5b6000620003ec8782880162000369565b9450506020620003ff87828801620003a8565b93505060406200041287828801620003a8565b92505060606200042587828801620003a8565b91505092959194509250565b600082825260208201905092915050565b7f57616c6c65742069732061646472657373283029000000000000000000000000600082015250565b60006200047a60148362000431565b9150620004878262000442565b602082019050919050565b60006020820190508181036000830152620004ad816200046b565b9050919050565b7f4665652070657263656e74206973206d6f7265207468616e2031303030300000600082015250565b6000620004ec601e8362000431565b9150620004f982620004b4565b602082019050919050565b600060208201905081810360008301526200051f81620004dd565b9050919050565b7f54696d6520746f2066696e69736820697320657175616c20746f203000000000600082015250565b60006200055e601c8362000431565b91506200056b8262000526565b602082019050919050565b6000602082019050818103600083015262000591816200054f565b9050919050565b7f5573657247616d6573546f52657475726e4e756d626572206861766520746f2060008201527f6265206d6f7265207468616e2033300000000000000000000000000000000000602082015250565b6000620005f6602f8362000431565b9150620006038262000598565b604082019050919050565b600060208201905081810360008301526200062981620005e7565b9050919050565b61518d80620006406000396000f3fe608060405234801561001057600080fd5b506004361061018e5760003560e01c80637fd6f15c116100de578063ca6649c511610097578063e0950ddf11610071578063e0950ddf14610490578063e4b50cb8146104c0578063e8d95ad3146104f0578063f2fde38b1461050c5761018e565b8063ca6649c514610426578063cc30779514610442578063cfe186b2146104745761018e565b80637fd6f15c146103505780638da5cb5b1461036e5780639b0525311461038c5780639ff0f4a9146103a8578063bda6688f146103da578063c41a360a146103f65761018e565b8063493ab0581161014b5780635054c0a3116101255780635054c0a3146102d2578063521eb2731461030a578063631b02bd14610328578063715018a6146103465761018e565b8063493ab0581461026a5780634a7b26ae146102865780634bb0826f146102b65761018e565b806302e4af0114610193578063120aace6146101b157806313bf83c5146101e157806316466fe6146101ff578063208970d51461021d578063379607f51461024e575b600080fd5b61019b610528565b6040516101a8919061396d565b60405180910390f35b6101cb60048036038101906101c691906139eb565b610589565b6040516101d89190613ae0565b60405180910390f35b6101e9610c24565b6040516101f69190613b1f565b60405180910390f35b610207610c38565b6040516102149190613ae0565b60405180910390f35b61023760048036038101906102329190613b66565b610e3b565b604051610245929190613bc1565b60405180910390f35b61026860048036038101906102639190613bea565b610e86565b005b610284600480360381019061027f9190613c43565b611246565b005b6102a0600480360381019061029b9190613bea565b6112b6565b6040516102ad9190613d2e565b60405180910390f35b6102d060048036038101906102cb9190613c43565b61134a565b005b6102ec60048036038101906102e79190613bea565b6113b9565b60405161030199989796959493929190613d6e565b60405180910390f35b610312611461565b60405161031f9190613dfb565b60405180910390f35b610330611487565b60405161033d9190613b1f565b60405180910390f35b61034e611499565b005b6103586114ad565b6040516103659190613b1f565b60405180910390f35b6103766114c1565b6040516103839190613dfb565b60405180910390f35b6103a660048036038101906103a19190613e42565b6114ea565b005b6103c260048036038101906103bd9190613ea9565b6119ec565b6040516103d193929190613ee9565b60405180910390f35b6103f460048036038101906103ef91906139eb565b611a3d565b005b610410600480360381019061040b9190613bea565b611af8565b60405161041d9190613dfb565b60405180910390f35b610440600480360381019061043b9190613f20565b611b38565b005b61045c60048036038101906104579190613bea565b61222f565b60405161046b9392919061401e565b60405180910390f35b61048e60048036038101906104899190613bea565b61261e565b005b6104aa60048036038101906104a59190613b66565b61366a565b6040516104b7919061396d565b60405180910390f35b6104da60048036038101906104d59190613bea565b6136d5565b6040516104e79190613dfb565b60405180910390f35b61050a60048036038101906105059190613c43565b613715565b005b610526600480360381019061052191906139eb565b613784565b005b6000806101004233600254604051602001610545939291906140d3565b6040516020818303038152906040528051906020012060001c610568919061413f565b90506002600081548092919061057d9061419f565b91905055508091505090565b60606000806000601e600860008773ffffffffffffffffffffffffffffffffffffffff1673ffffffffffffffffffffffffffffffffffffffff16815260200190815260200160002060000180549050106106ac5760048054906101000a900461ffff1661ffff16600860008773ffffffffffffffffffffffffffffffffffffffff1673ffffffffffffffffffffffffffffffffffffffff1681526020019081526020016000206000018054905061064091906141e7565b600860048054906101000a900461ffff1661065b919061421b565b61ffff1667ffffffffffffffff81111561067857610677614258565b5b6040519080825280602002602001820160405280156106a65781602001602082028036833780820191505090505b50610748565b600060088060008873ffffffffffffffffffffffffffffffffffffffff1673ffffffffffffffffffffffffffffffffffffffff168152602001908152602001600020600001805490506106ff9190614287565b67ffffffffffffffff81111561071857610717614258565b5b6040519080825280602002602001820160405280156107465781602001602082028036833780820191505090505b505b915091505b600860008673ffffffffffffffffffffffffffffffffffffffff1673ffffffffffffffffffffffffffffffffffffffff16815260200190815260200160002060000180549050821015610c19576000600860008773ffffffffffffffffffffffffffffffffffffffff1673ffffffffffffffffffffffffffffffffffffffff16815260200190815260200160002060000183815481106107f0576107ef6142c9565b5b906000526020600020015490506006600082815260200190815260200160002060010154828581518110610827576108266142c9565b5b60200260200101818152505060066000828152602001908152602001600020600501548260018661085891906142f8565b81518110610869576108686142c9565b5b60200260200101818152505060066000828152602001908152602001600020600201805490508260028661089d91906142f8565b815181106108ae576108ad6142c9565b5b60200260200101818152505080826004866108c991906142f8565b815181106108da576108d96142c9565b5b60200260200101818152505060066000828152602001908152602001600020600601548260058661090b91906142f8565b8151811061091c5761091b6142c9565b5b6020026020010181815250506006600082815260200190815260200160002060080160009054906101000a900460ff1660ff168260068661095d91906142f8565b8151811061096e5761096d6142c9565b5b602002602001018181525050600960008773ffffffffffffffffffffffffffffffffffffffff1673ffffffffffffffffffffffffffffffffffffffff168152602001908152602001600020600082815260200190815260200160002060010154826007866109dc91906142f8565b815181106109ed576109ec6142c9565b5b602002602001018181525050600960008773ffffffffffffffffffffffffffffffffffffffff1673ffffffffffffffffffffffffffffffffffffffff168152602001908152602001600020600082815260200190815260200160002060000160019054906101000a900460ff1615610a9157600082600386610a6f91906142f8565b81518110610a8057610a7f6142c9565b5b602002602001018181525050610bf6565b600960008773ffffffffffffffffffffffffffffffffffffffff1673ffffffffffffffffffffffffffffffffffffffff168152602001908152602001600020600082815260200190815260200160002060000160009054906101000a900460ff1615610b2957600182600386610b0791906142f8565b81518110610b1857610b176142c9565b5b602002602001018181525050610bf5565b6006600082815260200190815260200160002060000160149054906101000a900460ff16158015610b8f5750600460029054906101000a900461ffff1661ffff166006600083815260200190815260200160002060050154610b8b91906142f8565b4210155b15610bc657600282600386610ba491906142f8565b81518110610bb557610bb46142c9565b5b602002602001018181525050610bf4565b600382600386610bd691906142f8565b81518110610be757610be66142c9565b5b6020026020010181815250505b5b5b600884610c0391906142f8565b9350508180610c119061419f565b92505061074d565b809350505050919050565b600460029054906101000a900461ffff1681565b606060006005600354600154610c4e91906141e7565b610c589190614287565b67ffffffffffffffff811115610c7157610c70614258565b5b604051908082528060200260200182016040528015610c9f5781602001602082028036833780820191505090505b50905060008060035490505b600154811015610e3257600015156006600083815260200190815260200160002060000160149054906101000a900460ff16151503610e1f576006600082815260200190815260200160002060010154838381518110610d0e57610d0d6142c9565b5b602002602001018181525050600660008281526020019081526020016000206005015483600184610d3f91906142f8565b81518110610d5057610d4f6142c9565b5b602002602001018181525050600660008281526020019081526020016000206002018054905083600284610d8491906142f8565b81518110610d9557610d946142c9565b5b6020026020010181815250508083600384610db091906142f8565b81518110610dc157610dc06142c9565b5b602002602001018181525050600660008281526020019081526020016000206004015483600484610df291906142f8565b81518110610e0357610e026142c9565b5b602002602001018181525050600582610e1c91906142f8565b91505b8080610e2a9061419f565b915050610cab565b50819250505090565b6007602052816000526040600020602052806000526040600020600091509150508060000160009054906101000a900460ff16908060000160019054906101000a900460ff16905082565b60011515600960003373ffffffffffffffffffffffffffffffffffffffff1673ffffffffffffffffffffffffffffffffffffffff168152602001908152602001600020600083815260200190815260200160002060000160009054906101000a900460ff16151514610f2d576040517f08c379a0000000000000000000000000000000000000000000000000000000008152600401610f24906143af565b60405180910390fd5b60001515600960003373ffffffffffffffffffffffffffffffffffffffff1673ffffffffffffffffffffffffffffffffffffffff168152602001908152602001600020600083815260200190815260200160002060000160019054906101000a900460ff16151514610fd4576040517f08c379a0000000000000000000000000000000000000000000000000000000008152600401610fcb90614441565b60405180910390fd5b6001600960003373ffffffffffffffffffffffffffffffffffffffff1673ffffffffffffffffffffffffffffffffffffffff168152602001908152602001600020600083815260200190815260200160002060000160016101000a81548160ff0219169083151502179055506000600960003373ffffffffffffffffffffffffffffffffffffffff1673ffffffffffffffffffffffffffffffffffffffff16815260200190815260200160002060008381526020019081526020016000206001015490506000612710600460009054906101000a900461ffff1661ffff16836110bd9190614287565b6110c79190614461565b826110d291906141e7565b9050600081836110e291906141e7565b9050600060066000868152602001908152602001600020600c0160009054906101000a900473ffffffffffffffffffffffffffffffffffffffff1690508073ffffffffffffffffffffffffffffffffffffffff1663a9059cbb33856040518363ffffffff1660e01b815260040161115a929190614492565b6020604051808303816000875af1158015611179573d6000803e3d6000fd5b505050506040513d601f19601f8201168201806040525081019061119d91906144e7565b508073ffffffffffffffffffffffffffffffffffffffff1663a9059cbb600460069054906101000a900473ffffffffffffffffffffffffffffffffffffffff16846040518363ffffffff1660e01b81526004016111fb929190614492565b6020604051808303816000875af115801561121a573d6000803e3d6000fd5b505050506040513d601f19601f8201168201806040525081019061123e91906144e7565b505050505050565b61124e613807565b6127108161ffff1610611296576040517f08c379a000000000000000000000000000000000000000000000000000000000815260040161128d90614586565b60405180910390fd5b80600460006101000a81548161ffff021916908361ffff16021790555050565b60606006600083815260200190815260200160002060030180548060200260200160405190810160405280929190818152602001828054801561133e57602002820191906000526020600020906000905b82829054906101000a900460ff1660ff16815260200190600101906020826000010492830192600103820291508084116113075790505b50505050509050919050565b611352613807565b601e8161ffff16101561139a576040517f08c379a000000000000000000000000000000000000000000000000000000000815260040161139190614618565b60405180910390fd5b806004806101000a81548161ffff021916908361ffff16021790555050565b60066020528060005260406000206000915090508060000160009054906101000a900473ffffffffffffffffffffffffffffffffffffffff16908060000160149054906101000a900460ff16908060010154908060040154908060050154908060060154908060070154908060080160009054906101000a900460ff169080600c0160009054906101000a900473ffffffffffffffffffffffffffffffffffffffff16905089565b600460069054906101000a900473ffffffffffffffffffffffffffffffffffffffff1681565b60048054906101000a900461ffff1681565b6114a1613807565b6114ab6000613885565b565b600460009054906101000a900461ffff1681565b60008060009054906101000a900473ffffffffffffffffffffffffffffffffffffffff16905090565b8360008160ff1610158015611503575060ff8160ff1611155b611542576040517f08c379a0000000000000000000000000000000000000000000000000000000008152600401611539906146aa565b60405180910390fd5b60008311611585576040517f08c379a000000000000000000000000000000000000000000000000000000000815260040161157c90614716565b60405180910390fd5b60008290508073ffffffffffffffffffffffffffffffffffffffff166323b872dd3330876040518463ffffffff1660e01b81526004016115c793929190614736565b6020604051808303816000875af11580156115e6573d6000803e3d6000fd5b505050506040513d601f19601f8201168201806040525081019061160a91906144e7565b503360066000600154815260200190815260200160002060000160006101000a81548173ffffffffffffffffffffffffffffffffffffffff021916908373ffffffffffffffffffffffffffffffffffffffff16021790555083600660006001548152602001908152602001600020600601600082825461168a91906142f8565b925050819055508360066000600154815260200190815260200160002060010181905550600660006001548152602001908152602001600020600201339080600181540180825580915050600190039060005260206000200160009091909190916101000a81548173ffffffffffffffffffffffffffffffffffffffff021916908373ffffffffffffffffffffffffffffffffffffffff1602179055508460ff16600660006001548152602001908152602001600020600401819055506006600060015481526020019081526020016000206003018690806001815401808255809150506001900390600052602060002090602091828204019190069091909190916101000a81548160ff021916908360ff1602179055504260066000600154815260200190815260200160002060050181905550600060066000600154815260200190815260200160002060080160006101000a81548160ff021916908360ff16021790555082600660006001548152602001908152602001600020600c0160006101000a81548173ffffffffffffffffffffffffffffffffffffffff021916908373ffffffffffffffffffffffffffffffffffffffff1602179055508560076000600154815260200190815260200160002060003373ffffffffffffffffffffffffffffffffffffffff1673ffffffffffffffffffffffffffffffffffffffff16815260200190815260200160002060000160016101000a81548160ff021916908360ff160217905550600160076000600154815260200190815260200160002060003373ffffffffffffffffffffffffffffffffffffffff1673ffffffffffffffffffffffffffffffffffffffff16815260200190815260200160002060000160006101000a81548160ff021916908315150217905550600860003373ffffffffffffffffffffffffffffffffffffffff1673ffffffffffffffffffffffffffffffffffffffff16815260200190815260200160002060000160015490806001815401808255809150506001900390600052602060002001600090919091909150557f16dca524ff25a377d2e6cecca0f661869e5237f50a4de1699a507346bc5184ea60015485856040516119c49392919061476d565b60405180910390a1600160008154809291906119df9061419f565b9190505550505050505050565b6009602052816000526040600020602052806000526040600020600091509150508060000160009054906101000a900460ff16908060000160019054906101000a900460ff16908060010154905083565b611a45613807565b600073ffffffffffffffffffffffffffffffffffffffff168173ffffffffffffffffffffffffffffffffffffffff1603611ab4576040517f08c379a0000000000000000000000000000000000000000000000000000000008152600401611aab90614816565b60405180910390fd5b80600460066101000a81548173ffffffffffffffffffffffffffffffffffffffff021916908373ffffffffffffffffffffffffffffffffffffffff16021790555050565b60006006600083815260200190815260200160002060000160009054906101000a900473ffffffffffffffffffffffffffffffffffffffff169050919050565b8060008160ff1610158015611b51575060ff8160ff1611155b611b90576040517f08c379a0000000000000000000000000000000000000000000000000000000008152600401611b87906146aa565b60405180910390fd5b82600460029054906101000a900461ffff1661ffff166006600083815260200190815260200160002060050154611bc791906142f8565b421115611c09576040517f08c379a0000000000000000000000000000000000000000000000000000000008152600401611c00906148a8565b60405180910390fd5b8383600060066000848152602001908152602001600020600301805480602002602001604051908101604052809291908181526020018280548015611c9357602002820191906000526020600020906000905b82829054906101000a900460ff1660ff1681526020019060010190602082600001049283019260010382029150808411611c5c5790505b5050505050905060005b81518160ff161015611d21578260ff16828260ff1681518110611cc357611cc26142c9565b5b602002602001015160ff1603611d0e576040517f08c379a0000000000000000000000000000000000000000000000000000000008152600401611d059061493a565b60405180910390fd5b8080611d199061495a565b915050611c9d565b50600060066000898152602001908152602001600020600c0160009054906101000a900473ffffffffffffffffffffffffffffffffffffffff1690508073ffffffffffffffffffffffffffffffffffffffff166323b872dd3330600660008d8152602001908152602001600020600101546040518463ffffffff1660e01b8152600401611db093929190614736565b6020604051808303816000875af1158015611dcf573d6000803e3d6000fd5b505050506040513d601f19601f82011682018060405250810190611df391906144e7565b506006600089815260200190815260200160002060000160009054906101000a900473ffffffffffffffffffffffffffffffffffffffff1673ffffffffffffffffffffffffffffffffffffffff163373ffffffffffffffffffffffffffffffffffffffff1603611e98576040517f08c379a0000000000000000000000000000000000000000000000000000000008152600401611e8f906149f5565b60405180910390fd5b60001515600760008a815260200190815260200160002060003373ffffffffffffffffffffffffffffffffffffffff1673ffffffffffffffffffffffffffffffffffffffff16815260200190815260200160002060000160009054906101000a900460ff16151514611f3f576040517f08c379a0000000000000000000000000000000000000000000000000000000008152600401611f3690614a87565b60405180910390fd5b6000600660008a8152602001908152602001600020600401541480611f9257506006600089815260200190815260200160002060040154600660008a815260200190815260200160002060020180549050105b611fd1576040517f08c379a0000000000000000000000000000000000000000000000000000000008152600401611fc890614b19565b60405180910390fd5b6006600089815260200190815260200160002060010154600660008a8152602001908152602001600020600601600082825461200d91906142f8565b9250508190555060066000898152602001908152602001600020600201339080600181540180825580915050600190039060005260206000200160009091909190916101000a81548173ffffffffffffffffffffffffffffffffffffffff021916908373ffffffffffffffffffffffffffffffffffffffff160217905550600660008981526020019081526020016000206003018790806001815401808255809150506001900390600052602060002090602091828204019190069091909190916101000a81548160ff021916908360ff16021790555086600760008a815260200190815260200160002060003373ffffffffffffffffffffffffffffffffffffffff1673ffffffffffffffffffffffffffffffffffffffff16815260200190815260200160002060000160016101000a81548160ff021916908360ff1602179055506001600760008a815260200190815260200160002060003373ffffffffffffffffffffffffffffffffffffffff1673ffffffffffffffffffffffffffffffffffffffff16815260200190815260200160002060000160006101000a81548160ff021916908315150217905550600860003373ffffffffffffffffffffffffffffffffffffffff1673ffffffffffffffffffffffffffffffffffffffff1681526020019081526020016000206000018890806001815401808255809150506001900390600052602060002001600090919091909150555050505050505050565b60608060606000600660008681526020019081526020016000206002018054905067ffffffffffffffff81111561226957612268614258565b5b6040519080825280602002602001820160405280156122975781602001602082028036833780820191505090505b5090506000600660008781526020019081526020016000206002018054905067ffffffffffffffff8111156122cf576122ce614258565b5b6040519080825280602002602001820160405280156122fd5781602001602082028036833780820191505090505b5090506000600660008881526020019081526020016000206002018054905067ffffffffffffffff81111561233557612334614258565b5b6040519080825280602002602001820160405280156123635781602001602082028036833780820191505090505b50905060005b600660008981526020019081526020016000206002018054905081101561260a576006600089815260200190815260200160002060030181815481106123b2576123b16142c9565b5b90600052602060002090602091828204019190069054906101000a900460ff1660ff168482815181106123e8576123e76142c9565b5b60200260200101818152505060066000898152602001908152602001600020600201818154811061241c5761241b6142c9565b5b9060005260206000200160009054906101000a900473ffffffffffffffffffffffffffffffffffffffff1682828151811061245a576124596142c9565b5b602002602001019073ffffffffffffffffffffffffffffffffffffffff16908173ffffffffffffffffffffffffffffffffffffffff168152505060008060005b600660008c8152602001908152602001600020600a0180549050811015612575578484815181106124ce576124cd6142c9565b5b602002602001015173ffffffffffffffffffffffffffffffffffffffff16600660008d8152602001908152602001600020600a018281548110612514576125136142c9565b5b9060005260206000200160009054906101000a900473ffffffffffffffffffffffffffffffffffffffff1673ffffffffffffffffffffffffffffffffffffffff160361256257600192508091505b808061256d9061419f565b91505061249a565b5081156125d357600660008b815260200190815260200160002060090181815481106125a4576125a36142c9565b5b90600052602060002001548584815181106125c2576125c16142c9565b5b6020026020010181815250506125f5565b60008584815181106125e8576125e76142c9565b5b6020026020010181815250505b505080806126029061419f565b915050612369565b508181849550955095505050509193909250565b600015156006600083815260200190815260200160002060000160149054906101000a900460ff16151514612688576040517f08c379a000000000000000000000000000000000000000000000000000000000815260040161267f90614bab565b60405180910390fd5b600460029054906101000a900461ffff1661ffff1660066000838152602001908152602001600020600501546126be91906142f8565b42116126ff576040517f08c379a00000000000000000000000000000000000000000000000000000000081526004016126f690614c3d565b60405180910390fd5b600115156007600083815260200190815260200160002060003373ffffffffffffffffffffffffffffffffffffffff1673ffffffffffffffffffffffffffffffffffffffff16815260200190815260200160002060000160009054906101000a900460ff161515146127a6576040517f08c379a000000000000000000000000000000000000000000000000000000000815260040161279d90614ccf565b60405180910390fd5b6001600660008381526020019081526020016000206002018054905003612970576001600960003373ffffffffffffffffffffffffffffffffffffffff1673ffffffffffffffffffffffffffffffffffffffff168152602001908152602001600020600083815260200190815260200160002060000160006101000a81548160ff0219169083151502179055506006600082815260200190815260200160002060060154600960003373ffffffffffffffffffffffffffffffffffffffff1673ffffffffffffffffffffffffffffffffffffffff16815260200190815260200160002060008381526020019081526020016000206001018190555060066000828152602001908152602001600020600a01339080600181540180825580915050600190039060005260206000200160009091909190916101000a81548173ffffffffffffffffffffffffffffffffffffffff021916908373ffffffffffffffffffffffffffffffffffffffff1602179055506006600082815260200190815260200160002060090160066000838152602001908152602001600020600601549080600181540180825580915050600190039060005260206000200160009091909190915055613594565b600061297a610528565b9050806006600084815260200190815260200160002060080160006101000a81548160ff021916908360ff1602179055506000600660008481526020019081526020016000206002018054905067ffffffffffffffff8111156129e0576129df614258565b5b604051908082528060200260200182016040528015612a0e5781602001602082028036833780820191505090505b5090506000600660008581526020019081526020016000206003018054905067ffffffffffffffff811115612a4657612a45614258565b5b604051908082528060200260200182016040528015612a745781602001602082028036833780820191505090505b50905060066000858152602001908152602001600020600201805480602002602001604051908101604052809291908181526020018280548015612b0d57602002820191906000526020600020905b8160009054906101000a900473ffffffffffffffffffffffffffffffffffffffff1673ffffffffffffffffffffffffffffffffffffffff1681526020019060010190808311612ac3575b5050505050915060066000858152602001908152602001600020600301805480602002602001604051908101604052809291908181526020018280548015612b9a57602002820191906000526020600020906000905b82829054906101000a900460ff1660ff1681526020019060010190602082600001049283019260010382029150808411612b635790505b505050505090506000815167ffffffffffffffff811115612bbe57612bbd614258565b5b604051908082528060200260200182016040528015612bec5781602001602082028036833780820191505090505b50905060005b8351811015612d2d578460ff16838281518110612c1257612c116142c9565b5b602002602001015160ff161115612c755784838281518110612c3757612c366142c9565b5b6020026020010151612c499190614cef565b828281518110612c5c57612c5b6142c9565b5b602002602001019060ff16908160ff1681525050612d1a565b8460ff16838281518110612c8c57612c8b6142c9565b5b602002602001015160ff161015612cef57828181518110612cb057612caf6142c9565b5b602002602001015185612cc39190614cef565b828281518110612cd657612cd56142c9565b5b602002602001019060ff16908160ff1681525050612d19565b6000828281518110612d0457612d036142c9565b5b602002602001019060ff16908160ff16815250505b5b8080612d259061419f565b915050612bf2565b50600060038251612d3e9190614461565b905060008103612d4d57600190505b60008167ffffffffffffffff811115612d6957612d68614258565b5b604051908082528060200260200182016040528015612d975781602001602082028036833780820191505090505b50905060008267ffffffffffffffff811115612db657612db5614258565b5b604051908082528060200260200182016040528015612de45781602001602082028036833780820191505090505b50905060005b83811015612f4357600060649050600080600090505b88518160ff161015612e6e578260ff16888260ff1681518110612e2657612e256142c9565b5b602002602001015160ff161015612e5b57809150878160ff1681518110612e5057612e4f6142c9565b5b602002602001015192505b8080612e669061495a565b915050612e00565b506064878260ff1681518110612e8757612e866142c9565b5b602002602001019060ff16908160ff168152505080858481518110612eaf57612eae6142c9565b5b602002602001019060ff16908160ff1681525050888160ff1681518110612ed957612ed86142c9565b5b6020026020010151848481518110612ef457612ef36142c9565b5b602002602001019073ffffffffffffffffffffffffffffffffffffffff16908173ffffffffffffffffffffffffffffffffffffffff168152505050508080612f3b9061419f565b915050612dea565b506001831115613396576000600660008a81526020019081526020016000206006015490506000600390506000600290505b8351811015612fac576001600283612f8d9190614d24565b612f979190614d61565b91508080612fa49061419f565b915050612f75565b5060008160ff1683612fbe9190614461565b9050600060018551612fd091906141e7565b90505b60008111156131c4578160096000878481518110612ff457612ff36142c9565b5b602002602001015173ffffffffffffffffffffffffffffffffffffffff1673ffffffffffffffffffffffffffffffffffffffff16815260200190815260200160002060008e815260200190815260200160002060010181905550600160096000878481518110613067576130666142c9565b5b602002602001015173ffffffffffffffffffffffffffffffffffffffff1673ffffffffffffffffffffffffffffffffffffffff16815260200190815260200160002060008e815260200190815260200160002060000160006101000a81548160ff021916908315150217905550600660008d8152602001908152602001600020600901829080600181540180825580915050600190039060005260206000200160009091909190915055600660008d8152602001908152602001600020600a0185828151811061313a576131396142c9565b5b60200260200101519080600181540180825580915050600190039060005260206000200160009091909190916101000a81548173ffffffffffffffffffffffffffffffffffffffff021916908373ffffffffffffffffffffffffffffffffffffffff1602179055506002826131af9190614287565b915080806131bc90614d96565b915050612fd3565b508060096000866000815181106131de576131dd6142c9565b5b602002602001015173ffffffffffffffffffffffffffffffffffffffff1673ffffffffffffffffffffffffffffffffffffffff16815260200190815260200160002060008d81526020019081526020016000206001018190555060016009600086600081518110613252576132516142c9565b5b602002602001015173ffffffffffffffffffffffffffffffffffffffff1673ffffffffffffffffffffffffffffffffffffffff16815260200190815260200160002060008d815260200190815260200160002060000160006101000a81548160ff021916908315150217905550600660008c8152602001908152602001600020600901819080600181540180825580915050600190039060005260206000200160009091909190915055600660008c8152602001908152602001600020600a0184600081518110613326576133256142c9565b5b60200260200101519080600181540180825580915050600190039060005260206000200160009091909190916101000a81548173ffffffffffffffffffffffffffffffffffffffff021916908373ffffffffffffffffffffffffffffffffffffffff16021790555050505061358c565b600160096000836000815181106133b0576133af6142c9565b5b602002602001015173ffffffffffffffffffffffffffffffffffffffff1673ffffffffffffffffffffffffffffffffffffffff16815260200190815260200160002060008a815260200190815260200160002060000160006101000a81548160ff0219169083151502179055506006600089815260200190815260200160002060060154600960008360008151811061344c5761344b6142c9565b5b602002602001015173ffffffffffffffffffffffffffffffffffffffff1673ffffffffffffffffffffffffffffffffffffffff16815260200190815260200160002060008a81526020019081526020016000206001018190555060066000898152602001908152602001600020600901600660008a815260200190815260200160002060060154908060018154018082558091505060019003906000526020600020016000909190919091505560066000898152602001908152602001600020600a0181600081518110613523576135226142c9565b5b60200260200101519080600181540180825580915050600190039060005260206000200160009091909190916101000a81548173ffffffffffffffffffffffffffffffffffffffff021916908373ffffffffffffffffffffffffffffffffffffffff1602179055505b505050505050505b60016006600083815260200190815260200160002060000160146101000a81548160ff021916908315150217905550806003819055507f209a55bba776902f2cfaee248ae0190aff791920796c7411808344e9f314a8738160066000848152602001908152602001600020600a016006600085815260200190815260200160002060090160066000868152602001908152602001600020600c0160009054906101000a900473ffffffffffffffffffffffffffffffffffffffff1660405161365f9493929190614f74565b60405180910390a150565b60006007600084815260200190815260200160002060008373ffffffffffffffffffffffffffffffffffffffff1673ffffffffffffffffffffffffffffffffffffffff16815260200190815260200160002060000160019054906101000a900460ff16905092915050565b600060066000838152602001908152602001600020600c0160009054906101000a900473ffffffffffffffffffffffffffffffffffffffff169050919050565b61371d613807565b60008161ffff1603613764576040517f08c379a000000000000000000000000000000000000000000000000000000000815260040161375b90615039565b60405180910390fd5b80600460026101000a81548161ffff021916908361ffff16021790555050565b61378c613807565b600073ffffffffffffffffffffffffffffffffffffffff168173ffffffffffffffffffffffffffffffffffffffff16036137fb576040517f08c379a00000000000000000000000000000000000000000000000000000000081526004016137f2906150cb565b60405180910390fd5b61380481613885565b50565b61380f613949565b73ffffffffffffffffffffffffffffffffffffffff1661382d6114c1565b73ffffffffffffffffffffffffffffffffffffffff1614613883576040517f08c379a000000000000000000000000000000000000000000000000000000000815260040161387a90615137565b60405180910390fd5b565b60008060009054906101000a900473ffffffffffffffffffffffffffffffffffffffff169050816000806101000a81548173ffffffffffffffffffffffffffffffffffffffff021916908373ffffffffffffffffffffffffffffffffffffffff1602179055508173ffffffffffffffffffffffffffffffffffffffff168173ffffffffffffffffffffffffffffffffffffffff167f8be0079c531659141344cd1fd0a4f28419497f9722a3daafe3b4186f6b6457e060405160405180910390a35050565b600033905090565b600060ff82169050919050565b61396781613951565b82525050565b6000602082019050613982600083018461395e565b92915050565b600080fd5b600073ffffffffffffffffffffffffffffffffffffffff82169050919050565b60006139b88261398d565b9050919050565b6139c8816139ad565b81146139d357600080fd5b50565b6000813590506139e5816139bf565b92915050565b600060208284031215613a0157613a00613988565b5b6000613a0f848285016139d6565b91505092915050565b600081519050919050565b600082825260208201905092915050565b6000819050602082019050919050565b6000819050919050565b613a5781613a44565b82525050565b6000613a698383613a4e565b60208301905092915050565b6000602082019050919050565b6000613a8d82613a18565b613a978185613a23565b9350613aa283613a34565b8060005b83811015613ad3578151613aba8882613a5d565b9750613ac583613a75565b925050600181019050613aa6565b5085935050505092915050565b60006020820190508181036000830152613afa8184613a82565b905092915050565b600061ffff82169050919050565b613b1981613b02565b82525050565b6000602082019050613b346000830184613b10565b92915050565b613b4381613a44565b8114613b4e57600080fd5b50565b600081359050613b6081613b3a565b92915050565b60008060408385031215613b7d57613b7c613988565b5b6000613b8b85828601613b51565b9250506020613b9c858286016139d6565b9150509250929050565b60008115159050919050565b613bbb81613ba6565b82525050565b6000604082019050613bd66000830185613bb2565b613be3602083018461395e565b9392505050565b600060208284031215613c0057613bff613988565b5b6000613c0e84828501613b51565b91505092915050565b613c2081613b02565b8114613c2b57600080fd5b50565b600081359050613c3d81613c17565b92915050565b600060208284031215613c5957613c58613988565b5b6000613c6784828501613c2e565b91505092915050565b600081519050919050565b600082825260208201905092915050565b6000819050602082019050919050565b613ca581613951565b82525050565b6000613cb78383613c9c565b60208301905092915050565b6000602082019050919050565b6000613cdb82613c70565b613ce58185613c7b565b9350613cf083613c8c565b8060005b83811015613d21578151613d088882613cab565b9750613d1383613cc3565b925050600181019050613cf4565b5085935050505092915050565b60006020820190508181036000830152613d488184613cd0565b905092915050565b613d59816139ad565b82525050565b613d6881613a44565b82525050565b600061012082019050613d84600083018c613d50565b613d91602083018b613bb2565b613d9e604083018a613d5f565b613dab6060830189613d5f565b613db86080830188613d5f565b613dc560a0830187613d5f565b613dd260c0830186613d5f565b613ddf60e083018561395e565b613ded610100830184613d50565b9a9950505050505050505050565b6000602082019050613e106000830184613d50565b92915050565b613e1f81613951565b8114613e2a57600080fd5b50565b600081359050613e3c81613e16565b92915050565b60008060008060808587031215613e5c57613e5b613988565b5b6000613e6a87828801613e2d565b9450506020613e7b87828801613e2d565b9350506040613e8c87828801613b51565b9250506060613e9d878288016139d6565b91505092959194509250565b60008060408385031215613ec057613ebf613988565b5b6000613ece858286016139d6565b9250506020613edf85828601613b51565b9150509250929050565b6000606082019050613efe6000830186613bb2565b613f0b6020830185613bb2565b613f186040830184613d5f565b949350505050565b60008060408385031215613f3757613f36613988565b5b6000613f4585828601613b51565b9250506020613f5685828601613e2d565b9150509250929050565b600081519050919050565b600082825260208201905092915050565b6000819050602082019050919050565b613f95816139ad565b82525050565b6000613fa78383613f8c565b60208301905092915050565b6000602082019050919050565b6000613fcb82613f60565b613fd58185613f6b565b9350613fe083613f7c565b8060005b83811015614011578151613ff88882613f9b565b975061400383613fb3565b925050600181019050613fe4565b5085935050505092915050565b600060608201905081810360008301526140388186613a82565b9050818103602083015261404c8185613fc0565b905081810360408301526140608184613a82565b9050949350505050565b6000819050919050565b61408561408082613a44565b61406a565b82525050565b60008160601b9050919050565b60006140a38261408b565b9050919050565b60006140b582614098565b9050919050565b6140cd6140c8826139ad565b6140aa565b82525050565b60006140df8286614074565b6020820191506140ef82856140bc565b6014820191506140ff8284614074565b602082019150819050949350505050565b7f4e487b7100000000000000000000000000000000000000000000000000000000600052601260045260246000fd5b600061414a82613a44565b915061415583613a44565b92508261416557614164614110565b5b828206905092915050565b7f4e487b7100000000000000000000000000000000000000000000000000000000600052601160045260246000fd5b60006141aa82613a44565b91507fffffffffffffffffffffffffffffffffffffffffffffffffffffffffffffffff82036141dc576141db614170565b5b600182019050919050565b60006141f282613a44565b91506141fd83613a44565b925082820390508181111561421557614214614170565b5b92915050565b600061422682613b02565b915061423183613b02565b925082820261423f81613b02565b915080821461425157614250614170565b5b5092915050565b7f4e487b7100000000000000000000000000000000000000000000000000000000600052604160045260246000fd5b600061429282613a44565b915061429d83613a44565b92508282026142ab81613a44565b915082820484148315176142c2576142c1614170565b5b5092915050565b7f4e487b7100000000000000000000000000000000000000000000000000000000600052603260045260246000fd5b600061430382613a44565b915061430e83613a44565b925082820190508082111561432657614325614170565b5b92915050565b600082825260208201905092915050565b7f46616972486967686c6f773a20596f7520617265206e6f7420612077696e6e6560008201527f72206f66207468652067616d6500000000000000000000000000000000000000602082015250565b6000614399602d8361432c565b91506143a48261433d565b604082019050919050565b600060208201905081810360008301526143c88161438c565b9050919050565b7f46616972486967686c6f773a205072697a6520697320636c61696d656420616c60008201527f7265616479000000000000000000000000000000000000000000000000000000602082015250565b600061442b60258361432c565b9150614436826143cf565b604082019050919050565b6000602082019050818103600083015261445a8161441e565b9050919050565b600061446c82613a44565b915061447783613a44565b92508261448757614486614110565b5b828204905092915050565b60006040820190506144a76000830185613d50565b6144b46020830184613d5f565b9392505050565b6144c481613ba6565b81146144cf57600080fd5b50565b6000815190506144e1816144bb565b92915050565b6000602082840312156144fd576144fc613988565b5b600061450b848285016144d2565b91505092915050565b7f46616972486967686c6f773a204e6577206665652070657263656e742069732060008201527f6c657373207468616e2031303030300000000000000000000000000000000000602082015250565b6000614570602f8361432c565b915061457b82614514565b604082019050919050565b6000602082019050818103600083015261459f81614563565b9050919050565b7f46616972486967686c6f773a205573657247616d6573546f52657475726e4e7560008201527f6d626572206861766520746f206265206d6f7265207468616e20333000000000602082015250565b6000614602603c8361432c565b915061460d826145a6565b604082019050919050565b60006020820190508181036000830152614631816145f5565b9050919050565b7f46616972486967686c6f773a2043686f6f7365206e756d62657220626574776560008201527f656e203020616e64203130300000000000000000000000000000000000000000602082015250565b6000614694602c8361432c565b915061469f82614638565b604082019050919050565b600060208201905081810360008301526146c381614687565b9050919050565b7f46616972486967686c6f773a20616d6f756e742063616e277420626520300000600082015250565b6000614700601e8361432c565b915061470b826146ca565b602082019050919050565b6000602082019050818103600083015261472f816146f3565b9050919050565b600060608201905061474b6000830186613d50565b6147586020830185613d50565b6147656040830184613d5f565b949350505050565b60006060820190506147826000830186613d5f565b61478f6020830185613d5f565b61479c6040830184613d50565b949350505050565b7f46616972486967686c6f773a204e65772057616c6c657420697320616464726560008201527f7373283029000000000000000000000000000000000000000000000000000000602082015250565b600061480060258361432c565b915061480b826147a4565b604082019050919050565b6000602082019050818103600083015261482f816147f3565b9050919050565b7f46616972486967686c6f773a205468652067616d652069732066696e6973686560008201527f6400000000000000000000000000000000000000000000000000000000000000602082015250565b600061489260218361432c565b915061489d82614836565b604082019050919050565b600060208201905081810360008301526148c181614885565b9050919050565b7f46616972486967686c6f773a20416c72656164792065786973746564206e756d60008201527f6265720000000000000000000000000000000000000000000000000000000000602082015250565b600061492460238361432c565b915061492f826148c8565b604082019050919050565b6000602082019050818103600083015261495381614917565b9050919050565b600061496582613951565b915060ff820361497857614977614170565b5b600182019050919050565b7f46616972486967686c6f773a204f776e657220697320616c726561647920696e60008201527f207061727469636970616e7473206c6973740000000000000000000000000000602082015250565b60006149df60328361432c565b91506149ea82614983565b604082019050919050565b60006020820190508181036000830152614a0e816149d2565b9050919050565b7f46616972486967686c6f773a20596f752063616e206e6f74206a6f696e20747760008201527f6963650000000000000000000000000000000000000000000000000000000000602082015250565b6000614a7160238361432c565b9150614a7c82614a15565b604082019050919050565b60006020820190508181036000830152614aa081614a64565b9050919050565b7f46616972486967686c6f773a205061727469636970616e7473206c696d69742060008201527f686173206265656e207265616368656400000000000000000000000000000000602082015250565b6000614b0360308361432c565b9150614b0e82614aa7565b604082019050919050565b60006020820190508181036000830152614b3281614af6565b9050919050565b7f46616972486967686c6f773a205468652067616d652069732066696e6973686560008201527f6420616c72656164790000000000000000000000000000000000000000000000602082015250565b6000614b9560298361432c565b9150614ba082614b39565b604082019050919050565b60006020820190508181036000830152614bc481614b88565b9050919050565b7f46616972486967686c6f773a20596f752063616e2066696e697368206120676160008201527f6d65206f6e6c7920616674657220657861637420706572696f64000000000000602082015250565b6000614c27603a8361432c565b9150614c3282614bcb565b604082019050919050565b60006020820190508181036000830152614c5681614c1a565b9050919050565b7f46616972486967686c6f773a204f6e6c79207061727469636970616e7473206360008201527f616e2066696e69736820612067616d6500000000000000000000000000000000602082015250565b6000614cb960308361432c565b9150614cc482614c5d565b604082019050919050565b60006020820190508181036000830152614ce881614cac565b9050919050565b6000614cfa82613951565b9150614d0583613951565b9250828203905060ff811115614d1e57614d1d614170565b5b92915050565b6000614d2f82613951565b9150614d3a83613951565b9250828202614d4881613951565b9150808214614d5a57614d59614170565b5b5092915050565b6000614d6c82613951565b9150614d7783613951565b9250828201905060ff811115614d9057614d8f614170565b5b92915050565b6000614da182613a44565b915060008203614db457614db3614170565b5b600182039050919050565b600081549050919050565b60008190508160005260206000209050919050565b60008160001c9050919050565b600073ffffffffffffffffffffffffffffffffffffffff82169050919050565b6000614e1f614e1a83614ddf565b614dec565b9050919050565b6000614e328254614e0c565b9050919050565b6000600182019050919050565b6000614e5182614dbf565b614e5b8185613f6b565b9350614e6683614dca565b8060005b83811015614e9e57614e7b82614e26565b614e858882613f9b565b9750614e9083614e39565b925050600181019050614e6a565b5085935050505092915050565b600081549050919050565b60008190508160005260206000209050919050565b6000819050919050565b6000614ee8614ee383614ddf565b614ecb565b9050919050565b6000614efb8254614ed5565b9050919050565b6000600182019050919050565b6000614f1a82614eab565b614f248185613a23565b9350614f2f83614eb6565b8060005b83811015614f6757614f4482614eef565b614f4e8882613a5d565b9750614f5983614f02565b925050600181019050614f33565b5085935050505092915050565b6000608082019050614f896000830187613d5f565b8181036020830152614f9b8186614e46565b90508181036040830152614faf8185614f0f565b9050614fbe6060830184613d50565b95945050505050565b7f46616972486967686c6f773a2054696d6520746f2066696e697368206973206560008201527f7175616c20746f20300000000000000000000000000000000000000000000000602082015250565b600061502360298361432c565b915061502e82614fc7565b604082019050919050565b6000602082019050818103600083015261505281615016565b9050919050565b7f4f776e61626c653a206e6577206f776e657220697320746865207a65726f206160008201527f6464726573730000000000000000000000000000000000000000000000000000602082015250565b60006150b560268361432c565b91506150c082615059565b604082019050919050565b600060208201905081810360008301526150e4816150a8565b9050919050565b7f4f776e61626c653a2063616c6c6572206973206e6f7420746865206f776e6572600082015250565b600061512160208361432c565b915061512c826150eb565b602082019050919050565b6000602082019050818103600083015261515081615114565b905091905056fea2646970667358221220a74fa0b8b3b9fe2922682eede28d09d05916168fbd2c041a3a5e840395e769bf64736f6c63430008110033",
  "linkReferences": {},
  "deployedLinkReferences": {}
}