{
  "contractName": "Fair",
  "abi": [
    {
      "inputs": [
        {
          "internalType": "uint256",
          "name": "",
          "type": "uint256"
        },
        {
          "internalType": "address",
          "name": "",
          "type": "address"
        }
      ],
      "name": "biddersList",
      "outputs": [
        {
          "internalType": "bool",
          "name": "participatedFlag",
          "type": "bool"
        },
        {
          "internalType": "uint8",
          "name": "number",
          "type": "uint8"
        }
      ],
      "stateMutability": "view",
      "type": "function",
      "constant": true
    },
    {
      "inputs": [
        {
          "internalType": "uint256",
          "name": "",
          "type": "uint256"
        }
      ],
      "name": "gamesList",
      "outputs": [
        {
          "internalType": "address",
          "name": "owner",
          "type": "address"
        },
        {
          "internalType": "bool",
          "name": "isFinished",
          "type": "bool"
        },
        {
          "internalType": "uint256",
          "name": "bid",
          "type": "uint256"
        },
        {
          "internalType": "uint256",
          "name": "participantsLimit",
          "type": "uint256"
        },
        {
          "internalType": "uint256",
          "name": "createdTimestamp",
          "type": "uint256"
        },
        {
          "internalType": "uint256",
          "name": "pool",
          "type": "uint256"
        },
        {
          "internalType": "uint256",
          "name": "individualPrize",
          "type": "uint256"
        },
        {
          "internalType": "uint8",
          "name": "luckyNumber",
          "type": "uint8"
        }
      ],
      "stateMutability": "view",
      "type": "function",
      "constant": true
    },
    {
      "inputs": [
        {
          "internalType": "address",
          "name": "",
          "type": "address"
        },
        {
          "internalType": "uint256",
          "name": "",
          "type": "uint256"
        }
      ],
      "name": "prizeList",
      "outputs": [
        {
          "internalType": "bool",
          "name": "isWinner",
          "type": "bool"
        },
        {
          "internalType": "bool",
          "name": "isClaimed",
          "type": "bool"
        },
        {
          "internalType": "uint256",
          "name": "prize",
          "type": "uint256"
        }
      ],
      "stateMutability": "view",
      "type": "function",
      "constant": true
    },
    {
      "inputs": [
        {
          "internalType": "uint8",
          "name": "_number",
          "type": "uint8"
        },
        {
          "internalType": "uint8",
          "name": "_limit",
          "type": "uint8"
        }
      ],
      "name": "createGame",
      "outputs": [],
      "stateMutability": "payable",
      "type": "function",
      "payable": true
    },
    {
      "inputs": [
        {
          "internalType": "uint256",
          "name": "_gameId",
          "type": "uint256"
        },
        {
          "internalType": "uint8",
          "name": "_number",
          "type": "uint8"
        }
      ],
      "name": "joinGame",
      "outputs": [],
      "stateMutability": "payable",
      "type": "function",
      "payable": true
    },
    {
      "inputs": [
        {
          "internalType": "uint256",
          "name": "_gameId",
          "type": "uint256"
        }
      ],
      "name": "finishGame",
      "outputs": [],
      "stateMutability": "nonpayable",
      "type": "function"
    },
    {
      "inputs": [
        {
          "internalType": "uint256",
          "name": "_gameId",
          "type": "uint256"
        }
      ],
      "name": "claim",
      "outputs": [],
      "stateMutability": "nonpayable",
      "type": "function"
    },
    {
      "inputs": [],
      "name": "getActualGames",
      "outputs": [
        {
          "internalType": "uint256[]",
          "name": "",
          "type": "uint256[]"
        }
      ],
      "stateMutability": "view",
      "type": "function",
      "constant": true
    },
    {
      "inputs": [
        {
          "internalType": "uint256",
          "name": "_gameId",
          "type": "uint256"
        }
      ],
      "name": "getOwner",
      "outputs": [
        {
          "internalType": "address",
          "name": "",
          "type": "address"
        }
      ],
      "stateMutability": "view",
      "type": "function",
      "constant": true
    },
    {
      "inputs": [
        {
          "internalType": "uint256",
          "name": "_gameId",
          "type": "uint256"
        },
        {
          "internalType": "address",
          "name": "adr",
          "type": "address"
        }
      ],
      "name": "getBet",
      "outputs": [
        {
          "internalType": "uint8",
          "name": "",
          "type": "uint8"
        }
      ],
      "stateMutability": "view",
      "type": "function",
      "constant": true
    },
    {
      "inputs": [
        {
          "internalType": "uint256",
          "name": "_gameId",
          "type": "uint256"
        }
      ],
      "name": "getNumbers",
      "outputs": [
        {
          "internalType": "uint8[]",
          "name": "",
          "type": "uint8[]"
        }
      ],
      "stateMutability": "view",
      "type": "function",
      "constant": true
    },
    {
      "inputs": [
        {
          "internalType": "uint256",
          "name": "_gameId",
          "type": "uint256"
        }
      ],
      "name": "getPrizes",
      "outputs": [
        {
          "internalType": "uint256[]",
          "name": "",
          "type": "uint256[]"
        },
        {
          "internalType": "address[]",
          "name": "",
          "type": "address[]"
        },
        {
          "internalType": "uint256[]",
          "name": "",
          "type": "uint256[]"
        }
      ],
      "stateMutability": "view",
      "type": "function",
      "constant": true
    },
    {
      "inputs": [
        {
          "internalType": "address",
          "name": "_user",
          "type": "address"
        }
      ],
      "name": "getUserGames",
      "outputs": [
        {
          "internalType": "uint256[]",
          "name": "",
          "type": "uint256[]"
        }
      ],
      "stateMutability": "view",
      "type": "function",
      "constant": true
    },
    {
      "inputs": [],
      "name": "generateRandom",
      "outputs": [
        {
          "internalType": "uint8",
          "name": "",
          "type": "uint8"
        }
      ],
      "stateMutability": "nonpayable",
      "type": "function"
    }
  ],
  "bytecode": "0x608060405234801561001057600080fd5b50613c4a806100206000396000f3fe6080604052600436106100dd5760003560e01c80635054c0a31161007f578063ca6649c511610059578063ca6649c5146102f5578063cc30779514610311578063cfe186b214610350578063e0950ddf14610379576100dd565b80635054c0a3146102355780639ff0f4a914610279578063c41a360a146102b8576100dd565b806316466fe6116100bb57806316466fe614610166578063208970d514610191578063379607f5146101cf5780634a7b26ae146101f8576100dd565b806302e4af01146100e2578063120aace61461010d5780631346a76d1461014a575b600080fd5b3480156100ee57600080fd5b506100f76103b6565b6040516101049190612bee565b60405180910390f35b34801561011957600080fd5b50610134600480360381019061012f9190612c6c565b610416565b6040516101419190612d61565b60405180910390f35b610164600480360381019061015f9190612daf565b61097f565b005b34801561017257600080fd5b5061017b610d59565b6040516101889190612d61565b60405180910390f35b34801561019d57600080fd5b506101b860048036038101906101b39190612e1b565b610f5d565b6040516101c6929190612e76565b60405180910390f35b3480156101db57600080fd5b506101f660048036038101906101f19190612e9f565b610fa8565b005b34801561020457600080fd5b5061021f600480360381019061021a9190612e9f565b6111ff565b60405161022c9190612f8a565b60405180910390f35b34801561024157600080fd5b5061025c60048036038101906102579190612e9f565b611293565b604051610270989796959493929190612fca565b60405180910390f35b34801561028557600080fd5b506102a0600480360381019061029b9190613048565b611315565b6040516102af93929190613088565b60405180910390f35b3480156102c457600080fd5b506102df60048036038101906102da9190612e9f565b611366565b6040516102ec91906130bf565b60405180910390f35b61030f600480360381019061030a91906130da565b6113a6565b005b34801561031d57600080fd5b5061033860048036038101906103339190612e9f565b6118df565b604051610347939291906131d8565b60405180910390f35b34801561035c57600080fd5b5061037760048036038101906103729190612e9f565b611ccf565b005b34801561038557600080fd5b506103a0600480360381019061039b9190612e1b565b612b67565b6040516103ad9190612bee565b60405180910390f35b600080606542336001546040516020016103d29392919061328d565b6040516020818303038152906040528051906020012060001c6103f591906132f9565b90506001600081548092919061040a90613359565b91905055508091505090565b606060006008600660008573ffffffffffffffffffffffffffffffffffffffff1673ffffffffffffffffffffffffffffffffffffffff1681526020019081526020016000206000018054905061046c91906133a2565b67ffffffffffffffff811115610485576104846133fc565b5b6040519080825280602002602001820160405280156104b35781602001602082028036833780820191505090505b5090506000805b600660008673ffffffffffffffffffffffffffffffffffffffff1673ffffffffffffffffffffffffffffffffffffffff16815260200190815260200160002060000180549050811015610974576000600660008773ffffffffffffffffffffffffffffffffffffffff1673ffffffffffffffffffffffffffffffffffffffff168152602001908152602001600020600001828154811061055d5761055c61342b565b5b9060005260206000200154905060046000828152602001908152602001600020600101548484815181106105945761059361342b565b5b6020026020010181815250506004600082815260200190815260200160002060050154846001856105c5919061345a565b815181106105d6576105d561342b565b5b60200260200101818152505060046000828152602001908152602001600020600201805490508460028561060a919061345a565b8151811061061b5761061a61342b565b5b6020026020010181815250508084600485610636919061345a565b815181106106475761064661342b565b5b602002602001018181525050600460008281526020019081526020016000206006015484600585610678919061345a565b815181106106895761068861342b565b5b6020026020010181815250506004600082815260200190815260200160002060080160009054906101000a900460ff1660ff16846006856106ca919061345a565b815181106106db576106da61342b565b5b602002602001018181525050600760008773ffffffffffffffffffffffffffffffffffffffff1673ffffffffffffffffffffffffffffffffffffffff16815260200190815260200160002060008281526020019081526020016000206001015484600785610749919061345a565b8151811061075a5761075961342b565b5b602002602001018181525050600760008773ffffffffffffffffffffffffffffffffffffffff1673ffffffffffffffffffffffffffffffffffffffff168152602001908152602001600020600082815260200190815260200160002060000160019054906101000a900460ff16156107fe576000846003856107dc919061345a565b815181106107ed576107ec61342b565b5b602002602001018181525050610951565b600760008773ffffffffffffffffffffffffffffffffffffffff1673ffffffffffffffffffffffffffffffffffffffff168152602001908152602001600020600082815260200190815260200160002060000160009054906101000a900460ff161561089657600184600385610874919061345a565b815181106108855761088461342b565b5b602002602001018181525050610950565b6004600082815260200190815260200160002060000160149054906101000a900460ff161580156108ea575061012c60046000838152602001908152602001600020600501546108e6919061345a565b4210155b15610921576002846003856108ff919061345a565b815181106109105761090f61342b565b5b60200260200101818152505061094f565b600084600385610931919061345a565b815181106109425761094161342b565b5b6020026020010181815250505b5b5b60088361095e919061345a565b925050808061096c90613359565b9150506104ba565b508192505050919050565b8160008160ff1610158015610998575060648160ff1611155b6109d7576040517f08c379a00000000000000000000000000000000000000000000000000000000081526004016109ce9061350d565b60405180910390fd5b60003411610a1a576040517f08c379a0000000000000000000000000000000000000000000000000000000008152600401610a119061359f565b60405180910390fd5b33600460008054815260200190815260200160002060000160006101000a81548173ffffffffffffffffffffffffffffffffffffffff021916908373ffffffffffffffffffffffffffffffffffffffff1602179055503460046000805481526020019081526020016000206006016000828254610a97919061345a565b92505081905550346004600080548152602001908152602001600020600101819055506004600080548152602001908152602001600020600201339080600181540180825580915050600190039060005260206000200160009091909190916101000a81548173ffffffffffffffffffffffffffffffffffffffff021916908373ffffffffffffffffffffffffffffffffffffffff1602179055508160ff1660046000805481526020019081526020016000206004018190555060046000805481526020019081526020016000206003018390806001815401808255809150506001900390600052602060002090602091828204019190069091909190916101000a81548160ff021916908360ff160217905550426004600080548152602001908152602001600020600501819055506000600460008054815260200190815260200160002060080160006101000a81548160ff021916908360ff16021790555082600560008054815260200190815260200160002060003373ffffffffffffffffffffffffffffffffffffffff1673ffffffffffffffffffffffffffffffffffffffff16815260200190815260200160002060000160016101000a81548160ff021916908360ff1602179055506001600560008054815260200190815260200160002060003373ffffffffffffffffffffffffffffffffffffffff1673ffffffffffffffffffffffffffffffffffffffff16815260200190815260200160002060000160006101000a81548160ff021916908315150217905550600660003373ffffffffffffffffffffffffffffffffffffffff1673ffffffffffffffffffffffffffffffffffffffff1681526020019081526020016000206000016000549080600181540180825580915050600190039060005260206000200160009091909190915055600080815480929190610d4f90613359565b9190505550505050565b606060006005600254600054610d6f91906135bf565b610d7991906133a2565b67ffffffffffffffff811115610d9257610d916133fc565b5b604051908082528060200260200182016040528015610dc05781602001602082028036833780820191505090505b50905060008060025490505b600054811015610f5457600015156004600083815260200190815260200160002060000160149054906101000a900460ff1615151415610f41576004600082815260200190815260200160002060010154838381518110610e3057610e2f61342b565b5b602002602001018181525050600460008281526020019081526020016000206005015483600184610e61919061345a565b81518110610e7257610e7161342b565b5b602002602001018181525050600460008281526020019081526020016000206002018054905083600284610ea6919061345a565b81518110610eb757610eb661342b565b5b6020026020010181815250508083600384610ed2919061345a565b81518110610ee357610ee261342b565b5b602002602001018181525050600460008281526020019081526020016000206004015483600484610f14919061345a565b81518110610f2557610f2461342b565b5b602002602001018181525050600582610f3e919061345a565b91505b8080610f4c90613359565b915050610dcc565b50819250505090565b6005602052816000526040600020602052806000526040600020600091509150508060000160009054906101000a900460ff16908060000160019054906101000a900460ff16905082565b60011515600760003373ffffffffffffffffffffffffffffffffffffffff1673ffffffffffffffffffffffffffffffffffffffff168152602001908152602001600020600083815260200190815260200160002060000160009054906101000a900460ff1615151461104f576040517f08c379a00000000000000000000000000000000000000000000000000000000081526004016110469061363f565b60405180910390fd5b60001515600760003373ffffffffffffffffffffffffffffffffffffffff1673ffffffffffffffffffffffffffffffffffffffff168152602001908152602001600020600083815260200190815260200160002060000160019054906101000a900460ff161515146110f6576040517f08c379a00000000000000000000000000000000000000000000000000000000081526004016110ed906136ab565b60405180910390fd5b6001600760003373ffffffffffffffffffffffffffffffffffffffff1673ffffffffffffffffffffffffffffffffffffffff168152602001908152602001600020600083815260200190815260200160002060000160016101000a81548160ff0219169083151502179055503373ffffffffffffffffffffffffffffffffffffffff166108fc600760003373ffffffffffffffffffffffffffffffffffffffff1673ffffffffffffffffffffffffffffffffffffffff1681526020019081526020016000206000848152602001908152602001600020600101549081150290604051600060405180830381858888f193505050501580156111fb573d6000803e3d6000fd5b5050565b60606004600083815260200190815260200160002060030180548060200260200160405190810160405280929190818152602001828054801561128757602002820191906000526020600020906000905b82829054906101000a900460ff1660ff16815260200190600101906020826000010492830192600103820291508084116112505790505b50505050509050919050565b60046020528060005260406000206000915090508060000160009054906101000a900473ffffffffffffffffffffffffffffffffffffffff16908060000160149054906101000a900460ff16908060010154908060040154908060050154908060060154908060070154908060080160009054906101000a900460ff16905088565b6007602052816000526040600020602052806000526040600020600091509150508060000160009054906101000a900460ff16908060000160019054906101000a900460ff16908060010154905083565b60006004600083815260200190815260200160002060000160009054906101000a900473ffffffffffffffffffffffffffffffffffffffff169050919050565b8060008160ff16101580156113bf575060648160ff1611155b6113fe576040517f08c379a00000000000000000000000000000000000000000000000000000000081526004016113f59061350d565b60405180910390fd5b8261012c6004600083815260200190815260200160002060050154611423919061345a565b421115611465576040517f08c379a000000000000000000000000000000000000000000000000000000000815260040161145c90613717565b60405180910390fd5b600460008581526020019081526020016000206001015434146114bd576040517f08c379a00000000000000000000000000000000000000000000000000000000081526004016114b4906137a9565b60405180910390fd5b6004600085815260200190815260200160002060000160009054906101000a900473ffffffffffffffffffffffffffffffffffffffff1673ffffffffffffffffffffffffffffffffffffffff163373ffffffffffffffffffffffffffffffffffffffff161415611562576040517f08c379a00000000000000000000000000000000000000000000000000000000081526004016115599061383b565b60405180910390fd5b600015156005600086815260200190815260200160002060003373ffffffffffffffffffffffffffffffffffffffff1673ffffffffffffffffffffffffffffffffffffffff16815260200190815260200160002060000160009054906101000a900460ff16151514611609576040517f08c379a0000000000000000000000000000000000000000000000000000000008152600401611600906138a7565b60405180910390fd5b60006004600086815260200190815260200160002060040154148061165c575060046000858152602001908152602001600020600401546004600086815260200190815260200160002060020180549050105b61169b576040517f08c379a000000000000000000000000000000000000000000000000000000000815260040161169290613939565b60405180910390fd5b346004600086815260200190815260200160002060060160008282546116c1919061345a565b9250508190555060046000858152602001908152602001600020600201339080600181540180825580915050600190039060005260206000200160009091909190916101000a81548173ffffffffffffffffffffffffffffffffffffffff021916908373ffffffffffffffffffffffffffffffffffffffff160217905550600460008581526020019081526020016000206003018390806001815401808255809150506001900390600052602060002090602091828204019190069091909190916101000a81548160ff021916908360ff160217905550826005600086815260200190815260200160002060003373ffffffffffffffffffffffffffffffffffffffff1673ffffffffffffffffffffffffffffffffffffffff16815260200190815260200160002060000160016101000a81548160ff021916908360ff16021790555060016005600086815260200190815260200160002060003373ffffffffffffffffffffffffffffffffffffffff1673ffffffffffffffffffffffffffffffffffffffff16815260200190815260200160002060000160006101000a81548160ff021916908315150217905550600660003373ffffffffffffffffffffffffffffffffffffffff1673ffffffffffffffffffffffffffffffffffffffff16815260200190815260200160002060000184908060018154018082558091505060019003906000526020600020016000909190919091505550505050565b60608060606000600460008681526020019081526020016000206002018054905067ffffffffffffffff811115611919576119186133fc565b5b6040519080825280602002602001820160405280156119475781602001602082028036833780820191505090505b5090506000600460008781526020019081526020016000206009018054905067ffffffffffffffff81111561197f5761197e6133fc565b5b6040519080825280602002602001820160405280156119ad5781602001602082028036833780820191505090505b509050600060046000888152602001908152602001600020600a018054905067ffffffffffffffff8111156119e5576119e46133fc565b5b604051908082528060200260200182016040528015611a135781602001602082028036833780820191505090505b50905060005b6004600089815260200190815260200160002060020180549050811015611cbb57600460008981526020019081526020016000206003018181548110611a6257611a6161342b565b5b90600052602060002090602091828204019190069054906101000a900460ff1660ff16848281518110611a9857611a9761342b565b5b602002602001018181525050600460008981526020019081526020016000206002018181548110611acc57611acb61342b565b5b9060005260206000200160009054906101000a900473ffffffffffffffffffffffffffffffffffffffff16828281518110611b0a57611b0961342b565b5b602002602001019073ffffffffffffffffffffffffffffffffffffffff16908173ffffffffffffffffffffffffffffffffffffffff168152505060008060005b600460008c8152602001908152602001600020600a0180549050811015611c2657848481518110611b7e57611b7d61342b565b5b602002602001015173ffffffffffffffffffffffffffffffffffffffff16600460008d8152602001908152602001600020600a018281548110611bc457611bc361342b565b5b9060005260206000200160009054906101000a900473ffffffffffffffffffffffffffffffffffffffff1673ffffffffffffffffffffffffffffffffffffffff161415611c1357600192508091505b8080611c1e90613359565b915050611b4a565b508115611c8457600460008b81526020019081526020016000206009018181548110611c5557611c5461342b565b5b9060005260206000200154858481518110611c7357611c7261342b565b5b602002602001018181525050611ca6565b6000858481518110611c9957611c9861342b565b5b6020026020010181815250505b50508080611cb390613359565b915050611a19565b508181849550955095505050509193909250565b600015156004600083815260200190815260200160002060000160149054906101000a900460ff16151514611d39576040517f08c379a0000000000000000000000000000000000000000000000000000000008152600401611d30906139a5565b60405180910390fd5b61012c6004600083815260200190815260200160002060050154611d5d919061345a565b4211611d9e576040517f08c379a0000000000000000000000000000000000000000000000000000000008152600401611d9590613a37565b60405180910390fd5b600115156005600083815260200190815260200160002060003373ffffffffffffffffffffffffffffffffffffffff1673ffffffffffffffffffffffffffffffffffffffff16815260200190815260200160002060000160009054906101000a900460ff16151514611e45576040517f08c379a0000000000000000000000000000000000000000000000000000000008152600401611e3c90613ac9565b60405180910390fd5b600160046000838152602001908152602001600020600201805490501415611f09576001600760003373ffffffffffffffffffffffffffffffffffffffff1673ffffffffffffffffffffffffffffffffffffffff168152602001908152602001600020600083815260200190815260200160002060000160006101000a81548160ff02191690831515021790555060046000828152602001908152602001600020600601546004600083815260200190815260200160002060070181905550612b2e565b6000611f136103b6565b9050806004600084815260200190815260200160002060080160006101000a81548160ff021916908360ff1602179055506000600460008481526020019081526020016000206002018054905067ffffffffffffffff811115611f7957611f786133fc565b5b604051908082528060200260200182016040528015611fa75781602001602082028036833780820191505090505b5090506000600460008581526020019081526020016000206003018054905067ffffffffffffffff811115611fdf57611fde6133fc565b5b60405190808252806020026020018201604052801561200d5781602001602082028036833780820191505090505b509050600460008581526020019081526020016000206002018054806020026020016040519081016040528092919081815260200182805480156120a657602002820191906000526020600020905b8160009054906101000a900473ffffffffffffffffffffffffffffffffffffffff1673ffffffffffffffffffffffffffffffffffffffff168152602001906001019080831161205c575b505050505091506004600085815260200190815260200160002060030180548060200260200160405190810160405280929190818152602001828054801561213357602002820191906000526020600020906000905b82829054906101000a900460ff1660ff16815260200190600101906020826000010492830192600103820291508084116120fc5790505b505050505090506000815167ffffffffffffffff811115612157576121566133fc565b5b6040519080825280602002602001820160405280156121855781602001602082028036833780820191505090505b50905060005b83518110156122c6578460ff168382815181106121ab576121aa61342b565b5b602002602001015160ff16111561220e57848382815181106121d0576121cf61342b565b5b60200260200101516121e29190613ae9565b8282815181106121f5576121f461342b565b5b602002602001019060ff16908160ff16815250506122b3565b8460ff168382815181106122255761222461342b565b5b602002602001015160ff161015612288578281815181106122495761224861342b565b5b60200260200101518561225c9190613ae9565b82828151811061226f5761226e61342b565b5b602002602001019060ff16908160ff16815250506122b2565b600082828151811061229d5761229c61342b565b5b602002602001019060ff16908160ff16815250505b5b80806122be90613359565b91505061218b565b506000600382516122d79190613b1d565b905060008114156122e757600190505b60008167ffffffffffffffff811115612303576123026133fc565b5b6040519080825280602002602001820160405280156123315781602001602082028036833780820191505090505b50905060008267ffffffffffffffff8111156123505761234f6133fc565b5b60405190808252806020026020018201604052801561237e5781602001602082028036833780820191505090505b50905060005b838110156124dd57600060649050600080600090505b88518160ff161015612408578260ff16888260ff16815181106123c0576123bf61342b565b5b602002602001015160ff1610156123f557809150878160ff16815181106123ea576123e961342b565b5b602002602001015192505b808061240090613b4e565b91505061239a565b506064878260ff16815181106124215761242061342b565b5b602002602001019060ff16908160ff1681525050808584815181106124495761244861342b565b5b602002602001019060ff16908160ff1681525050888160ff16815181106124735761247261342b565b5b602002602001015184848151811061248e5761248d61342b565b5b602002602001019073ffffffffffffffffffffffffffffffffffffffff16908173ffffffffffffffffffffffffffffffffffffffff1681525050505080806124d590613359565b915050612384565b506001831115612930576000600460008a81526020019081526020016000206006015490506000600390506000600290505b83518110156125465760016002836125279190613b78565b6125319190613bb3565b9150808061253e90613359565b91505061250f565b5060008160ff16836125589190613b1d565b905060006001855161256a91906135bf565b90505b600081111561275e57816007600087848151811061258e5761258d61342b565b5b602002602001015173ffffffffffffffffffffffffffffffffffffffff1673ffffffffffffffffffffffffffffffffffffffff16815260200190815260200160002060008e8152602001908152602001600020600101819055506001600760008784815181106126015761260061342b565b5b602002602001015173ffffffffffffffffffffffffffffffffffffffff1673ffffffffffffffffffffffffffffffffffffffff16815260200190815260200160002060008e815260200190815260200160002060000160006101000a81548160ff021916908315150217905550600460008d8152602001908152602001600020600901829080600181540180825580915050600190039060005260206000200160009091909190915055600460008d8152602001908152602001600020600a018582815181106126d4576126d361342b565b5b60200260200101519080600181540180825580915050600190039060005260206000200160009091909190916101000a81548173ffffffffffffffffffffffffffffffffffffffff021916908373ffffffffffffffffffffffffffffffffffffffff16021790555060028261274991906133a2565b9150808061275690613bea565b91505061256d565b508060076000866000815181106127785761277761342b565b5b602002602001015173ffffffffffffffffffffffffffffffffffffffff1673ffffffffffffffffffffffffffffffffffffffff16815260200190815260200160002060008d815260200190815260200160002060010181905550600160076000866000815181106127ec576127eb61342b565b5b602002602001015173ffffffffffffffffffffffffffffffffffffffff1673ffffffffffffffffffffffffffffffffffffffff16815260200190815260200160002060008d815260200190815260200160002060000160006101000a81548160ff021916908315150217905550600460008c8152602001908152602001600020600901819080600181540180825580915050600190039060005260206000200160009091909190915055600460008c8152602001908152602001600020600a01846000815181106128c0576128bf61342b565b5b60200260200101519080600181540180825580915050600190039060005260206000200160009091909190916101000a81548173ffffffffffffffffffffffffffffffffffffffff021916908373ffffffffffffffffffffffffffffffffffffffff160217905550505050612b26565b6001600760008360008151811061294a5761294961342b565b5b602002602001015173ffffffffffffffffffffffffffffffffffffffff1673ffffffffffffffffffffffffffffffffffffffff16815260200190815260200160002060008a815260200190815260200160002060000160006101000a81548160ff021916908315150217905550600460008981526020019081526020016000206006015460076000836000815181106129e6576129e561342b565b5b602002602001015173ffffffffffffffffffffffffffffffffffffffff1673ffffffffffffffffffffffffffffffffffffffff16815260200190815260200160002060008a81526020019081526020016000206001018190555060046000898152602001908152602001600020600901600460008a815260200190815260200160002060060154908060018154018082558091505060019003906000526020600020016000909190919091505560046000898152602001908152602001600020600a0181600081518110612abd57612abc61342b565b5b60200260200101519080600181540180825580915050600190039060005260206000200160009091909190916101000a81548173ffffffffffffffffffffffffffffffffffffffff021916908373ffffffffffffffffffffffffffffffffffffffff1602179055505b505050505050505b60016004600083815260200190815260200160002060000160146101000a81548160ff0219169083151502179055508060028190555050565b60006005600084815260200190815260200160002060008373ffffffffffffffffffffffffffffffffffffffff1673ffffffffffffffffffffffffffffffffffffffff16815260200190815260200160002060000160019054906101000a900460ff16905092915050565b600060ff82169050919050565b612be881612bd2565b82525050565b6000602082019050612c036000830184612bdf565b92915050565b600080fd5b600073ffffffffffffffffffffffffffffffffffffffff82169050919050565b6000612c3982612c0e565b9050919050565b612c4981612c2e565b8114612c5457600080fd5b50565b600081359050612c6681612c40565b92915050565b600060208284031215612c8257612c81612c09565b5b6000612c9084828501612c57565b91505092915050565b600081519050919050565b600082825260208201905092915050565b6000819050602082019050919050565b6000819050919050565b612cd881612cc5565b82525050565b6000612cea8383612ccf565b60208301905092915050565b6000602082019050919050565b6000612d0e82612c99565b612d188185612ca4565b9350612d2383612cb5565b8060005b83811015612d54578151612d3b8882612cde565b9750612d4683612cf6565b925050600181019050612d27565b5085935050505092915050565b60006020820190508181036000830152612d7b8184612d03565b905092915050565b612d8c81612bd2565b8114612d9757600080fd5b50565b600081359050612da981612d83565b92915050565b60008060408385031215612dc657612dc5612c09565b5b6000612dd485828601612d9a565b9250506020612de585828601612d9a565b9150509250929050565b612df881612cc5565b8114612e0357600080fd5b50565b600081359050612e1581612def565b92915050565b60008060408385031215612e3257612e31612c09565b5b6000612e4085828601612e06565b9250506020612e5185828601612c57565b9150509250929050565b60008115159050919050565b612e7081612e5b565b82525050565b6000604082019050612e8b6000830185612e67565b612e986020830184612bdf565b9392505050565b600060208284031215612eb557612eb4612c09565b5b6000612ec384828501612e06565b91505092915050565b600081519050919050565b600082825260208201905092915050565b6000819050602082019050919050565b612f0181612bd2565b82525050565b6000612f138383612ef8565b60208301905092915050565b6000602082019050919050565b6000612f3782612ecc565b612f418185612ed7565b9350612f4c83612ee8565b8060005b83811015612f7d578151612f648882612f07565b9750612f6f83612f1f565b925050600181019050612f50565b5085935050505092915050565b60006020820190508181036000830152612fa48184612f2c565b905092915050565b612fb581612c2e565b82525050565b612fc481612cc5565b82525050565b600061010082019050612fe0600083018b612fac565b612fed602083018a612e67565b612ffa6040830189612fbb565b6130076060830188612fbb565b6130146080830187612fbb565b61302160a0830186612fbb565b61302e60c0830185612fbb565b61303b60e0830184612bdf565b9998505050505050505050565b6000806040838503121561305f5761305e612c09565b5b600061306d85828601612c57565b925050602061307e85828601612e06565b9150509250929050565b600060608201905061309d6000830186612e67565b6130aa6020830185612e67565b6130b76040830184612fbb565b949350505050565b60006020820190506130d46000830184612fac565b92915050565b600080604083850312156130f1576130f0612c09565b5b60006130ff85828601612e06565b925050602061311085828601612d9a565b9150509250929050565b600081519050919050565b600082825260208201905092915050565b6000819050602082019050919050565b61314f81612c2e565b82525050565b60006131618383613146565b60208301905092915050565b6000602082019050919050565b60006131858261311a565b61318f8185613125565b935061319a83613136565b8060005b838110156131cb5781516131b28882613155565b97506131bd8361316d565b92505060018101905061319e565b5085935050505092915050565b600060608201905081810360008301526131f28186612d03565b90508181036020830152613206818561317a565b9050818103604083015261321a8184612d03565b9050949350505050565b6000819050919050565b61323f61323a82612cc5565b613224565b82525050565b60008160601b9050919050565b600061325d82613245565b9050919050565b600061326f82613252565b9050919050565b61328761328282612c2e565b613264565b82525050565b6000613299828661322e565b6020820191506132a98285613276565b6014820191506132b9828461322e565b602082019150819050949350505050565b7f4e487b7100000000000000000000000000000000000000000000000000000000600052601260045260246000fd5b600061330482612cc5565b915061330f83612cc5565b92508261331f5761331e6132ca565b5b828206905092915050565b7f4e487b7100000000000000000000000000000000000000000000000000000000600052601160045260246000fd5b600061336482612cc5565b91507fffffffffffffffffffffffffffffffffffffffffffffffffffffffffffffffff8214156133975761339661332a565b5b600182019050919050565b60006133ad82612cc5565b91506133b883612cc5565b9250817fffffffffffffffffffffffffffffffffffffffffffffffffffffffffffffffff04831182151516156133f1576133f061332a565b5b828202905092915050565b7f4e487b7100000000000000000000000000000000000000000000000000000000600052604160045260246000fd5b7f4e487b7100000000000000000000000000000000000000000000000000000000600052603260045260246000fd5b600061346582612cc5565b915061347083612cc5565b9250827fffffffffffffffffffffffffffffffffffffffffffffffffffffffffffffffff038211156134a5576134a461332a565b5b828201905092915050565b600082825260208201905092915050565b7f43686f6f7365206e756d626572206265747765656e203020616e642031303000600082015250565b60006134f7601f836134b0565b9150613502826134c1565b602082019050919050565b60006020820190508181036000830152613526816134ea565b9050919050565b7f467265652067616d657320617265206e6f7420737570706f727465642068657260008201527f6521000000000000000000000000000000000000000000000000000000000000602082015250565b60006135896022836134b0565b91506135948261352d565b604082019050919050565b600060208201905081810360008301526135b88161357c565b9050919050565b60006135ca82612cc5565b91506135d583612cc5565b9250828210156135e8576135e761332a565b5b828203905092915050565b7f596f7520617265206e6f7420612077696e6e6572206f66207468652067616d65600082015250565b60006136296020836134b0565b9150613634826135f3565b602082019050919050565b600060208201905081810360008301526136588161361c565b9050919050565b7f5072697a6520697320636c61696d656420616c72656164790000000000000000600082015250565b60006136956018836134b0565b91506136a08261365f565b602082019050919050565b600060208201905081810360008301526136c481613688565b9050919050565b7f5468652067616d652069732066696e6973686564000000000000000000000000600082015250565b60006137016014836134b0565b915061370c826136cb565b602082019050919050565b60006020820190508181036000830152613730816136f4565b9050919050565b7f56616c7565206f6620746865207472616e73616374696f6e2073686f756c642060008201527f626520657175616c20746f207468652067616d65000000000000000000000000602082015250565b60006137936034836134b0565b915061379e82613737565b604082019050919050565b600060208201905081810360008301526137c281613786565b9050919050565b7f4f776e657220697320616c726561647920696e207061727469636970616e747360008201527f206c697374000000000000000000000000000000000000000000000000000000602082015250565b60006138256025836134b0565b9150613830826137c9565b604082019050919050565b6000602082019050818103600083015261385481613818565b9050919050565b7f596f752063616e206e6f74206a6f696e20747769636500000000000000000000600082015250565b60006138916016836134b0565b915061389c8261385b565b602082019050919050565b600060208201905081810360008301526138c081613884565b9050919050565b7f5061727469636970616e7473206c696d697420686173206265656e207265616360008201527f6865640000000000000000000000000000000000000000000000000000000000602082015250565b60006139236023836134b0565b915061392e826138c7565b604082019050919050565b6000602082019050818103600083015261395281613916565b9050919050565b7f5468652067616d652069732066696e697368656420616c726561647900000000600082015250565b600061398f601c836134b0565b915061399a82613959565b602082019050919050565b600060208201905081810360008301526139be81613982565b9050919050565b7f596f752063616e2066696e69736820612067616d65206f6e6c7920616674657260008201527f20657861637420706572696f6400000000000000000000000000000000000000602082015250565b6000613a21602d836134b0565b9150613a2c826139c5565b604082019050919050565b60006020820190508181036000830152613a5081613a14565b9050919050565b7f4f6e6c79207061727469636970616e74732063616e2066696e6973682061206760008201527f616d650000000000000000000000000000000000000000000000000000000000602082015250565b6000613ab36023836134b0565b9150613abe82613a57565b604082019050919050565b60006020820190508181036000830152613ae281613aa6565b9050919050565b6000613af482612bd2565b9150613aff83612bd2565b925082821015613b1257613b1161332a565b5b828203905092915050565b6000613b2882612cc5565b9150613b3383612cc5565b925082613b4357613b426132ca565b5b828204905092915050565b6000613b5982612bd2565b915060ff821415613b6d57613b6c61332a565b5b600182019050919050565b6000613b8382612bd2565b9150613b8e83612bd2565b92508160ff0483118215151615613ba857613ba761332a565b5b828202905092915050565b6000613bbe82612bd2565b9150613bc983612bd2565b92508260ff03821115613bdf57613bde61332a565b5b828201905092915050565b6000613bf582612cc5565b91506000821415613c0957613c0861332a565b5b60018203905091905056fea26469706673582212207fe6633574801f47aabdffa9e5ec5917b4854418c72c2d1a50dc33535bfdd94064736f6c634300080b0033",
  "immutableReferences": {},
  "source": "// SPDX-License-Identifier: MIT\r\npragma solidity 0.8.11;\r\n\r\ncontract Fair {\r\n    uint256 gameId;\r\n    uint256 nonce;\r\n    uint256 lastFinishedGameId;\r\n    uint256[] gamesByUser;\r\n\r\n    struct Game {\r\n        address owner;\r\n        bool isFinished;\r\n        uint256 bid;\r\n        address[] participants;\r\n        uint8[] numbers;\r\n        uint256 participantsLimit;\r\n        uint256 createdTimestamp;\r\n        uint256 pool;\r\n        uint256 individualPrize;\r\n        uint8 luckyNumber;\r\n        uint256[] prizes;\r\n        address[] winners;\r\n        uint256[] bets;\r\n    }\r\n\r\n    struct Bid {\r\n        bool participatedFlag;\r\n        uint8 number;\r\n    }\r\n\r\n    struct GamesIdList {\r\n        uint256[] gamesByUser;\r\n    }\r\n\r\n    struct Prize {\r\n        bool isWinner;\r\n        bool isClaimed;\r\n        uint256 prize;\r\n    }\r\n\r\n    mapping (uint256 => Game) public gamesList; // gameId => Game struct\r\n    mapping (uint256 => mapping(address => Bid)) public biddersList;  // gameId => participant_address => Bid\r\n    mapping (address => GamesIdList) gamesByUserList; // user address => array of all his games\r\n    mapping (address => mapping(uint256 => Prize)) public prizeList;    // user address => gameId => winner or not\r\n\r\n    function createGame(uint8 _number, uint8 _limit) public payable onlyInRange(_number) {  \r\n        require(msg.value > 0, \"Free games are not supported here!\");\r\n        gamesList[gameId].owner = msg.sender;\r\n        gamesList[gameId].pool += msg.value;\r\n        gamesList[gameId].bid = msg.value;\r\n        gamesList[gameId].participants.push(msg.sender);\r\n        gamesList[gameId].participantsLimit = _limit;\r\n        gamesList[gameId].numbers.push(_number);\r\n        gamesList[gameId].createdTimestamp = block.timestamp;\r\n        gamesList[gameId].luckyNumber = 0;\r\n        biddersList[gameId][msg.sender].number = _number;\r\n        biddersList[gameId][msg.sender].participatedFlag = true;\r\n        gamesByUserList[msg.sender].gamesByUser.push(gameId);\r\n        gameId ++;\r\n    }\r\n\r\n    function joinGame(uint256 _gameId, uint8 _number) public payable onlyInRange(_number) onlyInGamePeriod(_gameId) {\r\n        require(msg.value == gamesList[_gameId].bid, \"Value of the transaction should be equal to the game\");\r\n        require(msg.sender != gamesList[_gameId].owner, \"Owner is already in participants list\"); \r\n        require(biddersList[_gameId][msg.sender].participatedFlag == false, \"You can not join twice\");\r\n        require(gamesList[_gameId].participantsLimit == 0 || gamesList[_gameId].participants.length < gamesList[_gameId].participantsLimit, \"Participants limit has been reached\");\r\n        gamesList[_gameId].pool += msg.value;\r\n        gamesList[_gameId].participants.push(msg.sender);\r\n        gamesList[_gameId].numbers.push(_number);\r\n        biddersList[_gameId][msg.sender].number = _number;\r\n        biddersList[_gameId][msg.sender].participatedFlag = true;\r\n        gamesByUserList[msg.sender].gamesByUser.push(_gameId);\r\n    }\r\n\r\n    function finishGame(uint256 _gameId) public { \r\n        require(gamesList[_gameId].isFinished == false, \"The game is finished already\");\r\n        require(block.timestamp > gamesList[_gameId].createdTimestamp + 300, \"You can finish a game only after exact period\");\r\n        require(biddersList[_gameId][msg.sender].participatedFlag == true, \"Only participants can finish a game\");\r\n        if(gamesList[_gameId].participants.length == 1) {\r\n            prizeList[msg.sender][_gameId].isWinner = true;\r\n            gamesList[_gameId].individualPrize = gamesList[_gameId].pool;\r\n        } else {\r\n            uint8 randomNumber = generateRandom();\r\n            gamesList[_gameId].luckyNumber = randomNumber;\r\n            address[] memory winners = new address[](gamesList[_gameId].participants.length); // array of participants for ascending sort\r\n            uint8[] memory numbers = new uint8[](gamesList[_gameId].numbers.length);  // array of participants numbers for ascending sort\r\n            winners = gamesList[_gameId].participants;\r\n            numbers = gamesList[_gameId].numbers;\r\n            uint8[] memory differences = new uint8[](numbers.length);\r\n            for (uint256 i = 0; i < winners.length; i++) {\r\n                if (numbers[i] > randomNumber) {\r\n                    differences[i] = numbers[i] - randomNumber;\r\n                } else if (numbers[i] < randomNumber) {\r\n                    differences[i] = randomNumber - numbers[i];\r\n                } else {\r\n                    differences[i] = 0;\r\n                }\r\n            }\r\n            uint256 numberOfWinners = differences.length / 3;\r\n            if (numberOfWinners == 0) {\r\n                numberOfWinners = 1;\r\n            }\r\n            uint8[] memory positionsOfWinners = new uint8[](numberOfWinners);\r\n            address[] memory actualWinners = new address[](numberOfWinners);\r\n            \r\n            for (uint256 i = 0; i < numberOfWinners; i++) {\r\n                uint8 minDifference = 100;\r\n                uint8 winner;\r\n                for (uint8 j = 0; j < numbers.length; j++) {\r\n                    if (differences[j] < minDifference) {\r\n                        winner = j;\r\n                        minDifference = differences[j];\r\n                    }\r\n                }\r\n                differences[winner] = 100;\r\n                positionsOfWinners[i] = winner;\r\n                actualWinners[i] = winners[winner];\r\n            }\r\n            if (numberOfWinners > 1) {\r\n                uint256 pool = gamesList[_gameId].pool;\r\n                uint8 temp = 3;\r\n                for (uint256 i = 2; i < actualWinners.length; i++) {\r\n                    temp = temp * 2 + 1;\r\n                }\r\n                uint256 prizePiece = pool/temp;\r\n                for (uint256 i = actualWinners.length - 1; i > 0; i--) {\r\n                    prizeList[actualWinners[i]][_gameId].prize = prizePiece;\r\n                    prizeList[actualWinners[i]][_gameId].isWinner = true;\r\n                    gamesList[_gameId].prizes.push(prizePiece);\r\n                    gamesList[_gameId].winners.push(actualWinners[i]);\r\n                    // gamesList[_gameId].\r\n                    prizePiece = prizePiece * 2;\r\n                }\r\n                prizeList[actualWinners[0]][_gameId].prize = prizePiece;\r\n                prizeList[actualWinners[0]][_gameId].isWinner = true;\r\n                gamesList[_gameId].prizes.push(prizePiece);\r\n                gamesList[_gameId].winners.push(actualWinners[0]);\r\n            }\r\n            else {\r\n                prizeList[actualWinners[0]][_gameId].isWinner = true;\r\n                prizeList[actualWinners[0]][_gameId].prize = gamesList[_gameId].pool;\r\n                gamesList[_gameId].prizes.push(gamesList[_gameId].pool);\r\n                gamesList[_gameId].winners.push(actualWinners[0]);\r\n            }\r\n        }\r\n        gamesList[_gameId].isFinished = true;\r\n        lastFinishedGameId = _gameId;\r\n    }\r\n\r\n    function claim(uint256 _gameId) public {\r\n        require(prizeList[msg.sender][_gameId].isWinner == true, \"You are not a winner of the game\");\r\n        require(prizeList[msg.sender][_gameId].isClaimed == false, \"Prize is claimed already\");\r\n        prizeList[msg.sender][_gameId].isClaimed = true;\r\n        payable(msg.sender).transfer(prizeList[msg.sender][_gameId].prize);\r\n    }\r\n\r\n    // Utils functions\r\n\r\n    function getActualGames() public view returns(uint256[] memory) {\r\n        uint256[] memory actualGames = new uint256[]((gameId - lastFinishedGameId) * 5); \r\n        uint256 counter;\r\n        for (uint256 _gameId = lastFinishedGameId; _gameId < gameId; _gameId ++) {\r\n            if (gamesList[_gameId].isFinished == false) {\r\n                actualGames[counter] = gamesList[_gameId].bid;\r\n                actualGames[counter + 1] = gamesList[_gameId].createdTimestamp;\r\n                actualGames[counter + 2] = gamesList[_gameId].participants.length;\r\n                actualGames[counter + 3] = _gameId;\r\n                actualGames[counter + 4] = gamesList[_gameId].participantsLimit;\r\n                counter += 5;\r\n            }\r\n        }\r\n        return actualGames;\r\n    }\r\n\r\n    function getOwner(uint256 _gameId) public view returns(address) {\r\n        return gamesList[_gameId].owner;\r\n    }\r\n\r\n    function getBet(uint256 _gameId, address adr) public view returns(uint8) {\r\n        return biddersList[_gameId][adr].number;\r\n    }\r\n\r\n    function getNumbers(uint256 _gameId) public view returns(uint8[] memory) {\r\n        return gamesList[_gameId].numbers;\r\n    }\r\n\r\n    function getPrizes(uint256 _gameId) public view returns(uint256[] memory, address[] memory, uint256[] memory) {\r\n        uint256[] memory bets = new uint256[](gamesList[_gameId].participants.length);\r\n        uint256[] memory rewards = new uint256[](gamesList[_gameId].prizes.length);\r\n        address[] memory players = new address[](gamesList[_gameId].winners.length);\r\n        for (uint256 i = 0; i < gamesList[_gameId].participants.length; i++) {\r\n            bets[i] = gamesList[_gameId].numbers[i];\r\n            players[i] = gamesList[_gameId].participants[i];\r\n            bool isWinner = false;\r\n            uint256 iterator = 0;\r\n            for (uint256 j = 0; j < gamesList[_gameId].winners.length; j++) {\r\n                if (gamesList[_gameId].winners[j] == players[i]) {\r\n                    isWinner = true;\r\n                    iterator = j;\r\n                }\r\n            }\r\n            if (isWinner) {\r\n                rewards[i] = gamesList[_gameId].prizes[iterator];\r\n            }\r\n            else {\r\n                rewards[i] = 0;\r\n            }\r\n        }\r\n        return (rewards, players, bets);\r\n    }\r\n\r\n    function getUserGames(address _user) public view returns(uint256[] memory) {\r\n        uint256[] memory userGames = new uint256[](gamesByUserList[_user].gamesByUser.length * 8);\r\n        uint256 counter;\r\n        for (uint256 _gameId; _gameId < gamesByUserList[_user].gamesByUser.length; _gameId ++) {\r\n            uint256 currentGameId = gamesByUserList[_user].gamesByUser[_gameId];\r\n            userGames[counter] = gamesList[currentGameId].bid;\r\n            userGames[counter + 1] = gamesList[currentGameId].createdTimestamp;\r\n            userGames[counter + 2] = gamesList[currentGameId].participants.length;\r\n            userGames[counter + 4] = currentGameId;\r\n            userGames[counter + 5] = gamesList[currentGameId].pool;\r\n            userGames[counter + 6] = gamesList[currentGameId].luckyNumber;\r\n            userGames[counter + 7] = prizeList[_user][currentGameId].prize;\r\n            if (prizeList[_user][currentGameId].isClaimed) {\r\n                userGames[counter + 3] = 0; // prize is claimed \r\n            } else if (prizeList[_user][currentGameId].isWinner) {\r\n                userGames[counter + 3] = 1; // the game is finished already and user allowed to claim prize\r\n            } else if (!gamesList[currentGameId].isFinished && block.timestamp >= gamesList[currentGameId].createdTimestamp + 300) {\r\n                userGames[counter + 3] = 2; // the game is ready for finish\r\n            } else {\r\n                userGames[counter + 3] = 0; // the game in progress\r\n            }\r\n            counter += 8;\r\n        }\r\n        return userGames;\r\n    }\r\n    \r\n    function generateRandom() public returns(uint8) {\r\n        uint8 randomNumber = uint8(uint(keccak256(abi.encodePacked(block.timestamp, msg.sender, nonce))) % 101); \r\n        nonce++;\r\n        return randomNumber;\r\n    } \r\n\r\n    // Modifiers\r\n\r\n    modifier onlyInRange(uint8 _number) {\r\n        require(_number >= 0 && _number <= 100, \"Choose number between 0 and 100\");\r\n        _;\r\n    }\r\n\r\n    modifier onlyInGamePeriod(uint256 _gameId) {\r\n        require(block.timestamp <= gamesList[_gameId].createdTimestamp + 300, \"The game is finished\");  // 300 = 60 sec * 5\r\n        _;\r\n    }\r\n}",
  "sourcePath": "E:\\1folder\\fair-gaming-protocol\\fair\\contracts\\Fair.sol",
  "compiler": {
    "name": "solc",
    "version": "0.8.11+commit.d7f03943.Emscripten.clang"
  },
  "schemaVersion": "3.4.7",
  "updatedAt": "2022-06-29T03:19:38.536Z",
  "networkType": "ethereum",
  "devdoc": {
    "kind": "dev",
    "methods": {},
    "version": 1
  },
  "userdoc": {
    "kind": "user",
    "methods": {},
    "version": 1
  }
}