{
  "contractName": "Fair",
  "abi": [
    {
      "anonymous": false,
      "inputs": [
        {
          "indexed": false,
          "internalType": "uint256",
          "name": "_gameId",
          "type": "uint256"
        },
        {
          "indexed": false,
          "internalType": "uint8",
          "name": "_number",
          "type": "uint8"
        }
      ],
      "name": "GameCreated",
      "type": "event"
    },
    {
      "anonymous": false,
      "inputs": [
        {
          "indexed": false,
          "internalType": "uint256",
          "name": "_gameId",
          "type": "uint256"
        }
      ],
      "name": "GameFinished",
      "type": "event"
    },
    {
      "anonymous": false,
      "inputs": [
        {
          "indexed": false,
          "internalType": "uint256",
          "name": "_gameId",
          "type": "uint256"
        },
        {
          "indexed": true,
          "internalType": "address",
          "name": "_participant",
          "type": "address"
        },
        {
          "indexed": false,
          "internalType": "uint8",
          "name": "_number",
          "type": "uint8"
        }
      ],
      "name": "ParticipantJoined",
      "type": "event"
    },
    {
      "anonymous": false,
      "inputs": [
        {
          "indexed": false,
          "internalType": "uint256",
          "name": "_gameId",
          "type": "uint256"
        },
        {
          "indexed": true,
          "internalType": "address",
          "name": "_participant",
          "type": "address"
        },
        {
          "indexed": false,
          "internalType": "uint256",
          "name": "_amount",
          "type": "uint256"
        }
      ],
      "name": "PrizeTransfered",
      "type": "event"
    },
    {
      "inputs": [
        {
          "internalType": "uint256",
          "name": "",
          "type": "uint256"
        },
        {
          "internalType": "address",
          "name": "",
          "type": "address"
        }
      ],
      "name": "biddersList",
      "outputs": [
        {
          "internalType": "bool",
          "name": "participatedFlag",
          "type": "bool"
        },
        {
          "internalType": "uint8",
          "name": "number",
          "type": "uint8"
        }
      ],
      "stateMutability": "view",
      "type": "function",
      "constant": true
    },
    {
      "inputs": [
        {
          "internalType": "uint256",
          "name": "",
          "type": "uint256"
        }
      ],
      "name": "gamesList",
      "outputs": [
        {
          "internalType": "address",
          "name": "owner",
          "type": "address"
        },
        {
          "internalType": "bool",
          "name": "isFinished",
          "type": "bool"
        },
        {
          "internalType": "uint256",
          "name": "bid",
          "type": "uint256"
        },
        {
          "internalType": "uint256",
          "name": "participantsLimit",
          "type": "uint256"
        },
        {
          "internalType": "uint256",
          "name": "createdTimestamp",
          "type": "uint256"
        },
        {
          "internalType": "uint256",
          "name": "pool",
          "type": "uint256"
        },
        {
          "internalType": "uint256",
          "name": "individualPrize",
          "type": "uint256"
        },
        {
          "internalType": "uint8",
          "name": "luckyNumber",
          "type": "uint8"
        }
      ],
      "stateMutability": "view",
      "type": "function",
      "constant": true
    },
    {
      "inputs": [
        {
          "internalType": "address",
          "name": "",
          "type": "address"
        },
        {
          "internalType": "uint256",
          "name": "",
          "type": "uint256"
        }
      ],
      "name": "prizeList",
      "outputs": [
        {
          "internalType": "bool",
          "name": "isWinner",
          "type": "bool"
        },
        {
          "internalType": "bool",
          "name": "isClaimed",
          "type": "bool"
        }
      ],
      "stateMutability": "view",
      "type": "function",
      "constant": true
    },
    {
      "inputs": [
        {
          "internalType": "uint8",
          "name": "_number",
          "type": "uint8"
        },
        {
          "internalType": "uint8",
          "name": "_limit",
          "type": "uint8"
        }
      ],
      "name": "createGame",
      "outputs": [],
      "stateMutability": "payable",
      "type": "function",
      "payable": true
    },
    {
      "inputs": [
        {
          "internalType": "uint256",
          "name": "_gameId",
          "type": "uint256"
        },
        {
          "internalType": "uint8",
          "name": "_number",
          "type": "uint8"
        }
      ],
      "name": "joinGame",
      "outputs": [],
      "stateMutability": "payable",
      "type": "function",
      "payable": true
    },
    {
      "inputs": [
        {
          "internalType": "uint256",
          "name": "_gameId",
          "type": "uint256"
        }
      ],
      "name": "finishGame",
      "outputs": [],
      "stateMutability": "nonpayable",
      "type": "function"
    },
    {
      "inputs": [
        {
          "internalType": "uint256",
          "name": "_gameId",
          "type": "uint256"
        }
      ],
      "name": "claim",
      "outputs": [],
      "stateMutability": "nonpayable",
      "type": "function"
    },
    {
      "inputs": [],
      "name": "getActualGames",
      "outputs": [
        {
          "internalType": "uint256[]",
          "name": "",
          "type": "uint256[]"
        }
      ],
      "stateMutability": "view",
      "type": "function",
      "constant": true
    },
    {
      "inputs": [
        {
          "internalType": "uint256",
          "name": "_gameId",
          "type": "uint256"
        }
      ],
      "name": "getOwner",
      "outputs": [
        {
          "internalType": "address",
          "name": "",
          "type": "address"
        }
      ],
      "stateMutability": "view",
      "type": "function",
      "constant": true
    },
    {
      "inputs": [
        {
          "internalType": "uint256",
          "name": "_gameId",
          "type": "uint256"
        },
        {
          "internalType": "address",
          "name": "adr",
          "type": "address"
        }
      ],
      "name": "getBet",
      "outputs": [
        {
          "internalType": "uint8",
          "name": "",
          "type": "uint8"
        }
      ],
      "stateMutability": "view",
      "type": "function",
      "constant": true
    },
    {
      "inputs": [
        {
          "internalType": "address",
          "name": "_user",
          "type": "address"
        }
      ],
      "name": "getUserGames",
      "outputs": [
        {
          "internalType": "uint256[]",
          "name": "",
          "type": "uint256[]"
        }
      ],
      "stateMutability": "view",
      "type": "function",
      "constant": true
    },
    {
      "inputs": [],
      "name": "generateRandom",
      "outputs": [
        {
          "internalType": "uint8",
          "name": "",
          "type": "uint8"
        }
      ],
      "stateMutability": "nonpayable",
      "type": "function"
    }
  ],
  "bytecode": "0x608060405234801561001057600080fd5b50612f9a806100206000396000f3fe6080604052600436106100a75760003560e01c80635054c0a3116100645780635054c0a3146101c25780639ff0f4a914610206578063c41a360a14610244578063ca6649c514610281578063cfe186b21461029d578063e0950ddf146102c6576100a7565b806302e4af01146100ac578063120aace6146100d75780631346a76d1461011457806316466fe614610130578063208970d51461015b578063379607f514610199575b600080fd5b3480156100b857600080fd5b506100c1610303565b6040516100ce919061218f565b60405180910390f35b3480156100e357600080fd5b506100fe60048036038101906100f9919061220d565b610363565b60405161010b9190612302565b60405180910390f35b61012e60048036038101906101299190612350565b61084d565b005b34801561013c57600080fd5b50610145610c62565b6040516101529190612302565b60405180910390f35b34801561016757600080fd5b50610182600480360381019061017d91906123bc565b610e24565b604051610190929190612417565b60405180910390f35b3480156101a557600080fd5b506101c060048036038101906101bb9190612440565b610e6f565b005b3480156101ce57600080fd5b506101e960048036038101906101e49190612440565b6110ef565b6040516101fd98979695949392919061248b565b60405180910390f35b34801561021257600080fd5b5061022d60048036038101906102289190612509565b611171565b60405161023b929190612549565b60405180910390f35b34801561025057600080fd5b5061026b60048036038101906102669190612440565b6111bc565b6040516102789190612572565b60405180910390f35b61029b6004803603810190610296919061258d565b6111fc565b005b3480156102a957600080fd5b506102c460048036038101906102bf9190612440565b611785565b005b3480156102d257600080fd5b506102ed60048036038101906102e891906123bc565b612108565b6040516102fa919061218f565b60405180910390f35b6000806065423360015460405160200161031f93929190612636565b6040516020818303038152906040528051906020012060001c61034291906126a2565b90506001600081548092919061035790612702565b91905055508091505090565b606060006007600660008573ffffffffffffffffffffffffffffffffffffffff1673ffffffffffffffffffffffffffffffffffffffff168152602001908152602001600020600001805490506103b9919061274b565b67ffffffffffffffff8111156103d2576103d16127a5565b5b6040519080825280602002602001820160405280156104005781602001602082028036833780820191505090505b5090506000805b600660008673ffffffffffffffffffffffffffffffffffffffff1673ffffffffffffffffffffffffffffffffffffffff16815260200190815260200160002060000180549050811015610842576000600660008773ffffffffffffffffffffffffffffffffffffffff1673ffffffffffffffffffffffffffffffffffffffff16815260200190815260200160002060000182815481106104aa576104a96127d4565b5b9060005260206000200154905060046000828152602001908152602001600020600101548484815181106104e1576104e06127d4565b5b6020026020010181815250506004600082815260200190815260200160002060050154846001856105129190612803565b81518110610523576105226127d4565b5b6020026020010181815250506004600082815260200190815260200160002060020180549050846002856105579190612803565b81518110610568576105676127d4565b5b60200260200101818152505080846004856105839190612803565b81518110610594576105936127d4565b5b6020026020010181815250506004600082815260200190815260200160002060060154846005856105c59190612803565b815181106105d6576105d56127d4565b5b6020026020010181815250506004600082815260200190815260200160002060080160009054906101000a900460ff1660ff16846006856106179190612803565b81518110610628576106276127d4565b5b602002602001018181525050600760008773ffffffffffffffffffffffffffffffffffffffff1673ffffffffffffffffffffffffffffffffffffffff168152602001908152602001600020600082815260200190815260200160002060000160019054906101000a900460ff16156106cc576000846003856106aa9190612803565b815181106106bb576106ba6127d4565b5b60200260200101818152505061081f565b600760008773ffffffffffffffffffffffffffffffffffffffff1673ffffffffffffffffffffffffffffffffffffffff168152602001908152602001600020600082815260200190815260200160002060000160009054906101000a900460ff1615610764576001846003856107429190612803565b81518110610753576107526127d4565b5b60200260200101818152505061081e565b6004600082815260200190815260200160002060000160149054906101000a900460ff161580156107b8575061012c60046000838152602001908152602001600020600501546107b49190612803565b4210155b156107ef576002846003856107cd9190612803565b815181106107de576107dd6127d4565b5b60200260200101818152505061081d565b6000846003856107ff9190612803565b815181106108105761080f6127d4565b5b6020026020010181815250505b5b5b60078361082c9190612803565b925050808061083a90612702565b915050610407565b508192505050919050565b8160008160ff1610158015610866575060648160ff1611155b6108a5576040517f08c379a000000000000000000000000000000000000000000000000000000000815260040161089c906128b6565b60405180910390fd5b600034116108e8576040517f08c379a00000000000000000000000000000000000000000000000000000000081526004016108df90612948565b60405180910390fd5b33600460008054815260200190815260200160002060000160006101000a81548173ffffffffffffffffffffffffffffffffffffffff021916908373ffffffffffffffffffffffffffffffffffffffff16021790555034600460008054815260200190815260200160002060060160008282546109659190612803565b92505081905550346004600080548152602001908152602001600020600101819055506004600080548152602001908152602001600020600201339080600181540180825580915050600190039060005260206000200160009091909190916101000a81548173ffffffffffffffffffffffffffffffffffffffff021916908373ffffffffffffffffffffffffffffffffffffffff1602179055508160ff1660046000805481526020019081526020016000206004018190555060046000805481526020019081526020016000206003018390806001815401808255809150506001900390600052602060002090602091828204019190069091909190916101000a81548160ff021916908360ff160217905550426004600080548152602001908152602001600020600501819055506000600460008054815260200190815260200160002060080160006101000a81548160ff021916908360ff16021790555082600560008054815260200190815260200160002060003373ffffffffffffffffffffffffffffffffffffffff1673ffffffffffffffffffffffffffffffffffffffff16815260200190815260200160002060000160016101000a81548160ff021916908360ff1602179055506001600560008054815260200190815260200160002060003373ffffffffffffffffffffffffffffffffffffffff1673ffffffffffffffffffffffffffffffffffffffff16815260200190815260200160002060000160006101000a81548160ff021916908315150217905550600660003373ffffffffffffffffffffffffffffffffffffffff1673ffffffffffffffffffffffffffffffffffffffff16815260200190815260200160002060000160005490806001815401808255809150506001900390600052602060002001600090919091909150557f33fbd5015d61fe861a1a149e88720cc4ee49722a3c3dd94d6947600a9de1993860005484604051610c3e929190612968565b60405180910390a1600080815480929190610c5890612702565b9190505550505050565b606060006004600254600054610c789190612991565b610c82919061274b565b67ffffffffffffffff811115610c9b57610c9a6127a5565b5b604051908082528060200260200182016040528015610cc95781602001602082028036833780820191505090505b50905060008060025490505b600054811015610e1b57600015156004600083815260200190815260200160002060000160149054906101000a900460ff1615151415610e08576004600082815260200190815260200160002060010154838381518110610d3957610d386127d4565b5b602002602001018181525050600460008281526020019081526020016000206005015483600184610d6a9190612803565b81518110610d7b57610d7a6127d4565b5b602002602001018181525050600460008281526020019081526020016000206002018054905083600284610daf9190612803565b81518110610dc057610dbf6127d4565b5b6020026020010181815250508083600384610ddb9190612803565b81518110610dec57610deb6127d4565b5b602002602001018181525050600482610e059190612803565b91505b8080610e1390612702565b915050610cd5565b50819250505090565b6005602052816000526040600020602052806000526040600020600091509150508060000160009054906101000a900460ff16908060000160019054906101000a900460ff16905082565b60011515600760003373ffffffffffffffffffffffffffffffffffffffff1673ffffffffffffffffffffffffffffffffffffffff168152602001908152602001600020600083815260200190815260200160002060000160009054906101000a900460ff16151514610f16576040517f08c379a0000000000000000000000000000000000000000000000000000000008152600401610f0d90612a11565b60405180910390fd5b60001515600760003373ffffffffffffffffffffffffffffffffffffffff1673ffffffffffffffffffffffffffffffffffffffff168152602001908152602001600020600083815260200190815260200160002060000160019054906101000a900460ff16151514610fbd576040517f08c379a0000000000000000000000000000000000000000000000000000000008152600401610fb490612a7d565b60405180910390fd5b6001600760003373ffffffffffffffffffffffffffffffffffffffff1673ffffffffffffffffffffffffffffffffffffffff168152602001908152602001600020600083815260200190815260200160002060000160016101000a81548160ff0219169083151502179055503373ffffffffffffffffffffffffffffffffffffffff166108fc60046000848152602001908152602001600020600701549081150290604051600060405180830381858888f19350505050158015611085573d6000803e3d6000fd5b503373ffffffffffffffffffffffffffffffffffffffff167ff569132dd86f7ca279052468c5bbb341b813f42fc5bd63506782c20fb25c3b568260046000858152602001908152602001600020600701546040516110e4929190612a9d565b60405180910390a250565b60046020528060005260406000206000915090508060000160009054906101000a900473ffffffffffffffffffffffffffffffffffffffff16908060000160149054906101000a900460ff16908060010154908060040154908060050154908060060154908060070154908060080160009054906101000a900460ff16905088565b6007602052816000526040600020602052806000526040600020600091509150508060000160009054906101000a900460ff16908060000160019054906101000a900460ff16905082565b60006004600083815260200190815260200160002060000160009054906101000a900473ffffffffffffffffffffffffffffffffffffffff169050919050565b8060008160ff1610158015611215575060648160ff1611155b611254576040517f08c379a000000000000000000000000000000000000000000000000000000000815260040161124b906128b6565b60405180910390fd5b8261012c60046000838152602001908152602001600020600501546112799190612803565b4211156112bb576040517f08c379a00000000000000000000000000000000000000000000000000000000081526004016112b290612b12565b60405180910390fd5b60046000858152602001908152602001600020600101543414611313576040517f08c379a000000000000000000000000000000000000000000000000000000000815260040161130a90612ba4565b60405180910390fd5b6004600085815260200190815260200160002060000160009054906101000a900473ffffffffffffffffffffffffffffffffffffffff1673ffffffffffffffffffffffffffffffffffffffff163373ffffffffffffffffffffffffffffffffffffffff1614156113b8576040517f08c379a00000000000000000000000000000000000000000000000000000000081526004016113af90612c36565b60405180910390fd5b600015156005600086815260200190815260200160002060003373ffffffffffffffffffffffffffffffffffffffff1673ffffffffffffffffffffffffffffffffffffffff16815260200190815260200160002060000160009054906101000a900460ff1615151461145f576040517f08c379a000000000000000000000000000000000000000000000000000000000815260040161145690612ca2565b60405180910390fd5b6000600460008681526020019081526020016000206004015414806114b2575060046000858152602001908152602001600020600401546004600086815260200190815260200160002060020180549050105b6114f1576040517f08c379a00000000000000000000000000000000000000000000000000000000081526004016114e890612d34565b60405180910390fd5b346004600086815260200190815260200160002060060160008282546115179190612803565b9250508190555060046000858152602001908152602001600020600201339080600181540180825580915050600190039060005260206000200160009091909190916101000a81548173ffffffffffffffffffffffffffffffffffffffff021916908373ffffffffffffffffffffffffffffffffffffffff160217905550600460008581526020019081526020016000206003018390806001815401808255809150506001900390600052602060002090602091828204019190069091909190916101000a81548160ff021916908360ff160217905550826005600086815260200190815260200160002060003373ffffffffffffffffffffffffffffffffffffffff1673ffffffffffffffffffffffffffffffffffffffff16815260200190815260200160002060000160016101000a81548160ff021916908360ff16021790555060016005600086815260200190815260200160002060003373ffffffffffffffffffffffffffffffffffffffff1673ffffffffffffffffffffffffffffffffffffffff16815260200190815260200160002060000160006101000a81548160ff021916908315150217905550600660003373ffffffffffffffffffffffffffffffffffffffff1673ffffffffffffffffffffffffffffffffffffffff1681526020019081526020016000206000018490806001815401808255809150506001900390600052602060002001600090919091909150553373ffffffffffffffffffffffffffffffffffffffff167f49cebb9a586c1e3a485cf361b12f25391e3e11337f46da31d887cd42e37912698585604051611777929190612968565b60405180910390a250505050565b600015156004600083815260200190815260200160002060000160149054906101000a900460ff161515146117ef576040517f08c379a00000000000000000000000000000000000000000000000000000000081526004016117e690612da0565b60405180910390fd5b61012c60046000838152602001908152602001600020600501546118139190612803565b4211611854576040517f08c379a000000000000000000000000000000000000000000000000000000000815260040161184b90612e32565b60405180910390fd5b600115156005600083815260200190815260200160002060003373ffffffffffffffffffffffffffffffffffffffff1673ffffffffffffffffffffffffffffffffffffffff16815260200190815260200160002060000160009054906101000a900460ff161515146118fb576040517f08c379a00000000000000000000000000000000000000000000000000000000081526004016118f290612ec4565b60405180910390fd5b6001600460008381526020019081526020016000206002018054905014156119bf576001600760003373ffffffffffffffffffffffffffffffffffffffff1673ffffffffffffffffffffffffffffffffffffffff168152602001908152602001600020600083815260200190815260200160002060000160006101000a81548160ff02191690831515021790555060046000828152602001908152602001600020600601546004600083815260200190815260200160002060070181905550612098565b60006119c9610303565b9050806004600084815260200190815260200160002060080160006101000a81548160ff021916908360ff1602179055506000600460008481526020019081526020016000206002018054905067ffffffffffffffff811115611a2f57611a2e6127a5565b5b604051908082528060200260200182016040528015611a5d5781602001602082028036833780820191505090505b5090506000600460008581526020019081526020016000206003018054905067ffffffffffffffff811115611a9557611a946127a5565b5b604051908082528060200260200182016040528015611ac35781602001602082028036833780820191505090505b50905060046000858152602001908152602001600020600201805480602002602001604051908101604052809291908181526020018280548015611b5c57602002820191906000526020600020905b8160009054906101000a900473ffffffffffffffffffffffffffffffffffffffff1673ffffffffffffffffffffffffffffffffffffffff1681526020019060010190808311611b12575b5050505050915060046000858152602001908152602001600020600301805480602002602001604051908101604052809291908181526020018280548015611be957602002820191906000526020600020906000905b82829054906101000a900460ff1660ff1681526020019060010190602082600001049283019260010382029150808411611bb25790505b5050505050905060005b60018251611c019190612991565b811015611ecc5760008190506000808660ff16858481518110611c2757611c266127d4565b5b602002602001015160ff1610611c645786858481518110611c4b57611c4a6127d4565b5b6020026020010151611c5d9190612ee4565b9150611c8d565b848381518110611c7757611c766127d4565b5b602002602001015187611c8a9190612ee4565b91505b6000600185611c9c9190612803565b90505b8551811015611d4d578760ff16868281518110611cbf57611cbe6127d4565b5b602002602001015160ff1610611cfc5787868281518110611ce357611ce26127d4565b5b6020026020010151611cf59190612ee4565b9150611d25565b858181518110611d0f57611d0e6127d4565b5b602002602001015188611d229190612ee4565b91505b8260ff168260ff161015611d3a578093508192505b8080611d4590612702565b915050611c9f565b50838314611eb6576000858581518110611d6a57611d696127d4565b5b602002602001015190506000878681518110611d8957611d886127d4565b5b60200260200101519050868581518110611da657611da56127d4565b5b6020026020010151878781518110611dc157611dc06127d4565b5b602002602001019060ff16908160ff1681525050878581518110611de857611de76127d4565b5b6020026020010151888781518110611e0357611e026127d4565b5b602002602001019073ffffffffffffffffffffffffffffffffffffffff16908173ffffffffffffffffffffffffffffffffffffffff168152505081878681518110611e5157611e506127d4565b5b602002602001019060ff16908160ff168152505080888681518110611e7957611e786127d4565b5b602002602001019073ffffffffffffffffffffffffffffffffffffffff16908173ffffffffffffffffffffffffffffffffffffffff168152505050505b5050508080611ec490612702565b915050611bf3565b506000600a60038451611edf919061274b565b611ee99190612f18565b90506000811415611fb15760016007600085600081518110611f0e57611f0d6127d4565b5b602002602001015173ffffffffffffffffffffffffffffffffffffffff1673ffffffffffffffffffffffffffffffffffffffff168152602001908152602001600020600087815260200190815260200160002060000160006101000a81548160ff02191690831515021790555060046000868152602001908152602001600020600601546004600087815260200190815260200160002060070181905550612093565b60005b8181101561209157600160076000868481518110611fd557611fd46127d4565b5b602002602001015173ffffffffffffffffffffffffffffffffffffffff1673ffffffffffffffffffffffffffffffffffffffff168152602001908152602001600020600088815260200190815260200160002060000160006101000a81548160ff0219169083151502179055508160046000888152602001908152602001600020600601546120649190612f18565b6004600088815260200190815260200160002060070181905550808061208990612702565b915050611fb4565b505b505050505b60016004600083815260200190815260200160002060000160146101000a81548160ff021916908315150217905550806002819055507f6543ec12c6e53f26532beb5289ef5732dcd77c2e9e9921ae42b695905f5e84c0816040516120fd9190612f49565b60405180910390a150565b60006005600084815260200190815260200160002060008373ffffffffffffffffffffffffffffffffffffffff1673ffffffffffffffffffffffffffffffffffffffff16815260200190815260200160002060000160019054906101000a900460ff16905092915050565b600060ff82169050919050565b61218981612173565b82525050565b60006020820190506121a46000830184612180565b92915050565b600080fd5b600073ffffffffffffffffffffffffffffffffffffffff82169050919050565b60006121da826121af565b9050919050565b6121ea816121cf565b81146121f557600080fd5b50565b600081359050612207816121e1565b92915050565b600060208284031215612223576122226121aa565b5b6000612231848285016121f8565b91505092915050565b600081519050919050565b600082825260208201905092915050565b6000819050602082019050919050565b6000819050919050565b61227981612266565b82525050565b600061228b8383612270565b60208301905092915050565b6000602082019050919050565b60006122af8261223a565b6122b98185612245565b93506122c483612256565b8060005b838110156122f55781516122dc888261227f565b97506122e783612297565b9250506001810190506122c8565b5085935050505092915050565b6000602082019050818103600083015261231c81846122a4565b905092915050565b61232d81612173565b811461233857600080fd5b50565b60008135905061234a81612324565b92915050565b60008060408385031215612367576123666121aa565b5b60006123758582860161233b565b92505060206123868582860161233b565b9150509250929050565b61239981612266565b81146123a457600080fd5b50565b6000813590506123b681612390565b92915050565b600080604083850312156123d3576123d26121aa565b5b60006123e1858286016123a7565b92505060206123f2858286016121f8565b9150509250929050565b60008115159050919050565b612411816123fc565b82525050565b600060408201905061242c6000830185612408565b6124396020830184612180565b9392505050565b600060208284031215612456576124556121aa565b5b6000612464848285016123a7565b91505092915050565b612476816121cf565b82525050565b61248581612266565b82525050565b6000610100820190506124a1600083018b61246d565b6124ae602083018a612408565b6124bb604083018961247c565b6124c8606083018861247c565b6124d5608083018761247c565b6124e260a083018661247c565b6124ef60c083018561247c565b6124fc60e0830184612180565b9998505050505050505050565b600080604083850312156125205761251f6121aa565b5b600061252e858286016121f8565b925050602061253f858286016123a7565b9150509250929050565b600060408201905061255e6000830185612408565b61256b6020830184612408565b9392505050565b6000602082019050612587600083018461246d565b92915050565b600080604083850312156125a4576125a36121aa565b5b60006125b2858286016123a7565b92505060206125c38582860161233b565b9150509250929050565b6000819050919050565b6125e86125e382612266565b6125cd565b82525050565b60008160601b9050919050565b6000612606826125ee565b9050919050565b6000612618826125fb565b9050919050565b61263061262b826121cf565b61260d565b82525050565b600061264282866125d7565b602082019150612652828561261f565b60148201915061266282846125d7565b602082019150819050949350505050565b7f4e487b7100000000000000000000000000000000000000000000000000000000600052601260045260246000fd5b60006126ad82612266565b91506126b883612266565b9250826126c8576126c7612673565b5b828206905092915050565b7f4e487b7100000000000000000000000000000000000000000000000000000000600052601160045260246000fd5b600061270d82612266565b91507fffffffffffffffffffffffffffffffffffffffffffffffffffffffffffffffff8214156127405761273f6126d3565b5b600182019050919050565b600061275682612266565b915061276183612266565b9250817fffffffffffffffffffffffffffffffffffffffffffffffffffffffffffffffff048311821515161561279a576127996126d3565b5b828202905092915050565b7f4e487b7100000000000000000000000000000000000000000000000000000000600052604160045260246000fd5b7f4e487b7100000000000000000000000000000000000000000000000000000000600052603260045260246000fd5b600061280e82612266565b915061281983612266565b9250827fffffffffffffffffffffffffffffffffffffffffffffffffffffffffffffffff0382111561284e5761284d6126d3565b5b828201905092915050565b600082825260208201905092915050565b7f43686f6f7365206e756d626572206265747765656e203020616e642031303000600082015250565b60006128a0601f83612859565b91506128ab8261286a565b602082019050919050565b600060208201905081810360008301526128cf81612893565b9050919050565b7f467265652067616d657320617265206e6f7420737570706f727465642068657260008201527f6521000000000000000000000000000000000000000000000000000000000000602082015250565b6000612932602283612859565b915061293d826128d6565b604082019050919050565b6000602082019050818103600083015261296181612925565b9050919050565b600060408201905061297d600083018561247c565b61298a6020830184612180565b9392505050565b600061299c82612266565b91506129a783612266565b9250828210156129ba576129b96126d3565b5b828203905092915050565b7f596f7520617265206e6f7420612077696e6e6572206f66207468652067616d65600082015250565b60006129fb602083612859565b9150612a06826129c5565b602082019050919050565b60006020820190508181036000830152612a2a816129ee565b9050919050565b7f5072697a6520697320636c61696d656420616c72656164790000000000000000600082015250565b6000612a67601883612859565b9150612a7282612a31565b602082019050919050565b60006020820190508181036000830152612a9681612a5a565b9050919050565b6000604082019050612ab2600083018561247c565b612abf602083018461247c565b9392505050565b7f5468652067616d652069732066696e6973686564000000000000000000000000600082015250565b6000612afc601483612859565b9150612b0782612ac6565b602082019050919050565b60006020820190508181036000830152612b2b81612aef565b9050919050565b7f56616c7565206f6620746865207472616e73616374696f6e2073686f756c642060008201527f626520657175616c20746f207468652067616d65000000000000000000000000602082015250565b6000612b8e603483612859565b9150612b9982612b32565b604082019050919050565b60006020820190508181036000830152612bbd81612b81565b9050919050565b7f4f776e657220697320616c726561647920696e207061727469636970616e747360008201527f206c697374000000000000000000000000000000000000000000000000000000602082015250565b6000612c20602583612859565b9150612c2b82612bc4565b604082019050919050565b60006020820190508181036000830152612c4f81612c13565b9050919050565b7f596f752063616e206e6f74206a6f696e20747769636500000000000000000000600082015250565b6000612c8c601683612859565b9150612c9782612c56565b602082019050919050565b60006020820190508181036000830152612cbb81612c7f565b9050919050565b7f5061727469636970616e7473206c696d697420686173206265656e207265616360008201527f6865640000000000000000000000000000000000000000000000000000000000602082015250565b6000612d1e602383612859565b9150612d2982612cc2565b604082019050919050565b60006020820190508181036000830152612d4d81612d11565b9050919050565b7f5468652067616d652069732066696e697368656420616c726561647900000000600082015250565b6000612d8a601c83612859565b9150612d9582612d54565b602082019050919050565b60006020820190508181036000830152612db981612d7d565b9050919050565b7f596f752063616e2066696e69736820612067616d65206f6e6c7920616674657260008201527f20657861637420706572696f6400000000000000000000000000000000000000602082015250565b6000612e1c602d83612859565b9150612e2782612dc0565b604082019050919050565b60006020820190508181036000830152612e4b81612e0f565b9050919050565b7f4f6e6c79207061727469636970616e74732063616e2066696e6973682061206760008201527f616d650000000000000000000000000000000000000000000000000000000000602082015250565b6000612eae602383612859565b9150612eb982612e52565b604082019050919050565b60006020820190508181036000830152612edd81612ea1565b9050919050565b6000612eef82612173565b9150612efa83612173565b925082821015612f0d57612f0c6126d3565b5b828203905092915050565b6000612f2382612266565b9150612f2e83612266565b925082612f3e57612f3d612673565b5b828204905092915050565b6000602082019050612f5e600083018461247c565b9291505056fea26469706673582212205f4a8ba56e2a5e2d4467d7a6d303cf0245cb59e90df987687ada23e3fb9ece3f64736f6c634300080b0033",
  "immutableReferences": {},
  "source": "// SPDX-License-Identifier: MIT\r\npragma solidity 0.8.11;\r\n\r\ncontract Fair {\r\n    uint256 gameId;\r\n    uint256 nonce;\r\n    uint256 lastFinishedGameId;\r\n    uint256[] gamesByUser;\r\n\r\n    struct Game {\r\n        address owner;\r\n        bool isFinished;\r\n        uint256 bid;\r\n        address[] participants;\r\n        uint8[] numbers;\r\n        uint256 participantsLimit;\r\n        uint256 createdTimestamp;\r\n        uint256 pool;\r\n        uint256 individualPrize;\r\n        uint8 luckyNumber;\r\n    }\r\n\r\n    struct Bid {\r\n        bool participatedFlag;\r\n        uint8 number;\r\n    }\r\n\r\n    struct GamesIdList {\r\n        uint256[] gamesByUser;\r\n    }\r\n\r\n    struct Prize {\r\n        bool isWinner;\r\n        bool isClaimed;\r\n    }\r\n\r\n    mapping (uint256 => Game) public gamesList; // gameId => Game struct\r\n    mapping (uint256 => mapping(address => Bid)) public biddersList;  // gameId => participant_address => Bid\r\n    mapping (address => GamesIdList) gamesByUserList; // user address => array of all his games\r\n    mapping (address => mapping(uint256 => Prize)) public prizeList;    // user address => gameId => winner or not\r\n\r\n    function createGame(uint8 _number, uint8 _limit) public payable onlyInRange(_number) {  \r\n        require(msg.value > 0, \"Free games are not supported here!\");\r\n        gamesList[gameId].owner = msg.sender;\r\n        gamesList[gameId].pool += msg.value;\r\n        gamesList[gameId].bid = msg.value;\r\n        gamesList[gameId].participants.push(msg.sender);\r\n        gamesList[gameId].participantsLimit = _limit;\r\n        gamesList[gameId].numbers.push(_number);\r\n        gamesList[gameId].createdTimestamp = block.timestamp;\r\n        gamesList[gameId].luckyNumber = 0;\r\n        biddersList[gameId][msg.sender].number = _number;\r\n        biddersList[gameId][msg.sender].participatedFlag = true;\r\n        gamesByUserList[msg.sender].gamesByUser.push(gameId);\r\n        emit GameCreated(gameId, _number);\r\n        gameId ++;\r\n    }\r\n\r\n    // function limitParticipants(uint256 _gameId, uint256 _limitNumber) public onlyInGamePeriod(_gameId) {\r\n    //     require(msg.sender == gamesList[_gameId].owner, \"Only game owner can limit number of participants\");    \r\n    //     require(_limitNumber >= gamesList[_gameId].participants.length, \"Current game already has more participants than limit number\"); \r\n    //     gamesList[_gameId].participantsLimit = _limitNumber;\r\n    // }\r\n\r\n    function joinGame(uint256 _gameId, uint8 _number) public payable onlyInRange(_number) onlyInGamePeriod(_gameId) {\r\n        require(msg.value == gamesList[_gameId].bid, \"Value of the transaction should be equal to the game\");\r\n        require(msg.sender != gamesList[_gameId].owner, \"Owner is already in participants list\"); \r\n        require(biddersList[_gameId][msg.sender].participatedFlag == false, \"You can not join twice\");\r\n        require(gamesList[_gameId].participantsLimit == 0 || gamesList[_gameId].participants.length < gamesList[_gameId].participantsLimit, \"Participants limit has been reached\");\r\n        gamesList[_gameId].pool += msg.value;\r\n        gamesList[_gameId].participants.push(msg.sender);\r\n        gamesList[_gameId].numbers.push(_number);\r\n        biddersList[_gameId][msg.sender].number = _number;\r\n        biddersList[_gameId][msg.sender].participatedFlag = true;\r\n        gamesByUserList[msg.sender].gamesByUser.push(_gameId);\r\n        emit ParticipantJoined(_gameId, msg.sender, _number);\r\n    }\r\n\r\n    function finishGame(uint256 _gameId) public { \r\n        require(gamesList[_gameId].isFinished == false, \"The game is finished already\");\r\n        require(block.timestamp > gamesList[_gameId].createdTimestamp + 300, \"You can finish a game only after exact period\");\r\n        require(biddersList[_gameId][msg.sender].participatedFlag == true, \"Only participants can finish a game\");\r\n        if(gamesList[_gameId].participants.length == 1) {\r\n            prizeList[msg.sender][_gameId].isWinner = true;\r\n            gamesList[_gameId].individualPrize = gamesList[_gameId].pool;\r\n        } else {\r\n            uint8 randomNumber = generateRandom();\r\n            gamesList[_gameId].luckyNumber = randomNumber;\r\n            address[] memory winners = new address[](gamesList[_gameId].participants.length); // array of participants for ascending sort\r\n            uint8[] memory numbers = new uint8[](gamesList[_gameId].numbers.length);  // array of participants numbers for ascending sort\r\n            winners = gamesList[_gameId].participants;\r\n            numbers = gamesList[_gameId].numbers;\r\n            for(uint256 i; i < numbers.length - 1; i++) {\r\n                uint256 min = i;\r\n                uint8 firstDifference;\r\n                uint8 secondDifference;\r\n                if(numbers[min] >= randomNumber) {\r\n                    firstDifference = numbers[min] - randomNumber;\r\n                } else {\r\n                    firstDifference = randomNumber - numbers[min];\r\n                }\r\n                for(uint256 j = i + 1; j < numbers.length; j++) {      \r\n                    if(numbers[j] >= randomNumber) {\r\n                        secondDifference = numbers[j] - randomNumber;\r\n                    } else {\r\n                        secondDifference = randomNumber - numbers[j];\r\n                    }\r\n                    if(secondDifference < firstDifference) {\r\n                        min = j;\r\n                        firstDifference = secondDifference;\r\n                    }\r\n                }\r\n                if(min != i) {\r\n                    uint8 targetNumber = numbers[i];\r\n                    address targetAddress = winners[i];\r\n                    numbers[i] = numbers[min];\r\n                    winners[i] = winners[min];\r\n                    numbers[min] = targetNumber;\r\n                    winners[min] = targetAddress;\r\n                }\r\n            }\r\n            uint256 numberOfWinners = winners.length * 3 / 10;  // 30% of participants\r\n            if(numberOfWinners == 0) {\r\n                prizeList[winners[0]][_gameId].isWinner = true;\r\n                gamesList[_gameId].individualPrize = gamesList[_gameId].pool;\r\n            } else {\r\n                for(uint256 k; k < numberOfWinners; k++) {\r\n                    prizeList[winners[k]][_gameId].isWinner = true;\r\n                    gamesList[_gameId].individualPrize = gamesList[_gameId].pool / numberOfWinners;\r\n                }\r\n            }\r\n        }\r\n        gamesList[_gameId].isFinished = true;\r\n        lastFinishedGameId = _gameId;\r\n        emit GameFinished(_gameId);\r\n    }\r\n\r\n    function claim(uint256 _gameId) public {\r\n        require(prizeList[msg.sender][_gameId].isWinner == true, \"You are not a winner of the game\");\r\n        require(prizeList[msg.sender][_gameId].isClaimed == false, \"Prize is claimed already\");\r\n        prizeList[msg.sender][_gameId].isClaimed = true;\r\n        payable(msg.sender).transfer(gamesList[_gameId].individualPrize);\r\n        emit PrizeTransfered(_gameId, msg.sender, gamesList[_gameId].individualPrize);\r\n    }\r\n\r\n    // Utils functions\r\n\r\n    function getActualGames() public view returns(uint256[] memory) {\r\n        uint256[] memory actualGames = new uint256[]((gameId - lastFinishedGameId) * 4); \r\n        uint256 counter;\r\n        for (uint256 _gameId = lastFinishedGameId; _gameId < gameId; _gameId ++) {\r\n            if (gamesList[_gameId].isFinished == false) {\r\n                actualGames[counter] = gamesList[_gameId].bid;\r\n                actualGames[counter + 1] = gamesList[_gameId].createdTimestamp;\r\n                actualGames[counter + 2] = gamesList[_gameId].participants.length;\r\n                actualGames[counter + 3] = _gameId;\r\n                counter += 4;\r\n            }\r\n        }\r\n        return actualGames;\r\n    }\r\n\r\n    function getOwner(uint256 _gameId) public view returns(address) {\r\n        return gamesList[_gameId].owner;\r\n    }\r\n\r\n    function getBet(uint256 _gameId, address adr) public view returns(uint8) {\r\n        return biddersList[_gameId][adr].number;\r\n    }\r\n\r\n    function getUserGames(address _user) public view returns(uint256[] memory) {\r\n        uint256[] memory userGames = new uint256[](gamesByUserList[_user].gamesByUser.length * 7);\r\n        uint256 counter;\r\n        for (uint256 _gameId; _gameId < gamesByUserList[_user].gamesByUser.length; _gameId ++) {\r\n            uint256 currentGameId = gamesByUserList[_user].gamesByUser[_gameId];\r\n            userGames[counter] = gamesList[currentGameId].bid;\r\n            userGames[counter + 1] = gamesList[currentGameId].createdTimestamp;\r\n            userGames[counter + 2] = gamesList[currentGameId].participants.length;\r\n            userGames[counter + 4] = currentGameId;\r\n            userGames[counter + 5] = gamesList[currentGameId].pool;\r\n            userGames[counter + 6] = gamesList[currentGameId].luckyNumber;\r\n            if (prizeList[_user][currentGameId].isClaimed) {\r\n                userGames[counter + 3] = 0; // prize is claimed \r\n            } else if (prizeList[_user][currentGameId].isWinner) {\r\n                userGames[counter + 3] = 1; // the game is finished already and user allowed to claim prize\r\n            } else if (!gamesList[currentGameId].isFinished && block.timestamp >= gamesList[currentGameId].createdTimestamp + 300) {\r\n                userGames[counter + 3] = 2; // the game is ready for finish\r\n            } else {\r\n                userGames[counter + 3] = 0; // the game in progress\r\n            }\r\n            counter += 7;\r\n        }\r\n        return userGames;\r\n    }\r\n    \r\n    function generateRandom() public returns(uint8) {\r\n        uint8 randomNumber = uint8(uint(keccak256(abi.encodePacked(block.timestamp, msg.sender, nonce))) % 101); \r\n        nonce++;\r\n        // randomNumber = 15;\r\n        return randomNumber;\r\n    } \r\n\r\n    // Modifiers\r\n\r\n    modifier onlyInRange(uint8 _number) {\r\n        require(_number >= 0 && _number <= 100, \"Choose number between 0 and 100\");\r\n        _;\r\n    }\r\n\r\n    modifier onlyInGamePeriod(uint256 _gameId) {\r\n        require(block.timestamp <= gamesList[_gameId].createdTimestamp + 300, \"The game is finished\");  // 300 = 60 sec * 5\r\n        _;\r\n    }\r\n\r\n    // Events\r\n\r\n    event GameCreated(uint256 _gameId, uint8 _number);\r\n    event ParticipantJoined(uint256 _gameId, address indexed _participant, uint8 _number);\r\n    event GameFinished(uint256 _gameId);\r\n    event PrizeTransfered(uint256 _gameId, address indexed _participant, uint256 _amount);\r\n}",
  "sourcePath": "E:\\1folder\\fair\\contracts\\Fair.sol",
  "compiler": {
    "name": "solc",
    "version": "0.8.11+commit.d7f03943.Emscripten.clang"
  },
  "schemaVersion": "3.4.7",
  "updatedAt": "2022-06-26T01:38:04.592Z",
  "networkType": "ethereum",
  "devdoc": {
    "kind": "dev",
    "methods": {},
    "version": 1
  },
  "userdoc": {
    "kind": "user",
    "methods": {},
    "version": 1
  }
}